{
  "contractName": "Payroll",
  "abi": [
    {
      "inputs": [
        {
          "internalType": "address",
          "name": "",
          "type": "address"
        },
        {
          "internalType": "uint256",
          "name": "",
          "type": "uint256"
        }
      ],
      "name": "accessPermissions",
      "outputs": [
        {
          "internalType": "bool",
          "name": "",
          "type": "bool"
        }
      ],
      "stateMutability": "view",
      "type": "function",
      "constant": true
    },
    {
      "inputs": [
        {
          "internalType": "uint256",
          "name": "",
          "type": "uint256"
        }
      ],
      "name": "payrollRecords",
      "outputs": [
        {
          "internalType": "string",
          "name": "ipfsHash",
          "type": "string"
        },
        {
          "internalType": "address",
          "name": "employee",
          "type": "address"
        },
        {
          "internalType": "address",
          "name": "employer",
          "type": "address"
        }
      ],
      "stateMutability": "view",
      "type": "function",
      "constant": true
    },
    {
      "inputs": [
        {
          "internalType": "uint256",
          "name": "recordId",
          "type": "uint256"
        },
        {
          "internalType": "string",
          "name": "ipfsHash",
          "type": "string"
        },
        {
          "internalType": "address",
          "name": "employee",
          "type": "address"
        }
      ],
      "name": "addPayrollRecord",
      "outputs": [],
      "stateMutability": "nonpayable",
      "type": "function"
    },
    {
      "inputs": [
        {
          "internalType": "uint256",
          "name": "recordId",
          "type": "uint256"
        },
        {
          "internalType": "address",
          "name": "employee",
          "type": "address"
        }
      ],
      "name": "grantAccess",
      "outputs": [],
      "stateMutability": "nonpayable",
      "type": "function"
    },
    {
      "inputs": [
        {
          "internalType": "uint256",
          "name": "recordId",
          "type": "uint256"
        },
        {
          "internalType": "address",
          "name": "employee",
          "type": "address"
        }
      ],
      "name": "revokeAccess",
      "outputs": [],
      "stateMutability": "nonpayable",
      "type": "function"
    },
    {
      "inputs": [
        {
          "internalType": "uint256",
          "name": "recordId",
          "type": "uint256"
        }
      ],
      "name": "getPayrollRecord",
      "outputs": [
        {
          "internalType": "string",
          "name": "",
          "type": "string"
        }
      ],
      "stateMutability": "view",
      "type": "function",
      "constant": true
    }
  ],
  "bytecode": "0x608060405234801561001057600080fd5b50610cbc806100206000396000f3fe608060405234801561001057600080fd5b50600436106100625760003560e01c806365dd152c1461006757806370ac9067146100835780637d341df6146100b5578063d501817a146100d1578063d9a5ec1b14610101578063fc19c0401461011d575b600080fd5b610081600480360381019061007c919061087b565b61014d565b005b61009d60048036038101906100989190610852565b61025e565b6040516100ac93929190610a32565b60405180910390f35b6100cf60048036038101906100ca91906108b7565b610350565b005b6100eb60048036038101906100e69190610816565b61045c565b6040516100f891906109f5565b60405180910390f35b61011b6004803603810190610116919061087b565b61048b565b005b61013760048036038101906101329190610852565b61059d565b6040516101449190610a10565b60405180910390f35b813373ffffffffffffffffffffffffffffffffffffffff1660008083815260200190815260200160002060020160009054906101000a900473ffffffffffffffffffffffffffffffffffffffff1673ffffffffffffffffffffffffffffffffffffffff16146101f1576040517f08c379a00000000000000000000000000000000000000000000000000000000081526004016101e890610a70565b60405180910390fd5b60018060008473ffffffffffffffffffffffffffffffffffffffff1673ffffffffffffffffffffffffffffffffffffffff168152602001908152602001600020600085815260200190815260200160002060006101000a81548160ff021916908315150217905550505050565b600060205280600052604060002060009150905080600001805461028190610bb7565b80601f01602080910402602001604051908101604052809291908181526020018280546102ad90610bb7565b80156102fa5780601f106102cf576101008083540402835291602001916102fa565b820191906000526020600020905b8154815290600101906020018083116102dd57829003601f168201915b5050505050908060010160009054906101000a900473ffffffffffffffffffffffffffffffffffffffff16908060020160009054906101000a900473ffffffffffffffffffffffffffffffffffffffff16905083565b60405180606001604052808381526020018273ffffffffffffffffffffffffffffffffffffffff1681526020013373ffffffffffffffffffffffffffffffffffffffff1681525060008085815260200190815260200160002060008201518160000190805190602001906103c59291906106e1565b5060208201518160010160006101000a81548173ffffffffffffffffffffffffffffffffffffffff021916908373ffffffffffffffffffffffffffffffffffffffff16021790555060408201518160020160006101000a81548173ffffffffffffffffffffffffffffffffffffffff021916908373ffffffffffffffffffffffffffffffffffffffff160217905550905050505050565b60016020528160005260406000206020528060005260406000206000915091509054906101000a900460ff1681565b813373ffffffffffffffffffffffffffffffffffffffff1660008083815260200190815260200160002060020160009054906101000a900473ffffffffffffffffffffffffffffffffffffffff1673ffffffffffffffffffffffffffffffffffffffff161461052f576040517f08c379a000000000000000000000000000000000000000000000000000000000815260040161052690610a70565b60405180910390fd5b6000600160008473ffffffffffffffffffffffffffffffffffffffff1673ffffffffffffffffffffffffffffffffffffffff168152602001908152602001600020600085815260200190815260200160002060006101000a81548160ff021916908315150217905550505050565b6060600160003373ffffffffffffffffffffffffffffffffffffffff1673ffffffffffffffffffffffffffffffffffffffff168152602001908152602001600020600083815260200190815260200160002060009054906101000a900460ff1661063c576040517f08c379a000000000000000000000000000000000000000000000000000000000815260040161063390610a90565b60405180910390fd5b600080838152602001908152602001600020600001805461065c90610bb7565b80601f016020809104026020016040519081016040528092919081815260200182805461068890610bb7565b80156106d55780601f106106aa576101008083540402835291602001916106d5565b820191906000526020600020905b8154815290600101906020018083116106b857829003601f168201915b50505050509050919050565b8280546106ed90610bb7565b90600052602060002090601f01602090048101928261070f5760008555610756565b82601f1061072857805160ff1916838001178555610756565b82800160010185558215610756579182015b8281111561075557825182559160200191906001019061073a565b5b5090506107639190610767565b5090565b5b80821115610780576000816000905550600101610768565b5090565b600061079761079284610ae1565b610ab0565b9050828152602081018484840111156107af57600080fd5b6107ba848285610b75565b509392505050565b6000813590506107d181610c58565b92915050565b600082601f8301126107e857600080fd5b81356107f8848260208601610784565b91505092915050565b60008135905061081081610c6f565b92915050565b6000806040838503121561082957600080fd5b6000610837858286016107c2565b925050602061084885828601610801565b9150509250929050565b60006020828403121561086457600080fd5b600061087284828501610801565b91505092915050565b6000806040838503121561088e57600080fd5b600061089c85828601610801565b92505060206108ad858286016107c2565b9150509250929050565b6000806000606084860312156108cc57600080fd5b60006108da86828701610801565b935050602084013567ffffffffffffffff8111156108f757600080fd5b610903868287016107d7565b9250506040610914868287016107c2565b9150509250925092565b61092781610b2d565b82525050565b61093681610b3f565b82525050565b600061094782610b11565b6109518185610b1c565b9350610961818560208601610b84565b61096a81610c47565b840191505092915050565b6000610982601083610b1c565b91507f4e6f742074686520656d706c6f796572000000000000000000000000000000006000830152602082019050919050565b60006109c2600e83610b1c565b91507f4e6f7420617574686f72697a65640000000000000000000000000000000000006000830152602082019050919050565b6000602082019050610a0a600083018461092d565b92915050565b60006020820190508181036000830152610a2a818461093c565b905092915050565b60006060820190508181036000830152610a4c818661093c565b9050610a5b602083018561091e565b610a68604083018461091e565b949350505050565b60006020820190508181036000830152610a8981610975565b9050919050565b60006020820190508181036000830152610aa9816109b5565b9050919050565b6000604051905081810181811067ffffffffffffffff82111715610ad757610ad6610c18565b5b8060405250919050565b600067ffffffffffffffff821115610afc57610afb610c18565b5b601f19601f8301169050602081019050919050565b600081519050919050565b600082825260208201905092915050565b6000610b3882610b4b565b9050919050565b60008115159050919050565b600073ffffffffffffffffffffffffffffffffffffffff82169050919050565b6000819050919050565b82818337600083830152505050565b60005b83811015610ba2578082015181840152602081019050610b87565b83811115610bb1576000848401525b50505050565b60006002820490506001821680610bcf57607f821691505b60208210811415610be357610be2610be9565b5b50919050565b7f4e487b7100000000000000000000000000000000000000000000000000000000600052602260045260246000fd5b7f4e487b7100000000000000000000000000000000000000000000000000000000600052604160045260246000fd5b6000601f19601f8301169050919050565b610c6181610b2d565b8114610c6c57600080fd5b50565b610c7881610b6b565b8114610c8357600080fd5b5056fea26469706673582212205599778b8ecfb67b0ed74649f5d46eb186571b21d528f3f721f778140aee7d1464736f6c63430008000033",
  "immutableReferences": {},
  "source": "// SPDX-License-Identifier: MIT\r\npragma solidity ^0.8.0;\r\n\r\ncontract Payroll {\r\n    struct PayrollRecord {\r\n        string ipfsHash; // IPFS hash of the encrypted payroll data\r\n        address employee; // Employee address\r\n        address employer; // Employer address\r\n    }\r\n\r\n    mapping(uint256 => PayrollRecord) public payrollRecords;\r\n    mapping(address => mapping(uint256 => bool)) public accessPermissions;\r\n\r\n    modifier onlyEmployer(uint256 recordId) {\r\n        require(payrollRecords[recordId].employer == msg.sender, \"Not the employer\");\r\n        _;\r\n    }\r\n\r\n    // Add a new payroll record\r\n    function addPayrollRecord(uint256 recordId, string memory ipfsHash, address employee) public {\r\n        payrollRecords[recordId] = PayrollRecord(ipfsHash, employee, msg.sender);\r\n    }\r\n\r\n    // Grant access to an employee\r\n    function grantAccess(uint256 recordId, address employee) public onlyEmployer(recordId) {\r\n        accessPermissions[employee][recordId] = true;\r\n    }\r\n\r\n    // Revoke access from an employee\r\n    function revokeAccess(uint256 recordId, address employee) public onlyEmployer(recordId) {\r\n        accessPermissions[employee][recordId] = false;\r\n    }\r\n\r\n    // Get the IPFS hash of a payroll record\r\n    function getPayrollRecord(uint256 recordId) public view returns (string memory) {\r\n        require(accessPermissions[msg.sender][recordId], \"Not authorized\");\r\n        return payrollRecords[recordId].ipfsHash;\r\n    }\r\n}",
  "sourcePath": "C:\\Shalvi\\PayrollManagement_Blockchain\\payroll-smart-contract\\contracts\\Payroll.sol",
  "compiler": {
    "name": "solc",
    "version": "0.8.0+commit.c7dfd78e.Emscripten.clang"
  },
  "schemaVersion": "3.4.16",
  "updatedAt": "2025-02-19T16:03:45.761Z",
  "networkType": "ethereum",
  "devdoc": {
    "kind": "dev",
    "methods": {},
    "version": 1
  },
  "userdoc": {
    "kind": "user",
    "methods": {},
    "version": 1
  }
}