{
  "contractName": "Payroll",
  "abi": [
    {
      "inputs": [],
      "stateMutability": "nonpayable",
      "type": "constructor"
    },
    {
      "anonymous": false,
      "inputs": [
        {
          "indexed": true,
          "internalType": "uint256",
          "name": "recordId",
          "type": "uint256"
        },
        {
          "indexed": true,
          "internalType": "address",
          "name": "employee",
          "type": "address"
        }
      ],
      "name": "AccessGranted",
      "type": "event"
    },
    {
      "anonymous": false,
      "inputs": [
        {
          "indexed": true,
          "internalType": "uint256",
          "name": "recordId",
          "type": "uint256"
        },
        {
          "indexed": true,
          "internalType": "address",
          "name": "employee",
          "type": "address"
        }
      ],
      "name": "AccessRevoked",
      "type": "event"
    },
    {
      "anonymous": false,
      "inputs": [
        {
          "indexed": true,
          "internalType": "address",
          "name": "adminAddress",
          "type": "address"
        }
      ],
      "name": "AdminApproved",
      "type": "event"
    },
    {
      "anonymous": false,
      "inputs": [
        {
          "indexed": true,
          "internalType": "address",
          "name": "adminAddress",
          "type": "address"
        }
      ],
      "name": "AdminRejected",
      "type": "event"
    },
    {
      "anonymous": false,
      "inputs": [
        {
          "indexed": true,
          "internalType": "address",
          "name": "adminAddress",
          "type": "address"
        },
        {
          "indexed": false,
          "internalType": "string",
          "name": "name",
          "type": "string"
        },
        {
          "indexed": false,
          "internalType": "uint256",
          "name": "employeeId",
          "type": "uint256"
        },
        {
          "indexed": false,
          "internalType": "string",
          "name": "email",
          "type": "string"
        }
      ],
      "name": "AdminRequested",
      "type": "event"
    },
    {
      "anonymous": false,
      "inputs": [
        {
          "indexed": true,
          "internalType": "address",
          "name": "employee",
          "type": "address"
        },
        {
          "indexed": false,
          "internalType": "uint256",
          "name": "annualSalary",
          "type": "uint256"
        }
      ],
      "name": "EmployeeApproved",
      "type": "event"
    },
    {
      "anonymous": false,
      "inputs": [
        {
          "indexed": true,
          "internalType": "address",
          "name": "employee",
          "type": "address"
        },
        {
          "indexed": false,
          "internalType": "string",
          "name": "fullName",
          "type": "string"
        },
        {
          "indexed": false,
          "internalType": "uint256",
          "name": "employeeId",
          "type": "uint256"
        },
        {
          "indexed": false,
          "internalType": "string",
          "name": "email",
          "type": "string"
        }
      ],
      "name": "EmployeeRegistered",
      "type": "event"
    },
    {
      "anonymous": false,
      "inputs": [
        {
          "indexed": true,
          "internalType": "address",
          "name": "employee",
          "type": "address"
        }
      ],
      "name": "EmployeeRejected",
      "type": "event"
    },
    {
      "anonymous": false,
      "inputs": [
        {
          "indexed": true,
          "internalType": "uint256",
          "name": "recordId",
          "type": "uint256"
        },
        {
          "indexed": true,
          "internalType": "address",
          "name": "employee",
          "type": "address"
        }
      ],
      "name": "PayrollRecordAdded",
      "type": "event"
    },
    {
      "anonymous": false,
      "inputs": [
        {
          "indexed": true,
          "internalType": "address",
          "name": "employee",
          "type": "address"
        },
        {
          "indexed": false,
          "internalType": "uint256",
          "name": "yearMonth",
          "type": "uint256"
        },
        {
          "indexed": false,
          "internalType": "string",
          "name": "ipfsHash",
          "type": "string"
        }
      ],
      "name": "PayslipGenerated",
      "type": "event"
    },
    {
      "anonymous": false,
      "inputs": [
        {
          "indexed": true,
          "internalType": "address",
          "name": "employee",
          "type": "address"
        },
        {
          "indexed": false,
          "internalType": "uint256",
          "name": "yearMonth",
          "type": "uint256"
        },
        {
          "indexed": false,
          "internalType": "uint256",
          "name": "netAmount",
          "type": "uint256"
        }
      ],
      "name": "SalaryAdded",
      "type": "event"
    },
    {
      "anonymous": false,
      "inputs": [
        {
          "indexed": true,
          "internalType": "address",
          "name": "employee",
          "type": "address"
        },
        {
          "indexed": false,
          "internalType": "uint256",
          "name": "newAnnualSalary",
          "type": "uint256"
        }
      ],
      "name": "SalaryUpdated",
      "type": "event"
    },
    {
      "inputs": [],
      "name": "NI_RATE",
      "outputs": [
        {
          "internalType": "uint256",
          "name": "",
          "type": "uint256"
        }
      ],
      "stateMutability": "view",
      "type": "function",
      "constant": true
    },
    {
      "inputs": [],
      "name": "TAX_RATE",
      "outputs": [
        {
          "internalType": "uint256",
          "name": "",
          "type": "uint256"
        }
      ],
      "stateMutability": "view",
      "type": "function",
      "constant": true
    },
    {
      "inputs": [
        {
          "internalType": "address",
          "name": "",
          "type": "address"
        },
        {
          "internalType": "uint256",
          "name": "",
          "type": "uint256"
        }
      ],
      "name": "accessPermissions",
      "outputs": [
        {
          "internalType": "bool",
          "name": "",
          "type": "bool"
        }
      ],
      "stateMutability": "view",
      "type": "function",
      "constant": true
    },
    {
      "inputs": [
        {
          "internalType": "address",
          "name": "",
          "type": "address"
        }
      ],
      "name": "adminEmails",
      "outputs": [
        {
          "internalType": "string",
          "name": "",
          "type": "string"
        }
      ],
      "stateMutability": "view",
      "type": "function",
      "constant": true
    },
    {
      "inputs": [
        {
          "internalType": "address",
          "name": "",
          "type": "address"
        }
      ],
      "name": "adminEmployeeIds",
      "outputs": [
        {
          "internalType": "uint256",
          "name": "",
          "type": "uint256"
        }
      ],
      "stateMutability": "view",
      "type": "function",
      "constant": true
    },
    {
      "inputs": [
        {
          "internalType": "address",
          "name": "",
          "type": "address"
        }
      ],
      "name": "adminNames",
      "outputs": [
        {
          "internalType": "string",
          "name": "",
          "type": "string"
        }
      ],
      "stateMutability": "view",
      "type": "function",
      "constant": true
    },
    {
      "inputs": [
        {
          "internalType": "address",
          "name": "",
          "type": "address"
        }
      ],
      "name": "adminRequests",
      "outputs": [
        {
          "internalType": "string",
          "name": "name",
          "type": "string"
        },
        {
          "internalType": "uint256",
          "name": "employeeId",
          "type": "uint256"
        },
        {
          "internalType": "string",
          "name": "email",
          "type": "string"
        },
        {
          "internalType": "bool",
          "name": "approved",
          "type": "bool"
        }
      ],
      "stateMutability": "view",
      "type": "function",
      "constant": true
    },
    {
      "inputs": [
        {
          "internalType": "address",
          "name": "",
          "type": "address"
        }
      ],
      "name": "admins",
      "outputs": [
        {
          "internalType": "bool",
          "name": "",
          "type": "bool"
        }
      ],
      "stateMutability": "view",
      "type": "function",
      "constant": true
    },
    {
      "inputs": [
        {
          "internalType": "uint256",
          "name": "",
          "type": "uint256"
        }
      ],
      "name": "approvedAdmins",
      "outputs": [
        {
          "internalType": "address",
          "name": "",
          "type": "address"
        }
      ],
      "stateMutability": "view",
      "type": "function",
      "constant": true
    },
    {
      "inputs": [
        {
          "internalType": "uint256",
          "name": "",
          "type": "uint256"
        }
      ],
      "name": "approvedEmployees",
      "outputs": [
        {
          "internalType": "address",
          "name": "",
          "type": "address"
        }
      ],
      "stateMutability": "view",
      "type": "function",
      "constant": true
    },
    {
      "inputs": [
        {
          "internalType": "address",
          "name": "",
          "type": "address"
        }
      ],
      "name": "employeeDataHashes",
      "outputs": [
        {
          "internalType": "string",
          "name": "",
          "type": "string"
        }
      ],
      "stateMutability": "view",
      "type": "function",
      "constant": true
    },
    {
      "inputs": [
        {
          "internalType": "address",
          "name": "",
          "type": "address"
        }
      ],
      "name": "employeeOnChainData",
      "outputs": [
        {
          "internalType": "string",
          "name": "fullName",
          "type": "string"
        },
        {
          "internalType": "uint256",
          "name": "employeeId",
          "type": "uint256"
        },
        {
          "internalType": "string",
          "name": "email",
          "type": "string"
        },
        {
          "internalType": "uint256",
          "name": "annualSalary",
          "type": "uint256"
        },
        {
          "internalType": "uint256",
          "name": "monthlySalary",
          "type": "uint256"
        },
        {
          "internalType": "uint256",
          "name": "taxAmount",
          "type": "uint256"
        },
        {
          "internalType": "uint256",
          "name": "niAmount",
          "type": "uint256"
        },
        {
          "internalType": "uint256",
          "name": "netSalary",
          "type": "uint256"
        },
        {
          "internalType": "uint256",
          "name": "startDate",
          "type": "uint256"
        }
      ],
      "stateMutability": "view",
      "type": "function",
      "constant": true
    },
    {
      "inputs": [
        {
          "internalType": "address",
          "name": "",
          "type": "address"
        }
      ],
      "name": "employeeRequests",
      "outputs": [
        {
          "internalType": "string",
          "name": "name",
          "type": "string"
        },
        {
          "internalType": "uint256",
          "name": "employeeId",
          "type": "uint256"
        },
        {
          "internalType": "string",
          "name": "email",
          "type": "string"
        },
        {
          "internalType": "string",
          "name": "ipfsHash",
          "type": "string"
        },
        {
          "internalType": "bool",
          "name": "approved",
          "type": "bool"
        },
        {
          "internalType": "bool",
          "name": "exists",
          "type": "bool"
        }
      ],
      "stateMutability": "view",
      "type": "function",
      "constant": true
    },
    {
      "inputs": [
        {
          "internalType": "address",
          "name": "",
          "type": "address"
        },
        {
          "internalType": "uint256",
          "name": "",
          "type": "uint256"
        }
      ],
      "name": "employeeSalaries",
      "outputs": [
        {
          "internalType": "uint256",
          "name": "grossAmount",
          "type": "uint256"
        },
        {
          "internalType": "uint256",
          "name": "taxAmount",
          "type": "uint256"
        },
        {
          "internalType": "uint256",
          "name": "niAmount",
          "type": "uint256"
        },
        {
          "internalType": "uint256",
          "name": "netAmount",
          "type": "uint256"
        },
        {
          "internalType": "uint256",
          "name": "timestamp",
          "type": "uint256"
        },
        {
          "internalType": "bool",
          "name": "paid",
          "type": "bool"
        }
      ],
      "stateMutability": "view",
      "type": "function",
      "constant": true
    },
    {
      "inputs": [
        {
          "internalType": "address",
          "name": "",
          "type": "address"
        },
        {
          "internalType": "uint256",
          "name": "",
          "type": "uint256"
        }
      ],
      "name": "employeeSalaryMonths",
      "outputs": [
        {
          "internalType": "uint256",
          "name": "",
          "type": "uint256"
        }
      ],
      "stateMutability": "view",
      "type": "function",
      "constant": true
    },
    {
      "inputs": [],
      "name": "owner",
      "outputs": [
        {
          "internalType": "address",
          "name": "",
          "type": "address"
        }
      ],
      "stateMutability": "view",
      "type": "function",
      "constant": true
    },
    {
      "inputs": [
        {
          "internalType": "uint256",
          "name": "",
          "type": "uint256"
        }
      ],
      "name": "payrollRecords",
      "outputs": [
        {
          "internalType": "string",
          "name": "ipfsHash",
          "type": "string"
        },
        {
          "internalType": "address",
          "name": "employee",
          "type": "address"
        },
        {
          "internalType": "address",
          "name": "employer",
          "type": "address"
        }
      ],
      "stateMutability": "view",
      "type": "function",
      "constant": true
    },
    {
      "inputs": [
        {
          "internalType": "address",
          "name": "",
          "type": "address"
        },
        {
          "internalType": "uint256",
          "name": "",
          "type": "uint256"
        }
      ],
      "name": "payslips",
      "outputs": [
        {
          "internalType": "string",
          "name": "ipfsHash",
          "type": "string"
        },
        {
          "internalType": "bool",
          "name": "generated",
          "type": "bool"
        }
      ],
      "stateMutability": "view",
      "type": "function",
      "constant": true
    },
    {
      "inputs": [
        {
          "internalType": "uint256",
          "name": "",
          "type": "uint256"
        }
      ],
      "name": "pendingAdmins",
      "outputs": [
        {
          "internalType": "address",
          "name": "",
          "type": "address"
        }
      ],
      "stateMutability": "view",
      "type": "function",
      "constant": true
    },
    {
      "inputs": [
        {
          "internalType": "uint256",
          "name": "",
          "type": "uint256"
        }
      ],
      "name": "pendingEmployees",
      "outputs": [
        {
          "internalType": "address",
          "name": "",
          "type": "address"
        }
      ],
      "stateMutability": "view",
      "type": "function",
      "constant": true
    },
    {
      "inputs": [
        {
          "internalType": "uint256",
          "name": "",
          "type": "uint256"
        }
      ],
      "name": "taxSlabs",
      "outputs": [
        {
          "internalType": "uint256",
          "name": "min",
          "type": "uint256"
        },
        {
          "internalType": "uint256",
          "name": "max",
          "type": "uint256"
        },
        {
          "internalType": "uint256",
          "name": "rate",
          "type": "uint256"
        }
      ],
      "stateMutability": "view",
      "type": "function",
      "constant": true
    },
    {
      "inputs": [
        {
          "internalType": "address",
          "name": "_address",
          "type": "address"
        }
      ],
      "name": "verifyOwner",
      "outputs": [
        {
          "internalType": "bool",
          "name": "",
          "type": "bool"
        }
      ],
      "stateMutability": "view",
      "type": "function",
      "constant": true
    },
    {
      "inputs": [
        {
          "internalType": "string",
          "name": "_name",
          "type": "string"
        },
        {
          "internalType": "uint256",
          "name": "_employeeId",
          "type": "uint256"
        },
        {
          "internalType": "string",
          "name": "_email",
          "type": "string"
        }
      ],
      "name": "requestAdminRole",
      "outputs": [],
      "stateMutability": "nonpayable",
      "type": "function"
    },
    {
      "inputs": [
        {
          "internalType": "address",
          "name": "_adminAddress",
          "type": "address"
        }
      ],
      "name": "approveAdmin",
      "outputs": [],
      "stateMutability": "nonpayable",
      "type": "function"
    },
    {
      "inputs": [
        {
          "internalType": "address",
          "name": "_adminAddress",
          "type": "address"
        }
      ],
      "name": "rejectAdmin",
      "outputs": [],
      "stateMutability": "nonpayable",
      "type": "function"
    },
    {
      "inputs": [
        {
          "internalType": "string",
          "name": "_fullName",
          "type": "string"
        },
        {
          "internalType": "uint256",
          "name": "_employeeId",
          "type": "uint256"
        },
        {
          "internalType": "string",
          "name": "_email",
          "type": "string"
        },
        {
          "internalType": "string",
          "name": "_ipfsHash",
          "type": "string"
        }
      ],
      "name": "registerEmployee",
      "outputs": [],
      "stateMutability": "nonpayable",
      "type": "function"
    },
    {
      "inputs": [
        {
          "internalType": "address",
          "name": "employee",
          "type": "address"
        },
        {
          "internalType": "uint256",
          "name": "annualSalary",
          "type": "uint256"
        }
      ],
      "name": "approveEmployee",
      "outputs": [],
      "stateMutability": "nonpayable",
      "type": "function"
    },
    {
      "inputs": [
        {
          "internalType": "address",
          "name": "employee",
          "type": "address"
        }
      ],
      "name": "rejectEmployee",
      "outputs": [],
      "stateMutability": "nonpayable",
      "type": "function"
    },
    {
      "inputs": [
        {
          "internalType": "address",
          "name": "employee",
          "type": "address"
        },
        {
          "internalType": "string",
          "name": "ipfsHash",
          "type": "string"
        }
      ],
      "name": "updateEmployeeIPFSHash",
      "outputs": [],
      "stateMutability": "nonpayable",
      "type": "function"
    },
    {
      "inputs": [
        {
          "internalType": "uint256",
          "name": "annualSalary",
          "type": "uint256"
        }
      ],
      "name": "calculateSalaryComponents",
      "outputs": [
        {
          "internalType": "uint256",
          "name": "monthly",
          "type": "uint256"
        },
        {
          "internalType": "uint256",
          "name": "tax",
          "type": "uint256"
        },
        {
          "internalType": "uint256",
          "name": "ni",
          "type": "uint256"
        },
        {
          "internalType": "uint256",
          "name": "net",
          "type": "uint256"
        }
      ],
      "stateMutability": "pure",
      "type": "function",
      "constant": true
    },
    {
      "inputs": [
        {
          "internalType": "address",
          "name": "employee",
          "type": "address"
        }
      ],
      "name": "getEmployeeSalaryDetails",
      "outputs": [
        {
          "internalType": "uint256",
          "name": "annual",
          "type": "uint256"
        },
        {
          "internalType": "uint256",
          "name": "monthly",
          "type": "uint256"
        },
        {
          "internalType": "uint256",
          "name": "tax",
          "type": "uint256"
        },
        {
          "internalType": "uint256",
          "name": "ni",
          "type": "uint256"
        },
        {
          "internalType": "uint256",
          "name": "net",
          "type": "uint256"
        }
      ],
      "stateMutability": "view",
      "type": "function",
      "constant": true
    },
    {
      "inputs": [
        {
          "internalType": "address",
          "name": "employee",
          "type": "address"
        },
        {
          "internalType": "uint256",
          "name": "yearMonth",
          "type": "uint256"
        },
        {
          "internalType": "uint256",
          "name": "grossSalary",
          "type": "uint256"
        }
      ],
      "name": "addSalary",
      "outputs": [],
      "stateMutability": "nonpayable",
      "type": "function"
    },
    {
      "inputs": [
        {
          "internalType": "address",
          "name": "employee",
          "type": "address"
        },
        {
          "internalType": "uint256",
          "name": "yearMonth",
          "type": "uint256"
        },
        {
          "internalType": "string",
          "name": "ipfsHash",
          "type": "string"
        }
      ],
      "name": "setPayslipCID",
      "outputs": [],
      "stateMutability": "nonpayable",
      "type": "function"
    },
    {
      "inputs": [
        {
          "internalType": "uint256",
          "name": "grossSalary",
          "type": "uint256"
        }
      ],
      "name": "calculateTax",
      "outputs": [
        {
          "internalType": "uint256",
          "name": "",
          "type": "uint256"
        }
      ],
      "stateMutability": "view",
      "type": "function",
      "constant": true
    },
    {
      "inputs": [
        {
          "internalType": "uint256",
          "name": "recordId",
          "type": "uint256"
        },
        {
          "internalType": "string",
          "name": "ipfsHash",
          "type": "string"
        },
        {
          "internalType": "address",
          "name": "employee",
          "type": "address"
        }
      ],
      "name": "addPayrollRecord",
      "outputs": [],
      "stateMutability": "nonpayable",
      "type": "function"
    },
    {
      "inputs": [
        {
          "internalType": "uint256",
          "name": "recordId",
          "type": "uint256"
        },
        {
          "internalType": "address",
          "name": "employee",
          "type": "address"
        }
      ],
      "name": "grantAccess",
      "outputs": [],
      "stateMutability": "nonpayable",
      "type": "function"
    },
    {
      "inputs": [
        {
          "internalType": "uint256",
          "name": "recordId",
          "type": "uint256"
        },
        {
          "internalType": "address",
          "name": "employee",
          "type": "address"
        }
      ],
      "name": "revokeAccess",
      "outputs": [],
      "stateMutability": "nonpayable",
      "type": "function"
    },
    {
      "inputs": [
        {
          "internalType": "address",
          "name": "_address",
          "type": "address"
        }
      ],
      "name": "isAdmin",
      "outputs": [
        {
          "internalType": "bool",
          "name": "",
          "type": "bool"
        }
      ],
      "stateMutability": "view",
      "type": "function",
      "constant": true
    },
    {
      "inputs": [],
      "name": "getPendingAdmins",
      "outputs": [
        {
          "internalType": "address[]",
          "name": "",
          "type": "address[]"
        }
      ],
      "stateMutability": "view",
      "type": "function",
      "constant": true
    },
    {
      "inputs": [],
      "name": "getApprovedAdmins",
      "outputs": [
        {
          "internalType": "address[]",
          "name": "",
          "type": "address[]"
        }
      ],
      "stateMutability": "view",
      "type": "function",
      "constant": true
    },
    {
      "inputs": [],
      "name": "getPendingEmployees",
      "outputs": [
        {
          "internalType": "address[]",
          "name": "",
          "type": "address[]"
        }
      ],
      "stateMutability": "view",
      "type": "function",
      "constant": true
    },
    {
      "inputs": [],
      "name": "getApprovedEmployees",
      "outputs": [
        {
          "internalType": "address[]",
          "name": "",
          "type": "address[]"
        }
      ],
      "stateMutability": "view",
      "type": "function",
      "constant": true
    },
    {
      "inputs": [
        {
          "internalType": "address",
          "name": "employee",
          "type": "address"
        }
      ],
      "name": "getEmployeeDetails",
      "outputs": [
        {
          "components": [
            {
              "internalType": "string",
              "name": "name",
              "type": "string"
            },
            {
              "internalType": "uint256",
              "name": "employeeId",
              "type": "uint256"
            },
            {
              "internalType": "string",
              "name": "email",
              "type": "string"
            },
            {
              "internalType": "string",
              "name": "ipfsHash",
              "type": "string"
            },
            {
              "internalType": "bool",
              "name": "approved",
              "type": "bool"
            },
            {
              "internalType": "bool",
              "name": "exists",
              "type": "bool"
            }
          ],
          "internalType": "struct Payroll.EmployeeRequest",
          "name": "",
          "type": "tuple"
        }
      ],
      "stateMutability": "view",
      "type": "function",
      "constant": true
    },
    {
      "inputs": [
        {
          "internalType": "address",
          "name": "employee",
          "type": "address"
        }
      ],
      "name": "getSalaryMonths",
      "outputs": [
        {
          "internalType": "uint256[]",
          "name": "",
          "type": "uint256[]"
        }
      ],
      "stateMutability": "view",
      "type": "function",
      "constant": true
    },
    {
      "inputs": [
        {
          "internalType": "uint256",
          "name": "recordId",
          "type": "uint256"
        }
      ],
      "name": "getPayrollRecord",
      "outputs": [
        {
          "internalType": "string",
          "name": "",
          "type": "string"
        }
      ],
      "stateMutability": "view",
      "type": "function",
      "constant": true
    }
  ],
  "bytecode": "0x608060405234801561001057600080fd5b50600080546001600160a01b031916331781556040805160608082018352838252683635c9adc5dea000006020808401828152600a8587019081526011805460018181018355828b52975160039182027f31ecc21a745e3968a04e9570e4425bc18fa8019c68028196b546d1669c200c688181019290925594517f31ecc21a745e3968a04e9570e4425bc18fa8019c68028196b546d1669c200c698087019190915593517f31ecc21a745e3968a04e9570e4425bc18fa8019c68028196b546d1669c200c6a9586015589518089018b5296875269010f0cf064dd592000008787018181526014898d019081528554808d018755868f5299519985028085019a909a55905189870155519786019790975589519788018a52958752600019948701948552601e98870198895281549788018255985293519490960291820193909355915190820155905191015561349b8061016b6000396000f3fe608060405234801561001057600080fd5b506004361061027f5760003560e01c80636eb7c7861161015c5780639be2ed0b116100ce578063d501817a11610087578063d501817a14610618578063d9a5ec1b1461062b578063e31bf91d1461063e578063e61b28ff14610651578063e63dc85f14610664578063fc19c040146106775761027f565b80639be2ed0b146105ac578063a58edf09146105bf578063a61c510a146105d2578063add34bde146105f5578063b5c1b0a9146105fd578063c6b7d3d8146106055761027f565b80638199a24e116101205780638199a24e1461054c57806383f170be1461056e5780638c85cd85146105765780638da5cb5b14610589578063956c2dcc14610591578063964ce51e146105a45761027f565b80636eb7c786146104de57806370ac9067146104f157806374ca47c7146105135780637ae7523f146105265780637d341df6146105395761027f565b80633c48aa79116101f5578063483a9310116101b9578063483a9310146104465780634c3047f4146104595780635c58e7761461047d5780635e913f6c1461049057806365dd152c146104b85780636d73e669146104cb5761027f565b80633c48aa79146103d3578063405338b7146103f6578063429b62e51461041657806343069f2414610429578063459ad834146104315761027f565b80631ba04cc7116102475780631ba04cc71461032d5780631caafcf11461034d57806324d7806c1461036d5780632bf35b341461038d5780633234a484146103a0578063326da1a0146103c05761027f565b806301a9578d146102845780630e66848d146102ad5780630ff28cf7146102d257806315dab9bb146102f357806316adc5ef14610308575b600080fd5b610297610292366004612af4565b61068a565b6040516102a491906132c2565b60405180910390f35b6102c06102bb366004612a87565b6106bb565b6040516102a496959493929190612f2e565b6102e56102e0366004612af4565b61088d565b6040516102a4929190612e96565b610306610301366004612a87565b61093f565b005b61031b610316366004612af4565b610a35565b6040516102a496959493929190613363565b61034061033b366004612a87565b610a78565b6040516102a49190612e50565b61036061035b366004612a87565b610b12565b6040516102a4919061323b565b61038061037b366004612a87565b610d25565b6040516102a49190612e45565b61034061039b366004612a87565b610d43565b6103b36103ae366004612cc9565b610d5c565b6040516102a49190612dac565b6103066103ce366004612aa8565b610d86565b6103e66103e1366004612a87565b610dfe565b6040516102a49493929190612eef565b610409610404366004612a87565b610f39565b6040516102a49190612e0d565b610380610424366004612a87565b610fa5565b610297610fba565b610439610fbf565b6040516102a49190612dc0565b610297610454366004612cc9565b611021565b61046c610467366004612a87565b611114565b6040516102a4959493929190613340565b61029761048b366004612a87565b6112e7565b6104a361049e366004612a87565b6112f9565b6040516102a499989796959493929190612f88565b6103066104c6366004612ce1565b61144f565b6103066104d9366004612a87565b6114e1565b6103066104ec366004612c3b565b611689565b6105046104ff366004612cc9565b611890565b6040516102a493929190612e63565b6103b3610521366004612cc9565b611947565b610306610534366004612a87565b611957565b610306610547366004612d0c565b611a6d565b61055f61055a366004612cc9565b611bb3565b6040516102a49392919061330f565b610297611be6565b610380610584366004612a87565b611beb565b6103b3611bff565b61034061059f366004612a87565b611c0e565b610439611c27565b6103066105ba366004612af4565b611c87565b6103b36105cd366004612cc9565b611e11565b6105e56105e0366004612cc9565b611e21565b6040516102a49493929190613325565b610439611e83565b610439611ee3565b610306610613366004612bd1565b611f43565b610380610626366004612af4565b6120de565b610306610639366004612ce1565b6120fe565b6103b361064c366004612cc9565b61218d565b61030661065f366004612b1d565b61219d565b610306610672366004612b9f565b6122f5565b610340610685366004612cc9565b612533565b601060205281600052604060002081815481106106a657600080fd5b90600052602060002001600091509150505481565b600c602052600090815260409020805481906106d6906133e3565b80601f0160208091040260200160405190810160405280929190818152602001828054610702906133e3565b801561074f5780601f106107245761010080835404028352916020019161074f565b820191906000526020600020905b81548152906001019060200180831161073257829003601f168201915b50505050509080600101549080600201805461076a906133e3565b80601f0160208091040260200160405190810160405280929190818152602001828054610796906133e3565b80156107e35780601f106107b8576101008083540402835291602001916107e3565b820191906000526020600020905b8154815290600101906020018083116107c657829003601f168201915b5050505050908060030180546107f8906133e3565b80601f0160208091040260200160405190810160405280929190818152602001828054610824906133e3565b80156108715780601f1061084657610100808354040283529160200191610871565b820191906000526020600020905b81548152906001019060200180831161085457829003601f168201915b5050506004909301549192505060ff8082169161010090041686565b600f6020908152600092835260408084209091529082529020805481906108b3906133e3565b80601f01602080910402602001604051908101604052809291908181526020018280546108df906133e3565b801561092c5780601f106109015761010080835404028352916020019161092c565b820191906000526020600020905b81548152906001019060200180831161090f57829003601f168201915b5050506001909301549192505060ff1682565b6000546001600160a01b031633146109725760405162461bcd60e51b815260040161096990613199565b60405180910390fd5b6001600160a01b0381166000908152600b602052604090206003015460ff16156109ae5760405162461bcd60e51b815260040161096990613049565b6109b781612604565b6001600160a01b0381166000908152600b60205260408120906109da8282612862565b60018201600090556002820160006109f29190612862565b50600301805460ff191690556040516001600160a01b038216907fe07363bd8f4d015b4aa1fae4fde3985df93f7b2cc9602ae484e64d6c29364d2590600090a250565b600e602090815260009283526040808420909152908252902080546001820154600283015460038401546004850154600590950154939492939192909160ff1686565b60086020526000908152604090208054610a91906133e3565b80601f0160208091040260200160405190810160405280929190818152602001828054610abd906133e3565b8015610b0a5780601f10610adf57610100808354040283529160200191610b0a565b820191906000526020600020905b815481529060010190602001808311610aed57829003601f168201915b505050505081565b610b1a6128a1565b6001600160a01b0382166000908152600c602052604090819020815160c08101909252805482908290610b4c906133e3565b80601f0160208091040260200160405190810160405280929190818152602001828054610b78906133e3565b8015610bc55780601f10610b9a57610100808354040283529160200191610bc5565b820191906000526020600020905b815481529060010190602001808311610ba857829003601f168201915b5050505050815260200160018201548152602001600282018054610be8906133e3565b80601f0160208091040260200160405190810160405280929190818152602001828054610c14906133e3565b8015610c615780601f10610c3657610100808354040283529160200191610c61565b820191906000526020600020905b815481529060010190602001808311610c4457829003601f168201915b50505050508152602001600382018054610c7a906133e3565b80601f0160208091040260200160405190810160405280929190818152602001828054610ca6906133e3565b8015610cf35780601f10610cc857610100808354040283529160200191610cf3565b820191906000526020600020905b815481529060010190602001808311610cd657829003601f168201915b50505091835250506004919091015460ff8082161515602084015261010090910416151560409091015290505b919050565b6001600160a01b031660009081526005602052604090205460ff1690565b60066020526000908152604090208054610a91906133e3565b60038181548110610d6c57600080fd5b6000918252602090912001546001600160a01b0316905081565b3360009081526005602052604090205460ff1680610dae57506000546001600160a01b031633145b610dca5760405162461bcd60e51b815260040161096990613213565b6001600160a01b0382166000908152600c602090815260409091208251610df9926003909201918401906128db565b505050565b600b60205260009081526040902080548190610e19906133e3565b80601f0160208091040260200160405190810160405280929190818152602001828054610e45906133e3565b8015610e925780601f10610e6757610100808354040283529160200191610e92565b820191906000526020600020905b815481529060010190602001808311610e7557829003601f168201915b505050505090806001015490806002018054610ead906133e3565b80601f0160208091040260200160405190810160405280929190818152602001828054610ed9906133e3565b8015610f265780601f10610efb57610100808354040283529160200191610f26565b820191906000526020600020905b815481529060010190602001808311610f0957829003601f168201915b5050506003909301549192505060ff1684565b6001600160a01b038116600090815260106020908152604091829020805483518184028101840190945280845260609392830182828015610f9957602002820191906000526020600020905b815481526020019060010190808311610f85575b50505050509050919050565b60056020526000908152604090205460ff1681565b600c81565b6060600480548060200260200160405190810160405280929190818152602001828054801561101757602002820191906000526020600020905b81546001600160a01b03168152600190910190602001808311610ff9575b5050505050905090565b6000805b60115481101561110b576011818154811061105057634e487b7160e01b600052603260045260246000fd5b90600052602060002090600302016000015483101580156110a257506011818154811061108d57634e487b7160e01b600052603260045260246000fd5b90600052602060002090600302016001015483105b156110f9576064601182815481106110ca57634e487b7160e01b600052603260045260246000fd5b906000526020600020906003020160020154846110e791906133ad565b6110f1919061338d565b915050610d20565b806111038161341e565b915050611025565b50600092915050565b60008060008060008060126000886001600160a01b03166001600160a01b031681526020019081526020016000206040518061012001604052908160008201805461115e906133e3565b80601f016020809104026020016040519081016040528092919081815260200182805461118a906133e3565b80156111d75780601f106111ac576101008083540402835291602001916111d7565b820191906000526020600020905b8154815290600101906020018083116111ba57829003601f168201915b50505050508152602001600182015481526020016002820180546111fa906133e3565b80601f0160208091040260200160405190810160405280929190818152602001828054611226906133e3565b80156112735780601f1061124857610100808354040283529160200191611273565b820191906000526020600020905b81548152906001019060200180831161125657829003601f168201915b5050505050815260200160038201548152602001600482015481526020016005820154815260200160068201548152602001600782015481526020016008820154815250509050806060015181608001518260a001518360c001518460e00151955095509550955095505091939590929450565b60076020526000908152604090205481565b601260205260009081526040902080548190611314906133e3565b80601f0160208091040260200160405190810160405280929190818152602001828054611340906133e3565b801561138d5780601f106113625761010080835404028352916020019161138d565b820191906000526020600020905b81548152906001019060200180831161137057829003601f168201915b5050505050908060010154908060020180546113a8906133e3565b80601f01602080910402602001604051908101604052809291908181526020018280546113d4906133e3565b80156114215780601f106113f657610100808354040283529160200191611421565b820191906000526020600020905b81548152906001019060200180831161140457829003601f168201915b5050505050908060030154908060040154908060050154908060060154908060070154908060080154905089565b6000828152600960205260409020600201546001600160a01b031633146114885760405162461bcd60e51b81526004016109699061309b565b6001600160a01b0381166000818152600a60209081526040808320868452909152808220805460ff191660011790555184917f3c3a9147a1fc73dd51a32f4d10c43d457e8cb826eb6f35cac6349eb965ba82b491a35050565b6000546001600160a01b0316331461150b5760405162461bcd60e51b815260040161096990613199565b6001600160a01b0381166000908152600b602052604090206003015460ff16156115475760405162461bcd60e51b815260040161096990613049565b6001600160a01b0381166000908152600560209081526040808320805460ff19166001179055600b82528083206006909252909120815490919061158a906133e3565b61159592919061295f565b506001600160a01b0381166000908152600b60209081526040808320600181015460078452828520556008909252909120600290910180546115d6906133e3565b6115e192919061295f565b506001600160a01b0381166000908152600b60205260409020600301805460ff1916600117905561161181612604565b6004805460018101825560009182527f8a35acfbc15ff81a39ae7d344fd709f28e8600b4aa8c65c6b64bfe7fe36bd19b0180546001600160a01b0319166001600160a01b03841690811790915560405190917ffabaa80f65af32f62e52c9e7740cc469e3307d1e4afc01ab4b11be61ddef487691a250565b336000908152600c6020526040902060040154610100900460ff16156116c15760405162461bcd60e51b8152600401610969906130c1565b60008451116116e25760405162461bcd60e51b815260040161096990613022565b600083116117025760405162461bcd60e51b8152600401610969906131e6565b60008251116117235760405162461bcd60e51b815260040161096990613073565b60008151116117445760405162461bcd60e51b81526004016109699061316d565b6040805160c081018252858152602080820186905281830185905260608201849052600060808301819052600160a0840152338152600c825292909220815180519293919261179692849201906128db565b506020828101516001830155604083015180516117b992600285019201906128db565b50606082015180516117d59160038401916020909101906128db565b5060808201516004909101805460a09093015115156101000261ff001992151560ff199094169390931791909116919091179055600280546001810182556000919091527f405787fa12a823e0f2b7631cc41b3ba8828b3321ca811111fa75cd3aa3bb5ace0180546001600160a01b031916339081179091556040517fd5dd1c969fe5ecffec1f7731859a93b031c559aca218ee4c64f19753d723a2579061188290879087908790612eba565b60405180910390a250505050565b6009602052600090815260409020805481906118ab906133e3565b80601f01602080910402602001604051908101604052809291908181526020018280546118d7906133e3565b80156119245780601f106118f957610100808354040283529160200191611924565b820191906000526020600020905b81548152906001019060200180831161190757829003601f168201915b50505050600183015460029093015491926001600160a01b039081169216905083565b60048181548110610d6c57600080fd5b3360009081526005602052604090205460ff168061197f57506000546001600160a01b031633145b61199b5760405162461bcd60e51b815260040161096990613213565b6001600160a01b0381166000908152600c602052604090206004015460ff16156119d75760405162461bcd60e51b815260040161096990613049565b6119e081612748565b6001600160a01b0381166000908152600c6020526040812090611a038282612862565b6001820160009055600282016000611a1b9190612862565b611a29600383016000612862565b50600401805461ffff191690556040516001600160a01b038216907f3ea7a2184fd07e601e85c2763d5ce0811e5340156854cb97d89922894fce125290600090a250565b3360009081526005602052604090205460ff1680611a9557506000546001600160a01b031633145b611ab15760405162461bcd60e51b815260040161096990613213565b6000825111611ad25760405162461bcd60e51b81526004016109699061316d565b6001600160a01b038116611af85760405162461bcd60e51b815260040161096990612feb565b604080516060810182528381526001600160a01b0383166020808301919091523382840152600086815260098252929092208151805192939192611b3f92849201906128db565b5060208201516001820180546001600160a01b03199081166001600160a01b0393841617909155604093840151600290930180549091169282169290921790915590519082169084907f2cf5940bc4243355ceeddd911fef35a13516d0a09937a5bc3f571b198a96ceeb90600090a3505050565b60118181548110611bc357600080fd5b600091825260209091206003909102018054600182015460029092015490925083565b601481565b6000546001600160a01b0390811691161490565b6000546001600160a01b031681565b600d6020526000908152604090208054610a91906133e3565b60606002805480602002602001604051908101604052809291908181526020018280548015611017576020028201919060005260206000209081546001600160a01b03168152600190910190602001808311610ff9575050505050905090565b3360009081526005602052604090205460ff1680611caf57506000546001600160a01b031633145b611ccb5760405162461bcd60e51b815260040161096990613213565b6001600160a01b0382166000908152600c602052604090206004015460ff1615611d075760405162461bcd60e51b815260040161096990613049565b600080600080611d1685611e21565b6001600160a01b038a16600081815260126020908152604080832060038082018f905560048083018b9055600583018a90556006830189905560078301889055426008840155600c909452918420909201805460ff191660019081179091558154908101825592527fc2575a0e9e593c00f959f8c92f12db2869c3395a3b0502d05e2516446f71f85b90910180546001600160a01b03191690921790915593975091955093509150611dc787612748565b866001600160a01b03167fbe79f729105f0f11ded9efc85baca2b0b56e0ac5b06958051961bea75b66ed8b87604051611e0091906132c2565b60405180910390a250505050505050565b60018181548110610d6c57600080fd5b6000808080611e31600c8661338d565b93506064611e406014866133ad565b611e4a919061338d565b92506064611e59600c866133ad565b611e63919061338d565b915081611e7084866133cc565b611e7a91906133cc565b90509193509193565b60606003805480602002602001604051908101604052809291908181526020018280548015611017576020028201919060005260206000209081546001600160a01b03168152600190910190602001808311610ff9575050505050905090565b60606001805480602002602001604051908101604052809291908181526020018280548015611017576020028201919060005260206000209081546001600160a01b03168152600190910190602001808311610ff9575050505050905090565b3360009081526005602052604090205460ff1615611f735760405162461bcd60e51b8152600401610969906130ed565b6000835111611f945760405162461bcd60e51b815260040161096990613022565b60008211611fb45760405162461bcd60e51b8152600401610969906131e6565b6000815111611fd55760405162461bcd60e51b815260040161096990613073565b604080516080810182528481526020808201859052818301849052600060608301819052338152600b825292909220815180519293919261201992849201906128db565b5060208281015160018301556040830151805161203c92600285019201906128db565b50606091909101516003909101805460ff19169115159190911790556001805480820182556000919091527fb10e2d527612073b26eecdfd717e6a320cf44b4afac2b0732d9fcbe2b7fa0cf6018054336001600160a01b031990911681179091556040517f30be33830082aa5fe7b65f3972e0ad3fd5d089aa4bde4a4d9fdfeb305ff24d31906120d190869086908690612eba565b60405180910390a2505050565b600a60209081526000928352604080842090915290825290205460ff1681565b6000828152600960205260409020600201546001600160a01b031633146121375760405162461bcd60e51b81526004016109699061309b565b6001600160a01b0381166000818152600a60209081526040808320868452909152808220805460ff191690555184917f125883b94692baebecad9f111ed97ffa626523bbbadc6b0ef85ee1b56b9e52d591a35050565b60028181548110610d6c57600080fd5b3360009081526005602052604090205460ff16806121c557506000546001600160a01b031633145b6121e15760405162461bcd60e51b815260040161096990613213565b6001600160a01b0384166000908152600e602090815260408083208684529091529020600401546122245760405162461bcd60e51b8152600401610969906131bc565b6040805160606020601f85018190040282018101835291810183815290918291908590859081908501838280828437600092018290525093855250506001602093840152506001600160a01b0387168152600f825260408082208783528352902082518051919261229a928492909101906128db565b50602091909101516001909101805460ff19169115159190911790556040516001600160a01b038516907fa129b44b61ece8479245619c8d2bf2955fc9be3efc67160b211141f09b6e492e90611882908690869086906132cb565b3360009081526005602052604090205460ff168061231d57506000546001600160a01b031633145b6123395760405162461bcd60e51b815260040161096990613213565b6001600160a01b0383166000908152600e6020908152604080832085845290915290206005015460ff16156123805760405162461bcd60e51b815260040161096990613117565b600081116123a05760405162461bcd60e51b81526004016109699061313e565b60006123ab82611021565b9050600060646123bc600c856133ad565b6123c6919061338d565b90506000816123d584866133cc565b6123df91906133cc565b90506040518060c0016040528085815260200184815260200183815260200182815260200142815260200160011515815250600e6000886001600160a01b03166001600160a01b031681526020019081526020016000206000878152602001908152602001600020600082015181600001556020820151816001015560408201518160020155606082015181600301556080820151816004015560a08201518160050160006101000a81548160ff02191690831515021790555090505060106000876001600160a01b03166001600160a01b03168152602001908152602001600020859080600181540180825580915050600190039060005260206000200160009091909190915055856001600160a01b03167f0f70f7f84c3f7600a29e901878163e3b0aa49e7477e446b71eb33faf1998d1138683604051612523929190613301565b60405180910390a2505050505050565b336000908152600a6020908152604080832084845290915290205460609060ff166125705760405162461bcd60e51b815260040161096990613213565b60008281526009602052604090208054612589906133e3565b80601f01602080910402602001604051908101604052809291908181526020018280546125b5906133e3565b8015610f995780601f106125d757610100808354040283529160200191610f99565b820191906000526020600020905b8154815290600101906020018083116125e55750939695505050505050565b60005b60015481101561274457816001600160a01b03166001828154811061263c57634e487b7160e01b600052603260045260246000fd5b6000918252602090912001546001600160a01b0316141561273257600180546126669082906133cc565b8154811061268457634e487b7160e01b600052603260045260246000fd5b600091825260209091200154600180546001600160a01b0390921691839081106126be57634e487b7160e01b600052603260045260246000fd5b9060005260206000200160006101000a8154816001600160a01b0302191690836001600160a01b03160217905550600180548061270b57634e487b7160e01b600052603160045260246000fd5b600082815260209020810160001990810180546001600160a01b0319169055019055612744565b8061273c8161341e565b915050612607565b5050565b60005b60025481101561274457816001600160a01b03166002828154811061278057634e487b7160e01b600052603260045260246000fd5b6000918252602090912001546001600160a01b0316141561285057600280546127ab906001906133cc565b815481106127c957634e487b7160e01b600052603260045260246000fd5b600091825260209091200154600280546001600160a01b03909216918390811061280357634e487b7160e01b600052603260045260246000fd5b9060005260206000200160006101000a8154816001600160a01b0302191690836001600160a01b03160217905550600280548061270b57634e487b7160e01b600052603160045260246000fd5b8061285a8161341e565b91505061274b565b50805461286e906133e3565b6000825580601f10612880575061289e565b601f01602090049060005260206000209081019061289e91906129da565b50565b6040518060c00160405280606081526020016000815260200160608152602001606081526020016000151581526020016000151581525090565b8280546128e7906133e3565b90600052602060002090601f016020900481019282612909576000855561294f565b82601f1061292257805160ff191683800117855561294f565b8280016001018555821561294f579182015b8281111561294f578251825591602001919060010190612934565b5061295b9291506129da565b5090565b82805461296b906133e3565b90600052602060002090601f01602090048101928261298d576000855561294f565b82601f1061299e578054855561294f565b8280016001018555821561294f57600052602060002091601f016020900482015b8281111561294f5782548255916001019190600101906129bf565b5b8082111561295b57600081556001016129db565b80356001600160a01b0381168114610d2057600080fd5b600082601f830112612a16578081fd5b813567ffffffffffffffff80821115612a3157612a3161344f565b604051601f8301601f191681016020018281118282101715612a5557612a5561344f565b604052828152848301602001861015612a6c578384fd5b82602086016020830137918201602001929092529392505050565b600060208284031215612a98578081fd5b612aa1826129ef565b9392505050565b60008060408385031215612aba578081fd5b612ac3836129ef565b9150602083013567ffffffffffffffff811115612ade578182fd5b612aea85828601612a06565b9150509250929050565b60008060408385031215612b06578182fd5b612b0f836129ef565b946020939093013593505050565b60008060008060608587031215612b32578182fd5b612b3b856129ef565b935060208501359250604085013567ffffffffffffffff80821115612b5e578384fd5b818701915087601f830112612b71578384fd5b813581811115612b7f578485fd5b886020828501011115612b90578485fd5b95989497505060200194505050565b600080600060608486031215612bb3578283fd5b612bbc846129ef565b95602085013595506040909401359392505050565b600080600060608486031215612be5578283fd5b833567ffffffffffffffff80821115612bfc578485fd5b612c0887838801612a06565b9450602086013593506040860135915080821115612c24578283fd5b50612c3186828701612a06565b9150509250925092565b60008060008060808587031215612c50578384fd5b843567ffffffffffffffff80821115612c67578586fd5b612c7388838901612a06565b9550602087013594506040870135915080821115612c8f578384fd5b612c9b88838901612a06565b93506060870135915080821115612cb0578283fd5b50612cbd87828801612a06565b91505092959194509250565b600060208284031215612cda578081fd5b5035919050565b60008060408385031215612cf3578182fd5b82359150612d03602084016129ef565b90509250929050565b600080600060608486031215612d20578283fd5b83359250602084013567ffffffffffffffff811115612d3d578283fd5b612d4986828701612a06565b925050612d58604085016129ef565b90509250925092565b60008151808452815b81811015612d8657602081850181015186830182015201612d6a565b81811115612d975782602083870101525b50601f01601f19169290920160200192915050565b6001600160a01b0391909116815260200190565b6020808252825182820181905260009190848201906040850190845b81811015612e015783516001600160a01b031683529284019291840191600101612ddc565b50909695505050505050565b6020808252825182820181905260009190848201906040850190845b81811015612e0157835183529284019291840191600101612e29565b901515815260200190565b600060208252612aa16020830184612d61565b600060608252612e766060830186612d61565b6001600160a01b0394851660208401529290931660409091015292915050565b600060408252612ea96040830185612d61565b905082151560208301529392505050565b600060608252612ecd6060830186612d61565b8460208401528281036040840152612ee58185612d61565b9695505050505050565b600060808252612f026080830187612d61565b8560208401528281036040840152612f1a8186612d61565b915050821515606083015295945050505050565b600060c08252612f4160c0830189612d61565b8760208401528281036040840152612f598188612d61565b90508281036060840152612f6d8187612d61565b9415156080840152505090151560a090910152949350505050565b6000610120808352612f9c8184018d612d61565b90508a60208401528281036040840152612fb6818b612d61565b60608401999099525050608081019590955260a085019390935260c084019190915260e0830152610100909101529392505050565b60208082526018908201527f496e76616c696420656d706c6f79656520616464726573730000000000000000604082015260600190565b6020808252600d908201526c13985b59481c995c5d5a5c9959609a1b604082015260600190565b60208082526010908201526f105b1c9958591e48185c1c1c9bdd995960821b604082015260600190565b6020808252600e908201526d115b585a5b081c995c5d5a5c995960921b604082015260600190565b6020808252600c908201526b2737ba1032b6b83637bcb2b960a11b604082015260600190565b602080825260129082015271105b1c9958591e481c9959da5cdd195c995960721b604082015260600190565b60208082526010908201526f20b63932b0b23c9030b71030b236b4b760811b604082015260600190565b6020808252600d908201526c53616c6172792065786973747360981b604082015260600190565b602080825260159082015274125b9d985b1a59081cd85b185c9e48185b5bdd5b9d605a1b604082015260600190565b60208082526012908201527112541194c81a185cda081c995c5d5a5c995960721b604082015260600190565b6020808252600990820152682737ba1037bbb732b960b91b604082015260600190565b60208082526010908201526f14d85b185c9e481b9bdd08199bdd5b9960821b604082015260600190565b602080825260139082015272125b9d985b1a5908195b5c1b1bde5959481251606a1b604082015260600190565b6020808252600e908201526d139bdd08185d5d1a1bdc9a5e995960921b604082015260600190565b600060208252825160c0602084015261325760e0840182612d61565b9050602084015160408401526040840151601f198085840301606086015261327f8383612d61565b925060608601519150808584030160808601525061329d8282612d61565b9150506080840151151560a084015260a0840151151560c08401528091505092915050565b90815260200190565b60008482526040602083015282604083015282846060840137818301606090810191909152601f909201601f1916010192915050565b918252602082015260400190565b9283526020830191909152604082015260600190565b93845260208401929092526040830152606082015260800190565b948552602085019390935260408401919091526060830152608082015260a00190565b9586526020860194909452604085019290925260608401526080830152151560a082015260c00190565b6000826133a857634e487b7160e01b81526012600452602481fd5b500490565b60008160001904831182151516156133c7576133c7613439565b500290565b6000828210156133de576133de613439565b500390565b6002810460018216806133f757607f821691505b6020821081141561341857634e487b7160e01b600052602260045260246000fd5b50919050565b600060001982141561343257613432613439565b5060010190565b634e487b7160e01b600052601160045260246000fd5b634e487b7160e01b600052604160045260246000fdfea2646970667358221220d93fe5b21e9ff1490965bdecb8d21d296d80bf68b9d115ee672525dc0c729be964736f6c63430008000033",
  "immutableReferences": {},
  "source": "// SPDX-License-Identifier: MIT\r\npragma solidity ^0.8.0;\r\n\r\ncontract Payroll {\r\n    address public owner;\r\n    address[] public pendingAdmins;\r\n    address[] public pendingEmployees;\r\n    address[] public approvedEmployees;\r\n    address[] public approvedAdmins;\r\n    uint256 public constant TAX_RATE = 20;\r\n    uint256 public constant NI_RATE = 12;\r\n\r\n    // Existing structures\r\n    struct PayrollRecord {\r\n        string ipfsHash;\r\n        address employee;\r\n        address employer;\r\n    }\r\n\r\n    struct AdminRequest {\r\n        string name;\r\n        uint256 employeeId;\r\n        string email;\r\n        bool approved;\r\n    }\r\n\r\n    struct EmployeeRequest {\r\n        string name;\r\n        uint256 employeeId;\r\n        string email;\r\n        string ipfsHash;\r\n        bool approved;\r\n        bool exists; // New flag to check if request exists\r\n    }\r\n\r\n    struct SalaryRecord {\r\n        uint256 grossAmount;\r\n        uint256 taxAmount;\r\n        uint256 niAmount;\r\n        uint256 netAmount;\r\n        uint256 timestamp;\r\n        bool paid;\r\n    }\r\n\r\n    struct Payslip {\r\n        string ipfsHash;\r\n        bool generated;\r\n    }\r\n\r\n    struct TaxSlab {\r\n        uint256 min;\r\n        uint256 max;\r\n        uint256 rate;\r\n    }\r\n\r\n    // New structures for enhanced functionality\r\n    struct EmployeeOnChainData {\r\n        string fullName;\r\n        uint256 employeeId;\r\n        string email;\r\n        uint256 annualSalary;\r\n        uint256 monthlySalary;\r\n        uint256 taxAmount;\r\n        uint256 niAmount;\r\n        uint256 netSalary;\r\n        uint256 startDate;\r\n    }\r\n\r\n    // Existing mappings\r\n    mapping(address => bool) public admins;\r\n    mapping(address => string) public adminNames;\r\n    mapping(address => uint256) public adminEmployeeIds;\r\n    mapping(address => string) public adminEmails;\r\n    mapping(uint256 => PayrollRecord) public payrollRecords;\r\n    mapping(address => mapping(uint256 => bool)) public accessPermissions;\r\n    mapping(address => AdminRequest) public adminRequests;\r\n    mapping(address => EmployeeRequest) public employeeRequests;\r\n    mapping(address => string) public employeeDataHashes;\r\n    mapping(address => mapping(uint256 => SalaryRecord)) public employeeSalaries;\r\n    mapping(address => mapping(uint256 => Payslip)) public payslips;\r\n    mapping(address => uint256[]) public employeeSalaryMonths;\r\n    TaxSlab[] public taxSlabs;\r\n\r\n    // New mappings\r\n    mapping(address => EmployeeOnChainData) public employeeOnChainData;\r\n\r\n    // Events\r\n    event EmployeeRegistered( address indexed employee, string fullName, uint256 employeeId, string email);\r\n    event EmployeeApproved(address indexed employee, uint256 annualSalary);\r\n    event EmployeeRejected(address indexed employee);\r\n    event AdminRequested(address indexed adminAddress, string name, uint256 employeeId, string email);\r\n    event AdminApproved(address indexed adminAddress);\r\n    event AdminRejected(address indexed adminAddress);\r\n    event SalaryAdded(address indexed employee, uint256 yearMonth, uint256 netAmount);\r\n    event PayslipGenerated(address indexed employee, uint256 yearMonth, string ipfsHash);\r\n    event PayrollRecordAdded(uint256 indexed recordId, address indexed employee);\r\n    event AccessGranted(uint256 indexed recordId, address indexed employee);\r\n    event AccessRevoked(uint256 indexed recordId, address indexed employee);\r\n    event SalaryUpdated(address indexed employee, uint256 newAnnualSalary);\r\n\r\n    modifier onlyAdmin() {\r\n        require(admins[msg.sender] || msg.sender == owner, \"Not authorized\");\r\n        _;\r\n    }\r\n\r\n    modifier onlyOwner() {\r\n        require(msg.sender == owner, \"Not owner\");\r\n        _;\r\n    }\r\n\r\n    constructor() {\r\n        owner = msg.sender;\r\n        taxSlabs.push(TaxSlab(0, 1000 ether, 10));\r\n        taxSlabs.push(TaxSlab(1000 ether, 5000 ether, 20));\r\n        taxSlabs.push(TaxSlab(5000 ether, type(uint256).max, 30));\r\n    }\r\n\r\n    // Admin Functions\r\n    function verifyOwner(address _address) external view returns (bool) {\r\n        return _address == owner;\r\n    }\r\n\r\n    function requestAdminRole(string memory _name, uint256 _employeeId, string memory _email) external {\r\n        require(!admins[msg.sender], \"Already an admin\");\r\n        require(bytes(_name).length > 0, \"Name required\");\r\n        require(_employeeId > 0, \"Invalid employee ID\");\r\n        require(bytes(_email).length > 0, \"Email required\");\r\n\r\n        adminRequests[msg.sender] = AdminRequest({\r\n            name: _name,\r\n            employeeId: _employeeId,\r\n            email: _email,\r\n            approved: false\r\n        });\r\n\r\n        pendingAdmins.push(msg.sender);\r\n        emit AdminRequested(msg.sender, _name, _employeeId, _email);\r\n    }\r\n\r\n    function approveAdmin(address _adminAddress) external onlyOwner {\r\n        require(!adminRequests[_adminAddress].approved, \"Already approved\");\r\n        \r\n        admins[_adminAddress] = true;\r\n        adminNames[_adminAddress] = adminRequests[_adminAddress].name;\r\n        adminEmployeeIds[_adminAddress] = adminRequests[_adminAddress].employeeId;\r\n        adminEmails[_adminAddress] = adminRequests[_adminAddress].email;\r\n        adminRequests[_adminAddress].approved = true;\r\n\r\n        _removeFromPendingAdmins(_adminAddress);\r\n        approvedAdmins.push(_adminAddress);\r\n        emit AdminApproved(_adminAddress);\r\n    }\r\n\r\n    function rejectAdmin(address _adminAddress) external onlyOwner {\r\n        require(!adminRequests[_adminAddress].approved, \"Already approved\");\r\n        _removeFromPendingAdmins(_adminAddress);\r\n        delete adminRequests[_adminAddress];\r\n        emit AdminRejected(_adminAddress);\r\n    }\r\n\r\n    // Employee Functions\r\n    function registerEmployee(\r\n        string memory _fullName,\r\n        uint256 _employeeId,\r\n        string memory _email,\r\n        string memory _ipfsHash\r\n    ) external {\r\n        require(!employeeRequests[msg.sender].exists, \"Already registered\");\r\n        require(bytes(_fullName).length > 0, \"Name required\");\r\n        require(_employeeId > 0, \"Invalid employee ID\");\r\n        require(bytes(_email).length > 0, \"Email required\");\r\n        require(bytes(_ipfsHash).length > 0, \"IPFS hash required\");\r\n\r\n        employeeRequests[msg.sender] = EmployeeRequest({\r\n            name: _fullName,\r\n            employeeId: _employeeId,\r\n            email: _email,\r\n            ipfsHash: _ipfsHash,\r\n            approved: false,\r\n            exists: true\r\n        });\r\n\r\n        pendingEmployees.push(msg.sender);\r\n        // Emit all relevant data\r\n        emit EmployeeRegistered(msg.sender,_fullName,_employeeId,_email);\r\n    }\r\n\r\n    function approveEmployee(\r\n        address employee,\r\n        uint256 annualSalary\r\n    ) external onlyAdmin {\r\n        require(!employeeRequests[employee].approved, \"Already approved\");\r\n        \r\n        (uint256 monthly, uint256 tax, uint256 ni, uint256 net) = calculateSalaryComponents(annualSalary);\r\n        \r\n        EmployeeOnChainData storage data = employeeOnChainData[employee];\r\n        data.annualSalary = annualSalary;\r\n        data.monthlySalary = monthly;\r\n        data.taxAmount = tax;\r\n        data.niAmount = ni;\r\n        data.netSalary = net;\r\n        data.startDate = block.timestamp;\r\n\r\n        employeeRequests[employee].approved = true;\r\n        approvedEmployees.push(employee);\r\n        _removeFromPendingEmployees(employee);\r\n        \r\n        emit EmployeeApproved(employee, annualSalary);\r\n    }\r\n\r\n    function rejectEmployee(address employee) external onlyAdmin {\r\n        require(!employeeRequests[employee].approved, \"Already approved\");\r\n        _removeFromPendingEmployees(employee);\r\n        delete employeeRequests[employee];\r\n        emit EmployeeRejected(employee);\r\n    }\r\n\r\n    function updateEmployeeIPFSHash(address employee, string memory ipfsHash) public onlyAdmin {\r\n        employeeRequests[employee].ipfsHash = ipfsHash;\r\n    }\r\n\r\n    function calculateSalaryComponents(uint256 annualSalary) public pure returns (\r\n        uint256 monthly,\r\n        uint256 tax,\r\n        uint256 ni,\r\n        uint256 net\r\n    ) {\r\n        monthly = annualSalary / 12;\r\n        tax = (monthly * TAX_RATE) / 100;\r\n        ni = (monthly * NI_RATE) / 100;\r\n        net = monthly - tax - ni;\r\n        return (monthly, tax, ni, net);\r\n    }\r\n\r\n    function getEmployeeSalaryDetails(address employee) public view returns (\r\n        uint256 annual,\r\n        uint256 monthly,\r\n        uint256 tax,\r\n        uint256 ni,\r\n        uint256 net\r\n    ) {\r\n        EmployeeOnChainData memory data = employeeOnChainData[employee];\r\n        return (\r\n            data.annualSalary,\r\n            data.monthlySalary,\r\n            data.taxAmount,\r\n            data.niAmount,\r\n            data.netSalary\r\n        );\r\n    }\r\n\r\n    // Payroll Functions\r\n    function addSalary(\r\n        address employee,\r\n        uint256 yearMonth,\r\n        uint256 grossSalary\r\n    ) external onlyAdmin {\r\n        require(!employeeSalaries[employee][yearMonth].paid, \"Salary exists\");\r\n        require(grossSalary > 0, \"Invalid salary amount\");\r\n\r\n        uint256 tax = calculateTax(grossSalary);\r\n        uint256 ni = (grossSalary * NI_RATE) / 100;\r\n        uint256 netSalary = grossSalary - tax - ni;\r\n\r\n        employeeSalaries[employee][yearMonth] = SalaryRecord({\r\n            grossAmount: grossSalary,\r\n            taxAmount: tax,\r\n            niAmount: ni,\r\n            netAmount: netSalary,\r\n            timestamp: block.timestamp,\r\n            paid: true\r\n        });\r\n\r\n        employeeSalaryMonths[employee].push(yearMonth);\r\n        emit SalaryAdded(employee, yearMonth, netSalary);\r\n    }\r\n\r\n    function setPayslipCID(\r\n        address employee,\r\n        uint256 yearMonth,\r\n        string calldata ipfsHash\r\n    ) external onlyAdmin {\r\n        require(employeeSalaries[employee][yearMonth].timestamp != 0, \"Salary not found\");\r\n        payslips[employee][yearMonth] = Payslip(ipfsHash, true);\r\n        emit PayslipGenerated(employee, yearMonth, ipfsHash);\r\n    }\r\n\r\n    // Helper Functions\r\n    function calculateTax(uint256 grossSalary) public view returns (uint256) {\r\n        for (uint i = 0; i < taxSlabs.length; i++) {\r\n            if (grossSalary >= taxSlabs[i].min && grossSalary < taxSlabs[i].max) {\r\n                return (grossSalary * taxSlabs[i].rate) / 100;\r\n            }\r\n        }\r\n        return 0;\r\n    }\r\n\r\n    function addPayrollRecord(uint256 recordId, string memory ipfsHash, address employee) public onlyAdmin {\r\n        require(bytes(ipfsHash).length > 0, \"IPFS hash required\");\r\n        require(employee != address(0), \"Invalid employee address\");\r\n        \r\n        payrollRecords[recordId] = PayrollRecord(ipfsHash, employee, msg.sender);\r\n        emit PayrollRecordAdded(recordId, employee);\r\n    }\r\n\r\n    function grantAccess(uint256 recordId, address employee) public {\r\n        require(payrollRecords[recordId].employer == msg.sender, \"Not employer\");\r\n        accessPermissions[employee][recordId] = true;\r\n        emit AccessGranted(recordId, employee);\r\n    }\r\n\r\n    function revokeAccess(uint256 recordId, address employee) public {\r\n        require(payrollRecords[recordId].employer == msg.sender, \"Not employer\");\r\n        accessPermissions[employee][recordId] = false;\r\n        emit AccessRevoked(recordId, employee);\r\n    }\r\n\r\n    // Private Functions\r\n    function _removeFromPendingAdmins(address _adminAddress) private {\r\n        for (uint i = 0; i < pendingAdmins.length; i++) {\r\n            if (pendingAdmins[i] == _adminAddress) {\r\n                pendingAdmins[i] = pendingAdmins[pendingAdmins.length - 1];\r\n                pendingAdmins.pop();\r\n                break;\r\n            }\r\n        }\r\n    }\r\n\r\n    function _removeFromPendingEmployees(address employee) private {\r\n        for (uint i = 0; i < pendingEmployees.length; i++) {\r\n            if (pendingEmployees[i] == employee) {\r\n                pendingEmployees[i] = pendingEmployees[pendingEmployees.length - 1];\r\n                pendingEmployees.pop();\r\n                break;\r\n            }\r\n        }\r\n    }\r\n\r\n    // View Functions\r\n    function isAdmin(address _address) external view returns (bool) {\r\n        return admins[_address];\r\n    }\r\n\r\n    function getPendingAdmins() external view returns (address[] memory) {\r\n        return pendingAdmins;\r\n    }\r\n\r\n    function getApprovedAdmins() external view returns (address[] memory) {\r\n        return approvedAdmins;\r\n    }\r\n\r\n    function getPendingEmployees() external view returns (address[] memory) {\r\n        return pendingEmployees;\r\n    }\r\n\r\n    function getApprovedEmployees() external view returns (address[] memory) {\r\n        return approvedEmployees;\r\n    }\r\n\r\n    function getEmployeeDetails(address employee) external view returns (EmployeeRequest memory) {\r\n        return employeeRequests[employee];\r\n    }\r\n\r\n    function getSalaryMonths(address employee) external view returns (uint256[] memory) {\r\n        return employeeSalaryMonths[employee];\r\n    }\r\n\r\n    function getPayrollRecord(uint256 recordId) public view returns (string memory) {\r\n        require(accessPermissions[msg.sender][recordId], \"Not authorized\");\r\n        return payrollRecords[recordId].ipfsHash;\r\n    }\r\n}",
  "sourcePath": "C:\\Shalvi\\PayrollManagement_Blockchain\\payroll-smart-contract\\contracts\\Payroll.sol",
  "compiler": {
    "name": "solc",
    "version": "0.8.0+commit.c7dfd78e.Emscripten.clang"
  },
  "schemaVersion": "3.4.16",
  "updatedAt": "2025-04-15T18:20:40.597Z",
  "networkType": "ethereum",
  "devdoc": {
    "kind": "dev",
    "methods": {},
    "version": 1
  },
  "userdoc": {
    "kind": "user",
    "methods": {},
    "version": 1
  }
}