{
  "contractName": "Payroll",
  "abi": [
    {
      "inputs": [],
      "stateMutability": "nonpayable",
      "type": "constructor"
    },
    {
      "anonymous": false,
      "inputs": [
        {
          "indexed": true,
          "internalType": "address",
          "name": "adminAddress",
          "type": "address"
        },
        {
          "indexed": false,
          "internalType": "string",
          "name": "email",
          "type": "string"
        },
        {
          "indexed": false,
          "internalType": "string",
          "name": "ipfsHash",
          "type": "string"
        }
      ],
      "name": "AdminRequested",
      "type": "event"
    },
    {
      "anonymous": false,
      "inputs": [
        {
          "indexed": true,
          "internalType": "address",
          "name": "employeeAddress",
          "type": "address"
        },
        {
          "indexed": false,
          "internalType": "string",
          "name": "email",
          "type": "string"
        },
        {
          "indexed": false,
          "internalType": "string",
          "name": "ipfsHash",
          "type": "string"
        }
      ],
      "name": "EmployeeRequested",
      "type": "event"
    },
    {
      "inputs": [
        {
          "internalType": "address",
          "name": "",
          "type": "address"
        }
      ],
      "name": "AdminArrayIndex",
      "outputs": [
        {
          "internalType": "uint256",
          "name": "",
          "type": "uint256"
        }
      ],
      "stateMutability": "view",
      "type": "function",
      "constant": true
    },
    {
      "inputs": [],
      "name": "AdminIterator",
      "outputs": [
        {
          "internalType": "uint256",
          "name": "",
          "type": "uint256"
        }
      ],
      "stateMutability": "view",
      "type": "function",
      "constant": true
    },
    {
      "inputs": [
        {
          "internalType": "uint256",
          "name": "",
          "type": "uint256"
        }
      ],
      "name": "AdminsList",
      "outputs": [
        {
          "internalType": "string",
          "name": "email",
          "type": "string"
        },
        {
          "internalType": "string",
          "name": "ipfsHash",
          "type": "string"
        },
        {
          "internalType": "bool",
          "name": "approved",
          "type": "bool"
        }
      ],
      "stateMutability": "view",
      "type": "function",
      "constant": true
    },
    {
      "inputs": [
        {
          "internalType": "address",
          "name": "",
          "type": "address"
        }
      ],
      "name": "EmployeeArrayIndex",
      "outputs": [
        {
          "internalType": "uint256",
          "name": "",
          "type": "uint256"
        }
      ],
      "stateMutability": "view",
      "type": "function",
      "constant": true
    },
    {
      "inputs": [],
      "name": "EmployeeIterator",
      "outputs": [
        {
          "internalType": "uint256",
          "name": "",
          "type": "uint256"
        }
      ],
      "stateMutability": "view",
      "type": "function",
      "constant": true
    },
    {
      "inputs": [
        {
          "internalType": "uint256",
          "name": "",
          "type": "uint256"
        }
      ],
      "name": "EmployeeList",
      "outputs": [
        {
          "internalType": "string",
          "name": "email",
          "type": "string"
        },
        {
          "internalType": "string",
          "name": "ipfsHash",
          "type": "string"
        },
        {
          "internalType": "bool",
          "name": "approved",
          "type": "bool"
        }
      ],
      "stateMutability": "view",
      "type": "function",
      "constant": true
    },
    {
      "inputs": [
        {
          "internalType": "address",
          "name": "",
          "type": "address"
        }
      ],
      "name": "RegisterAdmins",
      "outputs": [
        {
          "internalType": "string",
          "name": "email",
          "type": "string"
        },
        {
          "internalType": "string",
          "name": "ipfsHash",
          "type": "string"
        },
        {
          "internalType": "bool",
          "name": "approved",
          "type": "bool"
        }
      ],
      "stateMutability": "view",
      "type": "function",
      "constant": true
    },
    {
      "inputs": [
        {
          "internalType": "address",
          "name": "",
          "type": "address"
        }
      ],
      "name": "RegisterEmployees",
      "outputs": [
        {
          "internalType": "string",
          "name": "email",
          "type": "string"
        },
        {
          "internalType": "string",
          "name": "ipfsHash",
          "type": "string"
        },
        {
          "internalType": "bool",
          "name": "approved",
          "type": "bool"
        }
      ],
      "stateMutability": "view",
      "type": "function",
      "constant": true
    },
    {
      "inputs": [],
      "name": "owner",
      "outputs": [
        {
          "internalType": "address",
          "name": "",
          "type": "address"
        }
      ],
      "stateMutability": "view",
      "type": "function",
      "constant": true
    },
    {
      "inputs": [
        {
          "internalType": "address",
          "name": "account",
          "type": "address"
        }
      ],
      "name": "isOwner",
      "outputs": [
        {
          "internalType": "bool",
          "name": "",
          "type": "bool"
        }
      ],
      "stateMutability": "view",
      "type": "function",
      "constant": true
    },
    {
      "inputs": [
        {
          "internalType": "string",
          "name": "email",
          "type": "string"
        },
        {
          "internalType": "string",
          "name": "ipfsHash",
          "type": "string"
        }
      ],
      "name": "registerAdmin",
      "outputs": [],
      "stateMutability": "nonpayable",
      "type": "function"
    },
    {
      "inputs": [
        {
          "internalType": "string",
          "name": "email",
          "type": "string"
        },
        {
          "internalType": "string",
          "name": "ipfsHash",
          "type": "string"
        }
      ],
      "name": "registerEmployee",
      "outputs": [],
      "stateMutability": "nonpayable",
      "type": "function"
    },
    {
      "inputs": [
        {
          "internalType": "address",
          "name": "adminAddress",
          "type": "address"
        }
      ],
      "name": "approveAdmin",
      "outputs": [],
      "stateMutability": "nonpayable",
      "type": "function"
    },
    {
      "inputs": [
        {
          "internalType": "address",
          "name": "adminAddress",
          "type": "address"
        }
      ],
      "name": "rejectAdmin",
      "outputs": [],
      "stateMutability": "nonpayable",
      "type": "function"
    },
    {
      "inputs": [
        {
          "internalType": "address",
          "name": "employeeAddress",
          "type": "address"
        }
      ],
      "name": "approveEmployee",
      "outputs": [],
      "stateMutability": "nonpayable",
      "type": "function"
    },
    {
      "inputs": [
        {
          "internalType": "address",
          "name": "employeeAddress",
          "type": "address"
        }
      ],
      "name": "rejectEmployee",
      "outputs": [],
      "stateMutability": "nonpayable",
      "type": "function"
    },
    {
      "inputs": [],
      "name": "getPendingAdmins",
      "outputs": [
        {
          "components": [
            {
              "internalType": "string",
              "name": "email",
              "type": "string"
            },
            {
              "internalType": "string",
              "name": "ipfsHash",
              "type": "string"
            },
            {
              "internalType": "bool",
              "name": "approved",
              "type": "bool"
            }
          ],
          "internalType": "struct Payroll.Admin[]",
          "name": "",
          "type": "tuple[]"
        }
      ],
      "stateMutability": "view",
      "type": "function",
      "constant": true
    },
    {
      "inputs": [],
      "name": "getApprovedAdmins",
      "outputs": [
        {
          "components": [
            {
              "internalType": "string",
              "name": "email",
              "type": "string"
            },
            {
              "internalType": "string",
              "name": "ipfsHash",
              "type": "string"
            },
            {
              "internalType": "bool",
              "name": "approved",
              "type": "bool"
            }
          ],
          "internalType": "struct Payroll.Admin[]",
          "name": "",
          "type": "tuple[]"
        }
      ],
      "stateMutability": "view",
      "type": "function",
      "constant": true
    },
    {
      "inputs": [],
      "name": "getPendingEmployees",
      "outputs": [
        {
          "components": [
            {
              "internalType": "string",
              "name": "email",
              "type": "string"
            },
            {
              "internalType": "string",
              "name": "ipfsHash",
              "type": "string"
            },
            {
              "internalType": "bool",
              "name": "approved",
              "type": "bool"
            }
          ],
          "internalType": "struct Payroll.Employee[]",
          "name": "",
          "type": "tuple[]"
        }
      ],
      "stateMutability": "view",
      "type": "function",
      "constant": true
    },
    {
      "inputs": [],
      "name": "getApprovedEmployees",
      "outputs": [
        {
          "components": [
            {
              "internalType": "string",
              "name": "email",
              "type": "string"
            },
            {
              "internalType": "string",
              "name": "ipfsHash",
              "type": "string"
            },
            {
              "internalType": "bool",
              "name": "approved",
              "type": "bool"
            }
          ],
          "internalType": "struct Payroll.Employee[]",
          "name": "",
          "type": "tuple[]"
        }
      ],
      "stateMutability": "view",
      "type": "function",
      "constant": true
    }
  ],
  "bytecode": "0x60806040526000600355600060045534801561001a57600080fd5b50600080546001600160a01b03191633179055611ce98061003c6000396000f3fe608060405234801561001057600080fd5b506004361061012c5760003560e01c80637ae7523f116100ad578063b19769c811610071578063b19769c814610267578063b5c1b0a91461027a578063bdbcf7d914610282578063f8f98b7914610295578063ff978e9b146102a85761012c565b80637ae7523f1461020f5780638da5cb5b14610222578063964ce51e14610237578063a477b0241461024c578063add34bde1461025f5761012c565b806325e1c303116100f457806325e1c303146101ac5780632f54bf6e146101b4578063459ad834146101d457806366dc7bf1146101e95780636d73e669146101fc5761012c565b80630dab67b11461013157806312f597571461014f57806315dab9bb146101715780631d2613de146101865780631f54bba014610199575b600080fd5b6101396102bb565b6040516101469190611c32565b60405180910390f35b61016261015d3660046117fb565b6102c1565b60405161014693929190611a34565b61018461017f3660046117fb565b6103f6565b005b6101846101943660046117fb565b6104db565b6101396101a73660046117fb565b610598565b6101396105aa565b6101c76101c23660046117fb565b6105b0565b60405161014691906119fb565b6101dc6105c4565b6040516101469190611948565b6101626101f73660046117fb565b6108a8565b61018461020a3660046117fb565b6108c3565b61018461021d3660046117fb565b61097f565b61022a610a33565b6040516101469190611934565b61023f610a42565b60405161014691906119a8565b61018461025a366004611829565b610d1b565b61023f610eee565b6101396102753660046117fb565b6111c9565b6101dc6111db565b61016261029036600461188a565b6114b4565b6101846102a3366004611829565b6114e7565b6101626102b636600461188a565b6116ae565b60035481565b6006602052600090815260409020805481906102dc90611c3b565b80601f016020809104026020016040519081016040528092919081815260200182805461030890611c3b565b80156103555780601f1061032a57610100808354040283529160200191610355565b820191906000526020600020905b81548152906001019060200180831161033857829003601f168201915b50505050509080600101805461036a90611c3b565b80601f016020809104026020016040519081016040528092919081815260200182805461039690611c3b565b80156103e35780601f106103b8576101008083540402835291602001916103e3565b820191906000526020600020905b8154815290600101906020018083116103c657829003601f168201915b5050506002909301549192505060ff1683565b6000546001600160a01b031633146104295760405162461bcd60e51b815260040161042090611bfb565b60405180910390fd5b6001600160a01b03811660009081526005602052604090206002015460ff16156104655760405162461bcd60e51b815260040161042090611a6c565b6001600160a01b0381166000908152600560209081526040808320600201805460ff1916905560079091528120546001805490919081106104b657634e487b7160e01b600052603260045260246000fd5b60009182526020909120600390910201600201805460ff191691151591909117905550565b6000546001600160a01b031633146105055760405162461bcd60e51b815260040161042090611b2c565b6001600160a01b03811660009081526006602052604090206002015460ff16156105415760405162461bcd60e51b815260040161042090611a6c565b6001600160a01b03811660009081526006602090815260408083206002908101805460ff191660019081179091556008909352922054825491929181106104b657634e487b7160e01b600052603260045260246000fd5b60086020526000908152604090205481565b60045481565b6000546001600160a01b0390811691161490565b60606000805b60015481101561063157600181815481106105f557634e487b7160e01b600052603260045260246000fd5b600091825260209091206002600390920201015460ff161561061f578161061b81611c76565b9250505b8061062981611c76565b9150506105ca565b5060008167ffffffffffffffff81111561065b57634e487b7160e01b600052604160045260246000fd5b60405190808252806020026020018201604052801561069457816020015b6106816116be565b8152602001906001900390816106795790505b5090506000805b60015481101561089f57600181815481106106c657634e487b7160e01b600052603260045260246000fd5b600091825260209091206002600390920201015460ff161561088d576001818154811061070357634e487b7160e01b600052603260045260246000fd5b906000526020600020906003020160405180606001604052908160008201805461072c90611c3b565b80601f016020809104026020016040519081016040528092919081815260200182805461075890611c3b565b80156107a55780601f1061077a576101008083540402835291602001916107a5565b820191906000526020600020905b81548152906001019060200180831161078857829003601f168201915b505050505081526020016001820180546107be90611c3b565b80601f01602080910402602001604051908101604052809291908181526020018280546107ea90611c3b565b80156108375780601f1061080c57610100808354040283529160200191610837565b820191906000526020600020905b81548152906001019060200180831161081a57829003601f168201915b50505091835250506002919091015460ff161515602090910152835184908490811061087357634e487b7160e01b600052603260045260246000fd5b6020026020010181905250818061088990611c76565b9250505b8061089781611c76565b91505061069b565b50909250505090565b6005602052600090815260409020805481906102dc90611c3b565b6000546001600160a01b031633146108ed5760405162461bcd60e51b815260040161042090611bc4565b6001600160a01b03811660009081526005602052604090206002015460ff16156109295760405162461bcd60e51b815260040161042090611a6c565b6001600160a01b0381166000908152600560209081526040808320600201805460ff19166001908117909155600790925290912054815482919081106104b657634e487b7160e01b600052603260045260246000fd5b6000546001600160a01b031633146109a95760405162461bcd60e51b815260040161042090611af5565b6001600160a01b03811660009081526006602052604090206002015460ff16156109e55760405162461bcd60e51b815260040161042090611a6c565b6001600160a01b03811660009081526006602090815260408083206002908101805460ff191690556008909252822054815481106104b657634e487b7160e01b600052603260045260246000fd5b6000546001600160a01b031681565b60606000805b600254811015610aae5760028181548110610a7357634e487b7160e01b600052603260045260246000fd5b600091825260209091206002600390920201015460ff16610a9c5781610a9881611c76565b9250505b80610aa681611c76565b915050610a48565b5060008167ffffffffffffffff811115610ad857634e487b7160e01b600052604160045260246000fd5b604051908082528060200260200182016040528015610b1157816020015b610afe6116be565b815260200190600190039081610af65790505b5090506000805b60025481101561089f5760028181548110610b4357634e487b7160e01b600052603260045260246000fd5b600091825260209091206002600390920201015460ff16610d095760028181548110610b7f57634e487b7160e01b600052603260045260246000fd5b9060005260206000209060030201604051806060016040529081600082018054610ba890611c3b565b80601f0160208091040260200160405190810160405280929190818152602001828054610bd490611c3b565b8015610c215780601f10610bf657610100808354040283529160200191610c21565b820191906000526020600020905b815481529060010190602001808311610c0457829003601f168201915b50505050508152602001600182018054610c3a90611c3b565b80601f0160208091040260200160405190810160405280929190818152602001828054610c6690611c3b565b8015610cb35780601f10610c8857610100808354040283529160200191610cb3565b820191906000526020600020905b815481529060010190602001808311610c9657829003601f168201915b50505091835250506002919091015460ff1615156020909101528351849084908110610cef57634e487b7160e01b600052603260045260246000fd5b60200260200101819052508180610d0590611c76565b9250505b80610d1381611c76565b915050610b18565b3360009081526006602052604090206002015460ff1615610d4e5760405162461bcd60e51b815260040161042090611b8d565b6000825111610d6f5760405162461bcd60e51b815260040161042090611acd565b6000815111610d905760405162461bcd60e51b815260040161042090611b61565b604080516060810182528381526020808201849052600082840181905233815260068252929092208151805192938493610dcd92849201906116e1565b506020828101518051610de692600185019201906116e1565b50604091909101516002918201805491151560ff1990921691909117905580546001810182556000919091528151805183926003027f405787fa12a823e0f2b7631cc41b3ba8828b3321ca811111fa75cd3aa3bb5ace0191610e4d918391602001906116e1565b506020828101518051610e6692600185019201906116e1565b50604091820151600291909101805460ff191691151591909117905560048054336000908152600860205292832081905591610ea183611c76565b9190505550336001600160a01b03167f74df993ecd904806baa2cbe6f3ba762d37ac2bbfdab127b3a81e81f391de8fe28484604051610ee1929190611a06565b60405180910390a2505050565b60606000805b600254811015610f5b5760028181548110610f1f57634e487b7160e01b600052603260045260246000fd5b600091825260209091206002600390920201015460ff1615610f495781610f4581611c76565b9250505b80610f5381611c76565b915050610ef4565b5060008167ffffffffffffffff811115610f8557634e487b7160e01b600052604160045260246000fd5b604051908082528060200260200182016040528015610fbe57816020015b610fab6116be565b815260200190600190039081610fa35790505b5090506000805b60025481101561089f5760028181548110610ff057634e487b7160e01b600052603260045260246000fd5b600091825260209091206002600390920201015460ff16156111b7576002818154811061102d57634e487b7160e01b600052603260045260246000fd5b906000526020600020906003020160405180606001604052908160008201805461105690611c3b565b80601f016020809104026020016040519081016040528092919081815260200182805461108290611c3b565b80156110cf5780601f106110a4576101008083540402835291602001916110cf565b820191906000526020600020905b8154815290600101906020018083116110b257829003601f168201915b505050505081526020016001820180546110e890611c3b565b80601f016020809104026020016040519081016040528092919081815260200182805461111490611c3b565b80156111615780601f1061113657610100808354040283529160200191611161565b820191906000526020600020905b81548152906001019060200180831161114457829003601f168201915b50505091835250506002919091015460ff161515602090910152835184908490811061119d57634e487b7160e01b600052603260045260246000fd5b602002602001018190525081806111b390611c76565b9250505b806111c181611c76565b915050610fc5565b60076020526000908152604090205481565b60606000805b600154811015611247576001818154811061120c57634e487b7160e01b600052603260045260246000fd5b600091825260209091206002600390920201015460ff16611235578161123181611c76565b9250505b8061123f81611c76565b9150506111e1565b5060008167ffffffffffffffff81111561127157634e487b7160e01b600052604160045260246000fd5b6040519080825280602002602001820160405280156112aa57816020015b6112976116be565b81526020019060019003908161128f5790505b5090506000805b60015481101561089f57600181815481106112dc57634e487b7160e01b600052603260045260246000fd5b600091825260209091206002600390920201015460ff166114a2576001818154811061131857634e487b7160e01b600052603260045260246000fd5b906000526020600020906003020160405180606001604052908160008201805461134190611c3b565b80601f016020809104026020016040519081016040528092919081815260200182805461136d90611c3b565b80156113ba5780601f1061138f576101008083540402835291602001916113ba565b820191906000526020600020905b81548152906001019060200180831161139d57829003601f168201915b505050505081526020016001820180546113d390611c3b565b80601f01602080910402602001604051908101604052809291908181526020018280546113ff90611c3b565b801561144c5780601f106114215761010080835404028352916020019161144c565b820191906000526020600020905b81548152906001019060200180831161142f57829003601f168201915b50505091835250506002919091015460ff161515602090910152835184908490811061148857634e487b7160e01b600052603260045260246000fd5b6020026020010181905250818061149e90611c76565b9250505b806114ac81611c76565b9150506112b1565b600181815481106114c457600080fd5b90600052602060002090600302016000915090508060000180546102dc90611c3b565b3360009081526005602052604090206002015460ff161561151a5760405162461bcd60e51b815260040161042090611a96565b600082511161153b5760405162461bcd60e51b815260040161042090611acd565b600081511161155c5760405162461bcd60e51b815260040161042090611b61565b60408051606081018252838152602080820184905260008284018190523381526005825292909220815180519293849361159992849201906116e1565b5060208281015180516115b292600185019201906116e1565b50604091909101516002909101805491151560ff199092169190911790556001805480820182556000919091528151805183926003027fb10e2d527612073b26eecdfd717e6a320cf44b4afac2b0732d9fcbe2b7fa0cf6019161161a918391602001906116e1565b50602082810151805161163392600185019201906116e1565b50604091820151600291909101805460ff19169115159190911790556003805433600090815260076020529283208190559161166e83611c76565b9190505550336001600160a01b03167ff45f9140869e0b2158cd2702175461c147dce957c3cf73ce2c8d93354ae113a08484604051610ee1929190611a06565b600281815481106114c457600080fd5b604051806060016040528060608152602001606081526020016000151581525090565b8280546116ed90611c3b565b90600052602060002090601f01602090048101928261170f5760008555611755565b82601f1061172857805160ff1916838001178555611755565b82800160010185558215611755579182015b8281111561175557825182559160200191906001019061173a565b50611761929150611765565b5090565b5b808211156117615760008155600101611766565b600082601f83011261178a578081fd5b813567ffffffffffffffff808211156117a5576117a5611c9d565b604051601f8301601f1916810160200182811182821017156117c9576117c9611c9d565b6040528281528483016020018610156117e0578384fd5b82602086016020830137918201602001929092529392505050565b60006020828403121561180c578081fd5b81356001600160a01b0381168114611822578182fd5b9392505050565b6000806040838503121561183b578081fd5b823567ffffffffffffffff80821115611852578283fd5b61185e8683870161177a565b93506020850135915080821115611873578283fd5b506118808582860161177a565b9150509250929050565b60006020828403121561189b578081fd5b5035919050565b60008151808452815b818110156118c7576020818501810151868301820152016118ab565b818111156118d85782602083870101525b50601f01601f19169290920160200192915050565b600081516060845261190260608501826118a2565b90506020830151848203602086015261191b82826118a2565b9150506040830151151560408501528091505092915050565b6001600160a01b0391909116815260200190565b6000602080830181845280855180835260408601915060408482028701019250838701855b8281101561199b57603f198886030184526119898583516118ed565b9450928501929085019060010161196d565b5092979650505050505050565b6000602080830181845280855180835260408601915060408482028701019250838701855b8281101561199b57603f198886030184526119e98583516118ed565b945092850192908501906001016119cd565b901515815260200190565b600060408252611a1960408301856118a2565b8281036020840152611a2b81856118a2565b95945050505050565b600060608252611a4760608301866118a2565b8281036020840152611a5981866118a2565b9150508215156040830152949350505050565b60208082526010908201526f105b1c9958591e48185c1c1c9bdd995960821b604082015260600190565b6020808252601b908201527f416c726561647920726567697374657265642061732061646d696e0000000000604082015260600190565b6020808252600e908201526d115b585a5b081c995c5d5a5c995960921b604082015260600190565b6020808252601f908201527f4f6e6c79206f776e65722063616e2072656a65637420656d706c6f7965657300604082015260600190565b6020808252818101527f4f6e6c79206f776e65722063616e20617070726f766520656d706c6f79656573604082015260600190565b60208082526012908201527112541194c81a185cda081c995c5d5a5c995960721b604082015260600190565b6020808252601e908201527f416c7265616479207265676973746572656420617320656d706c6f7965650000604082015260600190565b6020808252601d908201527f4f6e6c79206f776e65722063616e20617070726f76652061646d696e73000000604082015260600190565b6020808252601c908201527f4f6e6c79206f776e65722063616e2072656a6563742061646d696e7300000000604082015260600190565b90815260200190565b600281046001821680611c4f57607f821691505b60208210811415611c7057634e487b7160e01b600052602260045260246000fd5b50919050565b6000600019821415611c9657634e487b7160e01b81526011600452602481fd5b5060010190565b634e487b7160e01b600052604160045260246000fdfea26469706673582212209845119b23a807e07b46dcc79ce28aa2f08a81b2e957c19a8a8f639e5706e91364736f6c63430008000033",
  "immutableReferences": {},
  "source": "// SPDX-License-Identifier: MIT\r\npragma solidity ^0.8.0;\r\n\r\ncontract Payroll {\r\n\r\n    struct Admin {\r\n        string email;\r\n        string ipfsHash;\r\n        bool approved;\r\n    }\r\n    struct Employee {\r\n        string email;\r\n        string ipfsHash;\r\n        bool approved;\r\n    }\r\n\r\n    address public owner;\r\n    Admin[] public AdminsList;\r\n    Employee[] public EmployeeList;\r\n\r\n    uint public AdminIterator = 0;\r\n    uint public EmployeeIterator = 0;\r\n\r\n    mapping(address => Admin) public RegisterAdmins;\r\n    mapping(address => Employee) public RegisterEmployees;\r\n    mapping(address => uint) public AdminArrayIndex;\r\n    mapping(address => uint) public EmployeeArrayIndex;\r\n\r\n    event AdminRequested(address indexed adminAddress, string email, string ipfsHash);\r\n    event EmployeeRequested(address indexed employeeAddress, string email, string ipfsHash);\r\n\r\n    constructor() {\r\n        owner = msg.sender;\r\n    }\r\n\r\n    function isOwner(address account) public view returns (bool) {\r\n        return account == owner;\r\n    }\r\n\r\n    function registerAdmin(string memory email, string memory ipfsHash) public {\r\n        require(!RegisterAdmins[msg.sender].approved, \"Already registered as admin\");\r\n        require(bytes(email).length > 0, \"Email required\");\r\n        require(bytes(ipfsHash).length > 0, \"IPFS hash required\");\r\n\r\n        Admin memory newAdmin = Admin({\r\n            email: email,\r\n            ipfsHash: ipfsHash,\r\n            approved: false\r\n        });\r\n        RegisterAdmins[msg.sender] = newAdmin;\r\n\r\n        AdminsList.push(newAdmin);\r\n\r\n        AdminArrayIndex[msg.sender] = AdminIterator;\r\n        AdminIterator++;\r\n        emit AdminRequested(msg.sender, email, ipfsHash);\r\n    }\r\n\r\n    function registerEmployee(string memory email, string memory ipfsHash) public {\r\n        require(!RegisterEmployees[msg.sender].approved, \"Already registered as employee\");\r\n        require(bytes(email).length > 0, \"Email required\");\r\n        require(bytes(ipfsHash).length > 0, \"IPFS hash required\");\r\n        \r\n        Employee memory newEmployee = Employee({\r\n            email: email,\r\n            ipfsHash: ipfsHash,\r\n            approved: false\r\n        });\r\n        RegisterEmployees[msg.sender] = newEmployee;\r\n\r\n        EmployeeList.push(newEmployee); \r\n        \r\n        EmployeeArrayIndex[msg.sender] = EmployeeIterator;\r\n        EmployeeIterator++;\r\n        emit EmployeeRequested(msg.sender, email, ipfsHash);\r\n    }\r\n\r\n    function approveAdmin(address adminAddress) public {\r\n        require(msg.sender == owner, \"Only owner can approve admins\");\r\n        require(!RegisterAdmins[adminAddress].approved, \"Already approved\");\r\n        RegisterAdmins[adminAddress].approved = true;\r\n        AdminsList[AdminArrayIndex[adminAddress]].approved = true;\r\n    }\r\n\r\n    function rejectAdmin(address adminAddress) public {\r\n        require(msg.sender == owner, \"Only owner can reject admins\");\r\n        require(!RegisterAdmins[adminAddress].approved, \"Already approved\");\r\n        RegisterAdmins[adminAddress].approved = false;\r\n        AdminsList[AdminArrayIndex[adminAddress]].approved = false;\r\n    }\r\n\r\n    function approveEmployee(address employeeAddress) public {\r\n        require(msg.sender == owner, \"Only owner can approve employees\");\r\n        require(!RegisterEmployees[employeeAddress].approved, \"Already approved\");\r\n        RegisterEmployees[employeeAddress].approved = true;\r\n        EmployeeList[EmployeeArrayIndex[employeeAddress]].approved = true;\r\n    }\r\n\r\n    function rejectEmployee(address employeeAddress) public {\r\n        require(msg.sender == owner, \"Only owner can reject employees\");\r\n        require(!RegisterEmployees[employeeAddress].approved, \"Already approved\");\r\n        RegisterEmployees[employeeAddress].approved = false;\r\n        EmployeeList[EmployeeArrayIndex[employeeAddress]].approved = false;\r\n    }\r\n\r\n    function getPendingAdmins() public view returns (Admin[] memory) {\r\n        uint count = 0;\r\n        for (uint i = 0; i < AdminsList.length; i++) {\r\n            if (!AdminsList[i].approved) {\r\n                count++;\r\n            }\r\n        }\r\n        Admin[] memory pendingAdmins = new Admin[](count);\r\n        uint index = 0; \r\n        for (uint i = 0; i < AdminsList.length; i++) {\r\n            if (!AdminsList[i].approved) {\r\n                pendingAdmins[index] = AdminsList[i];\r\n                index++;\r\n            }\r\n        }\r\n        return pendingAdmins;\r\n    }\r\n    function getApprovedAdmins() public view returns (Admin[] memory) {\r\n        uint count = 0;\r\n        for (uint i = 0; i < AdminsList.length; i++) {\r\n            if (AdminsList[i].approved) {\r\n                count++;\r\n            }\r\n        }\r\n        Admin[] memory approvedAdmins = new Admin[](count);\r\n        uint index = 0;\r\n        for (uint i = 0; i < AdminsList.length; i++) {\r\n            if (AdminsList[i].approved) {\r\n                approvedAdmins[index] = AdminsList[i];\r\n                index++;\r\n            }\r\n        }\r\n        return approvedAdmins;\r\n    }\r\n\r\n    function getPendingEmployees() public view returns (Employee[] memory) {\r\n        uint count = 0;\r\n        for (uint i = 0; i < EmployeeList.length; i++) {\r\n            if (!EmployeeList[i].approved) {\r\n                count++;\r\n            }\r\n        }\r\n        Employee[] memory pendingEmployees = new Employee[](count);\r\n        uint index = 0;\r\n        for (uint i = 0; i < EmployeeList.length; i++) {\r\n            if (!EmployeeList[i].approved) {\r\n                pendingEmployees[index] = EmployeeList[i];\r\n                index++;\r\n            }\r\n        }\r\n        return pendingEmployees;\r\n    }\r\n    function getApprovedEmployees() public view returns (Employee[] memory) {\r\n        uint count = 0;\r\n        for (uint i = 0; i < EmployeeList.length; i++) {\r\n            if (EmployeeList[i].approved) {\r\n                count++;\r\n            }\r\n        }\r\n        Employee[] memory approvedEmployees = new Employee[](count);\r\n        uint index = 0; \r\n        for (uint i = 0; i < EmployeeList.length; i++) {\r\n            if (EmployeeList[i].approved) {\r\n                approvedEmployees[index] = EmployeeList[i];\r\n                index++;\r\n            }\r\n        }\r\n        return approvedEmployees;\r\n    }\r\n\r\n\r\n\r\n\r\n\r\n\r\n    /*address public owner;\r\n    address[] public pendingAdmins;\r\n    address[] public pendingEmployees;\r\n    address[] public approvedEmployees;\r\n    address[] public approvedAdmins;\r\n    uint256 public constant TAX_RATE = 20;\r\n    uint256 public constant NI_RATE = 12;\r\n    \r\n    // Existing structures\r\n    struct PayrollRecord {\r\n        string ipfsHash;\r\n        address employee;\r\n        address employer;\r\n    }\r\n\r\n    struct AdminRequest {\r\n        string name;\r\n        uint256 employeeId;\r\n        string email;\r\n        bool approved;\r\n    }\r\n\r\n    struct EmployeeRequest {\r\n        string name;\r\n        uint256 employeeId;\r\n        string email;\r\n        string ipfsHash;\r\n        bool approved;\r\n        bool exists; // New flag to check if request exists\r\n    }\r\n\r\n    struct SalaryRecord {\r\n        uint256 grossAmount;\r\n        uint256 taxAmount;\r\n        uint256 niAmount;\r\n        uint256 netAmount;\r\n        uint256 timestamp;\r\n        bool paid;\r\n    }\r\n\r\n    struct Payslip {\r\n        string ipfsHash;\r\n        bool generated;\r\n    }\r\n\r\n    struct TaxSlab {\r\n        uint256 min;\r\n        uint256 max;\r\n        uint256 rate;\r\n    }\r\n\r\n    // New structures for enhanced functionality\r\n    struct EmployeeOnChainData {\r\n        string fullName;\r\n        uint256 employeeId;\r\n        string email;\r\n        uint256 annualSalary;\r\n        uint256 monthlySalary;\r\n        uint256 taxAmount;\r\n        uint256 niAmount;\r\n        uint256 netSalary;\r\n        uint256 startDate;\r\n    }\r\n\r\n    // Existing mappings\r\n    mapping(address => bool) public admins;\r\n    mapping(address => string) public adminNames;\r\n    mapping(address => uint256) public adminEmployeeIds;\r\n    mapping(address => string) public adminEmails;\r\n    mapping(uint256 => PayrollRecord) public payrollRecords;\r\n    mapping(address => mapping(uint256 => bool)) public accessPermissions;\r\n    mapping(address => AdminRequest) public adminRequests;\r\n    mapping(address => EmployeeRequest) public employeeRequests;\r\n    mapping(address => string) public employeeDataHashes;\r\n    mapping(address => mapping(uint256 => SalaryRecord)) public employeeSalaries;\r\n    mapping(address => mapping(uint256 => Payslip)) public payslips;\r\n    mapping(address => uint256[]) public employeeSalaryMonths;\r\n    TaxSlab[] public taxSlabs;\r\n\r\n    // New mappings\r\n    mapping(address => EmployeeOnChainData) public employeeOnChainData;\r\n\r\n    // Events\r\n    event EmployeeRegistered( address indexed employee, string fullName, uint256 employeeId, string email);\r\n    event EmployeeApproved(address indexed employee, uint256 annualSalary, string ipfsHash);\r\n    event EmployeeRejected(address indexed employee);\r\n    event AdminRequested(address indexed adminAddress, string name, uint256 employeeId, string email);\r\n    event AdminApproved(address indexed adminAddress);\r\n    event AdminRejected(address indexed adminAddress);\r\n    event SalaryAdded(address indexed employee, uint256 yearMonth, uint256 netAmount);\r\n    event PayslipGenerated(address indexed employee, uint256 yearMonth, string ipfsHash);\r\n    event PayrollRecordAdded(uint256 indexed recordId, address indexed employee);\r\n    event AccessGranted(uint256 indexed recordId, address indexed employee);\r\n    event AccessRevoked(uint256 indexed recordId, address indexed employee);\r\n    event SalaryUpdated(address indexed employee, uint256 newAnnualSalary);\r\n\r\n    modifier onlyAdmin() {\r\n        require(admins[msg.sender] || msg.sender == owner, \"Not authorized\");\r\n        _;\r\n    }\r\n\r\n    modifier onlyOwner() {\r\n        require(msg.sender == owner, \"Not owner\");\r\n        _;\r\n    }\r\n\r\n    constructor() {\r\n        owner = msg.sender;\r\n        taxSlabs.push(TaxSlab(0, 1000 ether, 10));\r\n        taxSlabs.push(TaxSlab(1000 ether, 5000 ether, 20));\r\n        taxSlabs.push(TaxSlab(5000 ether, type(uint256).max, 30));\r\n    }\r\n\r\n    // Admin Functions\r\n    function verifyOwner(address _address) external view returns (bool) {\r\n        return _address == owner;\r\n    }\r\n\r\n    function requestAdminRole(string memory _name, uint256 _employeeId, string memory _email) external {\r\n        require(!admins[msg.sender], \"Already an admin\");\r\n        require(bytes(_name).length > 0, \"Name required\");\r\n        require(_employeeId > 0, \"Invalid employee ID\");\r\n        require(bytes(_email).length > 0, \"Email required\");\r\n\r\n        adminRequests[msg.sender] = AdminRequest({\r\n            name: _name,\r\n            employeeId: _employeeId,\r\n            email: _email,\r\n            approved: false\r\n        });\r\n\r\n        pendingAdmins.push(msg.sender);\r\n        emit AdminRequested(msg.sender, _name, _employeeId, _email);\r\n    }\r\n\r\n    function approveAdmin(address _adminAddress) external onlyOwner {\r\n        require(!adminRequests[_adminAddress].approved, \"Already approved\");\r\n        \r\n        admins[_adminAddress] = true;\r\n        adminNames[_adminAddress] = adminRequests[_adminAddress].name;\r\n        adminEmployeeIds[_adminAddress] = adminRequests[_adminAddress].employeeId;\r\n        adminEmails[_adminAddress] = adminRequests[_adminAddress].email;\r\n        adminRequests[_adminAddress].approved = true;\r\n\r\n        _removeFromPendingAdmins(_adminAddress);\r\n        approvedAdmins.push(_adminAddress);\r\n        emit AdminApproved(_adminAddress);\r\n    }\r\n\r\n    function rejectAdmin(address _adminAddress) external onlyOwner {\r\n        require(!adminRequests[_adminAddress].approved, \"Already approved\");\r\n        _removeFromPendingAdmins(_adminAddress);\r\n        delete adminRequests[_adminAddress];\r\n        emit AdminRejected(_adminAddress);\r\n    }\r\n\r\n    // Employee Functions\r\n    function registerEmployee(\r\n        string memory _fullName,\r\n        uint256 _employeeId,\r\n        string memory _email,\r\n        string memory _ipfsHash\r\n    ) external {\r\n        require(!employeeRequests[msg.sender].exists, \"Already registered\");\r\n        require(bytes(_fullName).length > 0, \"Name required\");\r\n        require(_employeeId > 0, \"Invalid employee ID\");\r\n        require(bytes(_email).length > 0, \"Email required\");\r\n        require(bytes(_ipfsHash).length > 0, \"IPFS hash required\");\r\n\r\n        employeeRequests[msg.sender] = EmployeeRequest({\r\n            name: _fullName,\r\n            employeeId: _employeeId,\r\n            email: _email,\r\n            ipfsHash: _ipfsHash,\r\n            approved: false,\r\n            exists: true\r\n        });\r\n\r\n        pendingEmployees.push(msg.sender);\r\n        // Emit all relevant data\r\n        emit EmployeeRegistered(msg.sender,_fullName,_employeeId,_email);\r\n    }\r\n\r\n    function approveEmployee(\r\n    address employee,\r\n    uint256 annualSalary,\r\n    string calldata updatedIpfsHash  // Add this parameter\r\n) external onlyAdmin {\r\n    require(!employeeRequests[employee].approved, \"Already approved\");\r\n    \r\n    (uint256 monthly, uint256 tax, uint256 ni, uint256 net) = calculateSalaryComponents(annualSalary);\r\n    \r\n    EmployeeOnChainData storage data = employeeOnChainData[employee];\r\n    data.annualSalary = annualSalary;\r\n    data.monthlySalary = monthly;\r\n    data.taxAmount = tax;\r\n    data.niAmount = ni;\r\n    data.netSalary = net;\r\n    data.startDate = block.timestamp;\r\n\r\n    // Update the IPFS hash in the employee request\r\n    employeeRequests[employee].ipfsHash = updatedIpfsHash;\r\n    employeeRequests[employee].approved = true;\r\n    \r\n    approvedEmployees.push(employee);\r\n    _removeFromPendingEmployees(employee);\r\n    \r\n    emit EmployeeApproved(employee, annualSalary, updatedIpfsHash);\r\n}\r\n\r\n    function rejectEmployee(address employee) external onlyAdmin {\r\n        require(!employeeRequests[employee].approved, \"Already approved\");\r\n        _removeFromPendingEmployees(employee);\r\n        delete employeeRequests[employee];\r\n        emit EmployeeRejected(employee);\r\n    }\r\n\r\n    function updateEmployeeIPFSHash(address employee, string memory ipfsHash) public onlyAdmin {\r\n        employeeRequests[employee].ipfsHash = ipfsHash;\r\n        emit EmployeeApproved(employee, employeeOnChainData[employee].annualSalary, ipfsHash); // Emit updated event\r\n    }\r\n\r\n    function calculateSalaryComponents(uint256 annualSalary) public pure returns (\r\n        uint256 monthly,\r\n        uint256 tax,\r\n        uint256 ni,\r\n        uint256 net\r\n    ) {\r\n        monthly = annualSalary / 12;\r\n        tax = (monthly * TAX_RATE) / 100;\r\n        ni = (monthly * NI_RATE) / 100;\r\n        net = monthly - tax - ni;\r\n        return (monthly, tax, ni, net);\r\n    }\r\n\r\n    function getEmployeeSalaryDetails(address employee) public view returns (\r\n        uint256 annual,\r\n        uint256 monthly,\r\n        uint256 tax,\r\n        uint256 ni,\r\n        uint256 net\r\n    ) {\r\n        EmployeeOnChainData memory data = employeeOnChainData[employee];\r\n        return (\r\n            data.annualSalary,\r\n            data.monthlySalary,\r\n            data.taxAmount,\r\n            data.niAmount,\r\n            data.netSalary\r\n        );\r\n    }\r\n\r\n    // Payroll Functions\r\n    function addSalary(\r\n        address employee,\r\n        uint256 yearMonth,\r\n        uint256 grossSalary\r\n    ) external onlyAdmin {\r\n        require(!employeeSalaries[employee][yearMonth].paid, \"Salary exists\");\r\n        require(grossSalary > 0, \"Invalid salary amount\");\r\n\r\n        uint256 tax = calculateTax(grossSalary);\r\n        uint256 ni = (grossSalary * NI_RATE) / 100;\r\n        uint256 netSalary = grossSalary - tax - ni;\r\n\r\n        employeeSalaries[employee][yearMonth] = SalaryRecord({\r\n            grossAmount: grossSalary,\r\n            taxAmount: tax,\r\n            niAmount: ni,\r\n            netAmount: netSalary,\r\n            timestamp: block.timestamp,\r\n            paid: true\r\n        });\r\n\r\n        employeeSalaryMonths[employee].push(yearMonth);\r\n        emit SalaryAdded(employee, yearMonth, netSalary);\r\n    }\r\n\r\n    function setPayslipCID(\r\n        address employee,\r\n        uint256 yearMonth,\r\n        string calldata ipfsHash\r\n    ) external onlyAdmin {\r\n        require(employeeSalaries[employee][yearMonth].timestamp != 0, \"Salary not found\");\r\n        payslips[employee][yearMonth] = Payslip(ipfsHash, true);\r\n        emit PayslipGenerated(employee, yearMonth, ipfsHash);\r\n    }\r\n\r\n    // Helper Functions\r\n    function calculateTax(uint256 grossSalary) public view returns (uint256) {\r\n        for (uint i = 0; i < taxSlabs.length; i++) {\r\n            if (grossSalary >= taxSlabs[i].min && grossSalary < taxSlabs[i].max) {\r\n                return (grossSalary * taxSlabs[i].rate) / 100;\r\n            }\r\n        }\r\n        return 0;\r\n    }\r\n\r\n    function addPayrollRecord(uint256 recordId, string memory ipfsHash, address employee) public onlyAdmin {\r\n        require(bytes(ipfsHash).length > 0, \"IPFS hash required\");\r\n        require(employee != address(0), \"Invalid employee address\");\r\n        \r\n        payrollRecords[recordId] = PayrollRecord(ipfsHash, employee, msg.sender);\r\n        emit PayrollRecordAdded(recordId, employee);\r\n    }\r\n\r\n    function grantAccess(uint256 recordId, address employee) public {\r\n        require(payrollRecords[recordId].employer == msg.sender, \"Not employer\");\r\n        emit AccessGranted(recordId, employee);\r\n    }\r\n\r\n    function revokeAccess(uint256 recordId, address employee) public {\r\n        require(payrollRecords[recordId].employer == msg.sender, \"Not employer\");\r\n        accessPermissions[employee][recordId] = false;\r\n        emit AccessRevoked(recordId, employee);\r\n    }\r\n\r\n    // Private Functions\r\n    function _removeFromPendingAdmins(address _adminAddress) private {\r\n        for (uint i = 0; i < pendingAdmins.length; i++) {\r\n            if (pendingAdmins[i] == _adminAddress) {\r\n                pendingAdmins[i] = pendingAdmins[pendingAdmins.length - 1];\r\n                pendingAdmins.pop();\r\n                break;\r\n            }\r\n        }\r\n    }\r\n\r\n    function _removeFromPendingEmployees(address employee) private {\r\n        for (uint i = 0; i < pendingEmployees.length; i++) {\r\n            if (pendingEmployees[i] == employee) {\r\n                pendingEmployees[i] = pendingEmployees[pendingEmployees.length - 1];\r\n                pendingEmployees.pop();\r\n                break;\r\n            }\r\n        }\r\n    }\r\n\r\n    // View Functions\r\n    function isAdmin(address _address) external view returns (bool) {\r\n        return admins[_address];\r\n    }\r\n\r\n    function getPendingAdmins() external view returns (address[] memory) {\r\n        return pendingAdmins;\r\n    }\r\n\r\n    function getApprovedAdmins() external view returns (address[] memory) {\r\n        return approvedAdmins;\r\n    }\r\n\r\n    function getPendingEmployees() external view returns (address[] memory) {\r\n        return pendingEmployees;\r\n    }\r\n\r\n    function getApprovedEmployees() external view returns (address[] memory) {\r\n        return approvedEmployees;\r\n    }\r\n\r\n    function getEmployeeDetails(address employee) external view returns (EmployeeRequest memory) {\r\n        return employeeRequests[employee];\r\n    }\r\n\r\n    function getSalaryMonths(address employee) external view returns (uint256[] memory) {\r\n        return employeeSalaryMonths[employee];\r\n    }\r\n\r\n    function getPayrollRecord(uint256 recordId) public view returns (string memory) {\r\n        require(accessPermissions[msg.sender][recordId], \"Not authorized\");\r\n        return payrollRecords[recordId].ipfsHash;\r\n    }*/\r\n}",
  "sourcePath": "C:\\Shalvi\\PayrollManagement_Blockchain\\payroll-smart-contract\\contracts\\Payroll.sol",
  "compiler": {
    "name": "solc",
    "version": "0.8.0+commit.c7dfd78e.Emscripten.clang"
  },
  "schemaVersion": "3.4.16",
  "updatedAt": "2025-04-17T03:38:11.518Z",
  "networkType": "ethereum",
  "devdoc": {
    "kind": "dev",
    "methods": {},
    "version": 1
  },
  "userdoc": {
    "kind": "user",
    "methods": {},
    "version": 1
  }
}