{
  "contractName": "Payroll",
  "abi": [
    {
      "inputs": [],
      "stateMutability": "nonpayable",
      "type": "constructor"
    },
    {
      "anonymous": false,
      "inputs": [
        {
          "indexed": true,
          "internalType": "address",
          "name": "adminAddress",
          "type": "address"
        },
        {
          "indexed": false,
          "internalType": "string",
          "name": "email",
          "type": "string"
        },
        {
          "indexed": false,
          "internalType": "string",
          "name": "ipfsHash",
          "type": "string"
        }
      ],
      "name": "AdminRequested",
      "type": "event"
    },
    {
      "anonymous": false,
      "inputs": [
        {
          "indexed": true,
          "internalType": "address",
          "name": "employeeAddress",
          "type": "address"
        },
        {
          "indexed": false,
          "internalType": "string",
          "name": "email",
          "type": "string"
        },
        {
          "indexed": false,
          "internalType": "string",
          "name": "ipfsHash",
          "type": "string"
        }
      ],
      "name": "EmployeeRequested",
      "type": "event"
    },
    {
      "inputs": [
        {
          "internalType": "address",
          "name": "",
          "type": "address"
        }
      ],
      "name": "AdminArrayIndex",
      "outputs": [
        {
          "internalType": "uint256",
          "name": "",
          "type": "uint256"
        }
      ],
      "stateMutability": "view",
      "type": "function",
      "constant": true
    },
    {
      "inputs": [],
      "name": "AdminIterator",
      "outputs": [
        {
          "internalType": "uint256",
          "name": "",
          "type": "uint256"
        }
      ],
      "stateMutability": "view",
      "type": "function",
      "constant": true
    },
    {
      "inputs": [
        {
          "internalType": "uint256",
          "name": "",
          "type": "uint256"
        }
      ],
      "name": "AdminsList",
      "outputs": [
        {
          "internalType": "string",
          "name": "email",
          "type": "string"
        },
        {
          "internalType": "string",
          "name": "ipfsHash",
          "type": "string"
        },
        {
          "internalType": "bool",
          "name": "approved",
          "type": "bool"
        }
      ],
      "stateMutability": "view",
      "type": "function",
      "constant": true
    },
    {
      "inputs": [
        {
          "internalType": "address",
          "name": "",
          "type": "address"
        }
      ],
      "name": "EmployeeArrayIndex",
      "outputs": [
        {
          "internalType": "uint256",
          "name": "",
          "type": "uint256"
        }
      ],
      "stateMutability": "view",
      "type": "function",
      "constant": true
    },
    {
      "inputs": [],
      "name": "EmployeeIterator",
      "outputs": [
        {
          "internalType": "uint256",
          "name": "",
          "type": "uint256"
        }
      ],
      "stateMutability": "view",
      "type": "function",
      "constant": true
    },
    {
      "inputs": [
        {
          "internalType": "uint256",
          "name": "",
          "type": "uint256"
        }
      ],
      "name": "EmployeeList",
      "outputs": [
        {
          "internalType": "string",
          "name": "email",
          "type": "string"
        },
        {
          "internalType": "string",
          "name": "ipfsHash",
          "type": "string"
        },
        {
          "internalType": "bool",
          "name": "approved",
          "type": "bool"
        }
      ],
      "stateMutability": "view",
      "type": "function",
      "constant": true
    },
    {
      "inputs": [
        {
          "internalType": "address",
          "name": "",
          "type": "address"
        }
      ],
      "name": "RegisterAdmins",
      "outputs": [
        {
          "internalType": "string",
          "name": "email",
          "type": "string"
        },
        {
          "internalType": "string",
          "name": "ipfsHash",
          "type": "string"
        },
        {
          "internalType": "bool",
          "name": "approved",
          "type": "bool"
        }
      ],
      "stateMutability": "view",
      "type": "function",
      "constant": true
    },
    {
      "inputs": [
        {
          "internalType": "address",
          "name": "",
          "type": "address"
        }
      ],
      "name": "RegisterEmployees",
      "outputs": [
        {
          "internalType": "string",
          "name": "email",
          "type": "string"
        },
        {
          "internalType": "string",
          "name": "ipfsHash",
          "type": "string"
        },
        {
          "internalType": "bool",
          "name": "approved",
          "type": "bool"
        }
      ],
      "stateMutability": "view",
      "type": "function",
      "constant": true
    },
    {
      "inputs": [],
      "name": "owner",
      "outputs": [
        {
          "internalType": "address",
          "name": "",
          "type": "address"
        }
      ],
      "stateMutability": "view",
      "type": "function",
      "constant": true
    },
    {
      "inputs": [
        {
          "internalType": "address",
          "name": "account",
          "type": "address"
        }
      ],
      "name": "isOwner",
      "outputs": [
        {
          "internalType": "bool",
          "name": "",
          "type": "bool"
        }
      ],
      "stateMutability": "view",
      "type": "function",
      "constant": true
    },
    {
      "inputs": [
        {
          "internalType": "string",
          "name": "email",
          "type": "string"
        },
        {
          "internalType": "string",
          "name": "ipfsHash",
          "type": "string"
        }
      ],
      "name": "registerAdmin",
      "outputs": [],
      "stateMutability": "nonpayable",
      "type": "function"
    },
    {
      "inputs": [
        {
          "internalType": "string",
          "name": "email",
          "type": "string"
        },
        {
          "internalType": "string",
          "name": "ipfsHash",
          "type": "string"
        }
      ],
      "name": "registerEmployee",
      "outputs": [],
      "stateMutability": "nonpayable",
      "type": "function"
    },
    {
      "inputs": [
        {
          "internalType": "address",
          "name": "adminAddress",
          "type": "address"
        }
      ],
      "name": "approveAdmin",
      "outputs": [],
      "stateMutability": "nonpayable",
      "type": "function"
    },
    {
      "inputs": [
        {
          "internalType": "address",
          "name": "adminAddress",
          "type": "address"
        }
      ],
      "name": "rejectAdmin",
      "outputs": [],
      "stateMutability": "nonpayable",
      "type": "function"
    },
    {
      "inputs": [
        {
          "internalType": "address",
          "name": "employeeAddress",
          "type": "address"
        },
        {
          "internalType": "string",
          "name": "newIpfsHash",
          "type": "string"
        }
      ],
      "name": "approveEmployee",
      "outputs": [],
      "stateMutability": "nonpayable",
      "type": "function"
    },
    {
      "inputs": [
        {
          "internalType": "address",
          "name": "employeeAddress",
          "type": "address"
        }
      ],
      "name": "rejectEmployee",
      "outputs": [],
      "stateMutability": "nonpayable",
      "type": "function"
    },
    {
      "inputs": [],
      "name": "getPendingAdmins",
      "outputs": [
        {
          "components": [
            {
              "internalType": "string",
              "name": "email",
              "type": "string"
            },
            {
              "internalType": "string",
              "name": "ipfsHash",
              "type": "string"
            },
            {
              "internalType": "bool",
              "name": "approved",
              "type": "bool"
            }
          ],
          "internalType": "struct Payroll.Admin[]",
          "name": "",
          "type": "tuple[]"
        }
      ],
      "stateMutability": "view",
      "type": "function",
      "constant": true
    },
    {
      "inputs": [],
      "name": "getApprovedAdmins",
      "outputs": [
        {
          "components": [
            {
              "internalType": "string",
              "name": "email",
              "type": "string"
            },
            {
              "internalType": "string",
              "name": "ipfsHash",
              "type": "string"
            },
            {
              "internalType": "bool",
              "name": "approved",
              "type": "bool"
            }
          ],
          "internalType": "struct Payroll.Admin[]",
          "name": "",
          "type": "tuple[]"
        }
      ],
      "stateMutability": "view",
      "type": "function",
      "constant": true
    },
    {
      "inputs": [
        {
          "internalType": "address",
          "name": "adminAddress",
          "type": "address"
        }
      ],
      "name": "getAdmin",
      "outputs": [
        {
          "components": [
            {
              "internalType": "string",
              "name": "email",
              "type": "string"
            },
            {
              "internalType": "string",
              "name": "ipfsHash",
              "type": "string"
            },
            {
              "internalType": "bool",
              "name": "approved",
              "type": "bool"
            }
          ],
          "internalType": "struct Payroll.Admin",
          "name": "",
          "type": "tuple"
        }
      ],
      "stateMutability": "view",
      "type": "function",
      "constant": true
    },
    {
      "inputs": [],
      "name": "getPendingEmployees",
      "outputs": [
        {
          "components": [
            {
              "internalType": "string",
              "name": "email",
              "type": "string"
            },
            {
              "internalType": "string",
              "name": "ipfsHash",
              "type": "string"
            },
            {
              "internalType": "bool",
              "name": "approved",
              "type": "bool"
            }
          ],
          "internalType": "struct Payroll.Employee[]",
          "name": "",
          "type": "tuple[]"
        }
      ],
      "stateMutability": "view",
      "type": "function",
      "constant": true
    },
    {
      "inputs": [],
      "name": "getApprovedEmployees",
      "outputs": [
        {
          "components": [
            {
              "internalType": "string",
              "name": "email",
              "type": "string"
            },
            {
              "internalType": "string",
              "name": "ipfsHash",
              "type": "string"
            },
            {
              "internalType": "bool",
              "name": "approved",
              "type": "bool"
            }
          ],
          "internalType": "struct Payroll.Employee[]",
          "name": "",
          "type": "tuple[]"
        }
      ],
      "stateMutability": "view",
      "type": "function",
      "constant": true
    },
    {
      "inputs": [
        {
          "internalType": "address",
          "name": "employeeAddress",
          "type": "address"
        }
      ],
      "name": "getEmployee",
      "outputs": [
        {
          "components": [
            {
              "internalType": "string",
              "name": "email",
              "type": "string"
            },
            {
              "internalType": "string",
              "name": "ipfsHash",
              "type": "string"
            },
            {
              "internalType": "bool",
              "name": "approved",
              "type": "bool"
            }
          ],
          "internalType": "struct Payroll.Employee",
          "name": "",
          "type": "tuple"
        }
      ],
      "stateMutability": "view",
      "type": "function",
      "constant": true
    }
  ],
  "bytecode": "0x60806040526000600355600060045534801561001a57600080fd5b50600080546001600160a01b0319163317905561205d8061003c6000396000f3fe608060405234801561001057600080fd5b50600436106101425760003560e01c80636d73e669116100b8578063add34bde1161007c578063add34bde146102a8578063b19769c8146102b0578063b5c1b0a9146102c3578063bdbcf7d9146102cb578063f8f98b79146102de578063ff978e9b146102f157610142565b80636d73e669146102455780637ae7523f146102585780638da5cb5b1461026b578063964ce51e14610280578063a477b0241461029557610142565b80632f54bf6e1161010a5780632f54bf6e146101b757806332648e09146101d7578063428e7e74146101f7578063459ad8341461020a57806364efb22b1461021f57806366dc7bf11461023257610142565b80630dab67b11461014757806312f597571461016557806315dab9bb146101875780631f54bba01461019c57806325e1c303146101af575b600080fd5b61014f610304565b60405161015c9190611fa6565b60405180910390f35b610178610173366004611b2d565b61030a565b60405161015c93929190611d9b565b61019a610195366004611b2d565b61043f565b005b61014f6101aa366004611b2d565b610524565b61014f610536565b6101ca6101c5366004611b2d565b61053c565b60405161015c9190611d62565b6101ea6101e5366004611b2d565b610553565b60405161015c9190611f93565b61019a610205366004611b4e565b61073f565b610212610872565b60405161015c9190611caf565b6101ea61022d366004611b2d565b610b56565b610178610240366004611b2d565b610bed565b61019a610253366004611b2d565b610c08565b61019a610266366004611b2d565b610cc4565b610273610d4e565b60405161015c9190611c9b565b610288610d5d565b60405161015c9190611d0f565b61019a6102a3366004611b9a565b611036565b610288611209565b61014f6102be366004611b2d565b6114e4565b6102126114f6565b6101786102d9366004611bf1565b6117cf565b61019a6102ec366004611b9a565b611802565b6101786102ff366004611bf1565b6119c9565b60035481565b60066020526000908152604090208054819061032590611faf565b80601f016020809104026020016040519081016040528092919081815260200182805461035190611faf565b801561039e5780601f106103735761010080835404028352916020019161039e565b820191906000526020600020905b81548152906001019060200180831161038157829003601f168201915b5050505050908060010180546103b390611faf565b80601f01602080910402602001604051908101604052809291908181526020018280546103df90611faf565b801561042c5780601f106104015761010080835404028352916020019161042c565b820191906000526020600020905b81548152906001019060200180831161040f57829003601f168201915b5050506002909301549192505060ff1683565b6000546001600160a01b031633146104725760405162461bcd60e51b815260040161046990611f5c565b60405180910390fd5b6001600160a01b03811660009081526005602052604090206002015460ff16156104ae5760405162461bcd60e51b815260040161046990611dd3565b6001600160a01b0381166000908152600560209081526040808320600201805460ff1916905560079091528120546001805490919081106104ff57634e487b7160e01b600052603260045260246000fd5b60009182526020909120600390910201600201805460ff191691151591909117905550565b60086020526000908152604090205481565b60045481565b6000546001600160a01b038281169116145b919050565b61055b6119d9565b6001600160a01b038216600090815260086020526040902054600280548290811061059657634e487b7160e01b600052603260045260246000fd5b600091825260209091206002600390920201015460ff166105c95760405162461bcd60e51b815260040161046990611f25565b600281815481106105ea57634e487b7160e01b600052603260045260246000fd5b906000526020600020906003020160405180606001604052908160008201805461061390611faf565b80601f016020809104026020016040519081016040528092919081815260200182805461063f90611faf565b801561068c5780601f106106615761010080835404028352916020019161068c565b820191906000526020600020905b81548152906001019060200180831161066f57829003601f168201915b505050505081526020016001820180546106a590611faf565b80601f01602080910402602001604051908101604052809291908181526020018280546106d190611faf565b801561071e5780601f106106f35761010080835404028352916020019161071e565b820191906000526020600020905b81548152906001019060200180831161070157829003601f168201915b50505091835250506002919091015460ff1615156020909101529392505050565b6001600160a01b03821660009081526006602052604090206002015460ff161561077b5760405162461bcd60e51b815260040161046990611dd3565b6001600160a01b038216600090815260066020908152604090912082516107aa926001909201918401906119fc565b506001600160a01b03821660009081526006602090815260408083206002908101805460ff191660011790556008909252909120548154909183918390811061080357634e487b7160e01b600052603260045260246000fd5b906000526020600020906003020160010190805190602001906108279291906119fc565b5060016002828154811061084b57634e487b7160e01b600052603260045260246000fd5b60009182526020909120600390910201600201805460ff1916911515919091179055505050565b60606000805b6001548110156108df57600181815481106108a357634e487b7160e01b600052603260045260246000fd5b600091825260209091206002600390920201015460ff16156108cd57816108c981611fea565b9250505b806108d781611fea565b915050610878565b5060008167ffffffffffffffff81111561090957634e487b7160e01b600052604160045260246000fd5b60405190808252806020026020018201604052801561094257816020015b61092f6119d9565b8152602001906001900390816109275790505b5090506000805b600154811015610b4d576001818154811061097457634e487b7160e01b600052603260045260246000fd5b600091825260209091206002600390920201015460ff1615610b3b57600181815481106109b157634e487b7160e01b600052603260045260246000fd5b90600052602060002090600302016040518060600160405290816000820180546109da90611faf565b80601f0160208091040260200160405190810160405280929190818152602001828054610a0690611faf565b8015610a535780601f10610a2857610100808354040283529160200191610a53565b820191906000526020600020905b815481529060010190602001808311610a3657829003601f168201915b50505050508152602001600182018054610a6c90611faf565b80601f0160208091040260200160405190810160405280929190818152602001828054610a9890611faf565b8015610ae55780601f10610aba57610100808354040283529160200191610ae5565b820191906000526020600020905b815481529060010190602001808311610ac857829003601f168201915b50505091835250506002919091015460ff1615156020909101528351849084908110610b2157634e487b7160e01b600052603260045260246000fd5b60200260200101819052508180610b3790611fea565b9250505b80610b4581611fea565b915050610949565b50909250505090565b610b5e6119d9565b6001600160a01b0382166000908152600760205260409020546001805482908110610b9957634e487b7160e01b600052603260045260246000fd5b600091825260209091206002600390920201015460ff16610bcc5760405162461bcd60e51b815260040161046990611e5c565b600181815481106105ea57634e487b7160e01b600052603260045260246000fd5b60056020526000908152604090208054819061032590611faf565b6000546001600160a01b03163314610c325760405162461bcd60e51b815260040161046990611eee565b6001600160a01b03811660009081526005602052604090206002015460ff1615610c6e5760405162461bcd60e51b815260040161046990611dd3565b6001600160a01b0381166000908152600560209081526040808320600201805460ff19166001908117909155600790925290912054815482919081106104ff57634e487b7160e01b600052603260045260246000fd5b6001600160a01b03811660009081526006602052604090206002015460ff1615610d005760405162461bcd60e51b815260040161046990611dd3565b6001600160a01b03811660009081526006602090815260408083206002908101805460ff191690556008909252822054815481106104ff57634e487b7160e01b600052603260045260246000fd5b6000546001600160a01b031681565b60606000805b600254811015610dc95760028181548110610d8e57634e487b7160e01b600052603260045260246000fd5b600091825260209091206002600390920201015460ff16610db75781610db381611fea565b9250505b80610dc181611fea565b915050610d63565b5060008167ffffffffffffffff811115610df357634e487b7160e01b600052604160045260246000fd5b604051908082528060200260200182016040528015610e2c57816020015b610e196119d9565b815260200190600190039081610e115790505b5090506000805b600254811015610b4d5760028181548110610e5e57634e487b7160e01b600052603260045260246000fd5b600091825260209091206002600390920201015460ff166110245760028181548110610e9a57634e487b7160e01b600052603260045260246000fd5b9060005260206000209060030201604051806060016040529081600082018054610ec390611faf565b80601f0160208091040260200160405190810160405280929190818152602001828054610eef90611faf565b8015610f3c5780601f10610f1157610100808354040283529160200191610f3c565b820191906000526020600020905b815481529060010190602001808311610f1f57829003601f168201915b50505050508152602001600182018054610f5590611faf565b80601f0160208091040260200160405190810160405280929190818152602001828054610f8190611faf565b8015610fce5780601f10610fa357610100808354040283529160200191610fce565b820191906000526020600020905b815481529060010190602001808311610fb157829003601f168201915b50505091835250506002919091015460ff161515602090910152835184908490811061100a57634e487b7160e01b600052603260045260246000fd5b6020026020010181905250818061102090611fea565b9250505b8061102e81611fea565b915050610e33565b3360009081526006602052604090206002015460ff16156110695760405162461bcd60e51b815260040161046990611eb7565b600082511161108a5760405162461bcd60e51b815260040161046990611e34565b60008151116110ab5760405162461bcd60e51b815260040161046990611e8b565b6040805160608101825283815260208082018490526000828401819052338152600682529290922081518051929384936110e892849201906119fc565b50602082810151805161110192600185019201906119fc565b50604091909101516002918201805491151560ff1990921691909117905580546001810182556000919091528151805183926003027f405787fa12a823e0f2b7631cc41b3ba8828b3321ca811111fa75cd3aa3bb5ace0191611168918391602001906119fc565b50602082810151805161118192600185019201906119fc565b50604091820151600291909101805460ff1916911515919091179055600480543360009081526008602052928320819055916111bc83611fea565b9190505550336001600160a01b03167f74df993ecd904806baa2cbe6f3ba762d37ac2bbfdab127b3a81e81f391de8fe284846040516111fc929190611d6d565b60405180910390a2505050565b60606000805b600254811015611276576002818154811061123a57634e487b7160e01b600052603260045260246000fd5b600091825260209091206002600390920201015460ff1615611264578161126081611fea565b9250505b8061126e81611fea565b91505061120f565b5060008167ffffffffffffffff8111156112a057634e487b7160e01b600052604160045260246000fd5b6040519080825280602002602001820160405280156112d957816020015b6112c66119d9565b8152602001906001900390816112be5790505b5090506000805b600254811015610b4d576002818154811061130b57634e487b7160e01b600052603260045260246000fd5b600091825260209091206002600390920201015460ff16156114d2576002818154811061134857634e487b7160e01b600052603260045260246000fd5b906000526020600020906003020160405180606001604052908160008201805461137190611faf565b80601f016020809104026020016040519081016040528092919081815260200182805461139d90611faf565b80156113ea5780601f106113bf576101008083540402835291602001916113ea565b820191906000526020600020905b8154815290600101906020018083116113cd57829003601f168201915b5050505050815260200160018201805461140390611faf565b80601f016020809104026020016040519081016040528092919081815260200182805461142f90611faf565b801561147c5780601f106114515761010080835404028352916020019161147c565b820191906000526020600020905b81548152906001019060200180831161145f57829003601f168201915b50505091835250506002919091015460ff16151560209091015283518490849081106114b857634e487b7160e01b600052603260045260246000fd5b602002602001018190525081806114ce90611fea565b9250505b806114dc81611fea565b9150506112e0565b60076020526000908152604090205481565b60606000805b600154811015611562576001818154811061152757634e487b7160e01b600052603260045260246000fd5b600091825260209091206002600390920201015460ff16611550578161154c81611fea565b9250505b8061155a81611fea565b9150506114fc565b5060008167ffffffffffffffff81111561158c57634e487b7160e01b600052604160045260246000fd5b6040519080825280602002602001820160405280156115c557816020015b6115b26119d9565b8152602001906001900390816115aa5790505b5090506000805b600154811015610b4d57600181815481106115f757634e487b7160e01b600052603260045260246000fd5b600091825260209091206002600390920201015460ff166117bd576001818154811061163357634e487b7160e01b600052603260045260246000fd5b906000526020600020906003020160405180606001604052908160008201805461165c90611faf565b80601f016020809104026020016040519081016040528092919081815260200182805461168890611faf565b80156116d55780601f106116aa576101008083540402835291602001916116d5565b820191906000526020600020905b8154815290600101906020018083116116b857829003601f168201915b505050505081526020016001820180546116ee90611faf565b80601f016020809104026020016040519081016040528092919081815260200182805461171a90611faf565b80156117675780601f1061173c57610100808354040283529160200191611767565b820191906000526020600020905b81548152906001019060200180831161174a57829003601f168201915b50505091835250506002919091015460ff16151560209091015283518490849081106117a357634e487b7160e01b600052603260045260246000fd5b602002602001018190525081806117b990611fea565b9250505b806117c781611fea565b9150506115cc565b600181815481106117df57600080fd5b906000526020600020906003020160009150905080600001805461032590611faf565b3360009081526005602052604090206002015460ff16156118355760405162461bcd60e51b815260040161046990611dfd565b60008251116118565760405162461bcd60e51b815260040161046990611e34565b60008151116118775760405162461bcd60e51b815260040161046990611e8b565b6040805160608101825283815260208082018490526000828401819052338152600582529290922081518051929384936118b492849201906119fc565b5060208281015180516118cd92600185019201906119fc565b50604091909101516002909101805491151560ff199092169190911790556001805480820182556000919091528151805183926003027fb10e2d527612073b26eecdfd717e6a320cf44b4afac2b0732d9fcbe2b7fa0cf60191611935918391602001906119fc565b50602082810151805161194e92600185019201906119fc565b50604091820151600291909101805460ff19169115159190911790556003805433600090815260076020529283208190559161198983611fea565b9190505550336001600160a01b03167ff45f9140869e0b2158cd2702175461c147dce957c3cf73ce2c8d93354ae113a084846040516111fc929190611d6d565b600281815481106117df57600080fd5b604051806060016040528060608152602001606081526020016000151581525090565b828054611a0890611faf565b90600052602060002090601f016020900481019282611a2a5760008555611a70565b82601f10611a4357805160ff1916838001178555611a70565b82800160010185558215611a70579182015b82811115611a70578251825591602001919060010190611a55565b50611a7c929150611a80565b5090565b5b80821115611a7c5760008155600101611a81565b80356001600160a01b038116811461054e57600080fd5b600082601f830112611abc578081fd5b813567ffffffffffffffff80821115611ad757611ad7612011565b604051601f8301601f191681016020018281118282101715611afb57611afb612011565b604052828152848301602001861015611b12578384fd5b82602086016020830137918201602001929092529392505050565b600060208284031215611b3e578081fd5b611b4782611a95565b9392505050565b60008060408385031215611b60578081fd5b611b6983611a95565b9150602083013567ffffffffffffffff811115611b84578182fd5b611b9085828601611aac565b9150509250929050565b60008060408385031215611bac578182fd5b823567ffffffffffffffff80821115611bc3578384fd5b611bcf86838701611aac565b93506020850135915080821115611be4578283fd5b50611b9085828601611aac565b600060208284031215611c02578081fd5b5035919050565b60008151808452815b81811015611c2e57602081850181015186830182015201611c12565b81811115611c3f5782602083870101525b50601f01601f19169290920160200192915050565b6000815160608452611c696060850182611c09565b905060208301518482036020860152611c828282611c09565b9150506040830151151560408501528091505092915050565b6001600160a01b0391909116815260200190565b6000602080830181845280855180835260408601915060408482028701019250838701855b82811015611d0257603f19888603018452611cf0858351611c54565b94509285019290850190600101611cd4565b5092979650505050505050565b6000602080830181845280855180835260408601915060408482028701019250838701855b82811015611d0257603f19888603018452611d50858351611c54565b94509285019290850190600101611d34565b901515815260200190565b600060408252611d806040830185611c09565b8281036020840152611d928185611c09565b95945050505050565b600060608252611dae6060830186611c09565b8281036020840152611dc08186611c09565b9150508215156040830152949350505050565b60208082526010908201526f105b1c9958591e48185c1c1c9bdd995960821b604082015260600190565b6020808252601b908201527f416c726561647920726567697374657265642061732061646d696e0000000000604082015260600190565b6020808252600e908201526d115b585a5b081c995c5d5a5c995960921b604082015260600190565b60208082526015908201527410591b5a5b881a5cc81b9bdd08185c1c1c9bdd9959605a1b604082015260600190565b60208082526012908201527112541194c81a185cda081c995c5d5a5c995960721b604082015260600190565b6020808252601e908201527f416c7265616479207265676973746572656420617320656d706c6f7965650000604082015260600190565b6020808252601d908201527f4f6e6c79206f776e65722063616e20617070726f76652061646d696e73000000604082015260600190565b60208082526018908201527f456d706c6f796565206973206e6f7420617070726f7665640000000000000000604082015260600190565b6020808252601c908201527f4f6e6c79206f776e65722063616e2072656a6563742061646d696e7300000000604082015260600190565b600060208252611b476020830184611c54565b90815260200190565b600281046001821680611fc357607f821691505b60208210811415611fe457634e487b7160e01b600052602260045260246000fd5b50919050565b600060001982141561200a57634e487b7160e01b81526011600452602481fd5b5060010190565b634e487b7160e01b600052604160045260246000fdfea2646970667358221220c7e94bff0c374e0644999e7d5437aac67a41f20f30cef03a69a89dae8db00bff64736f6c63430008000033",
  "immutableReferences": {},
  "source": "// SPDX-License-Identifier: MIT\r\npragma solidity ^0.8.0;\r\n\r\ncontract Payroll {\r\n\r\n    struct Admin {\r\n        string email;\r\n        string ipfsHash;\r\n        bool approved;\r\n    }\r\n    struct Employee {\r\n        string email;\r\n        string ipfsHash;\r\n        bool approved;\r\n    }\r\n\r\n    address public owner;\r\n    Admin[] public AdminsList;\r\n    Employee[] public EmployeeList;\r\n\r\n    uint public AdminIterator = 0;\r\n    uint public EmployeeIterator = 0;\r\n\r\n    mapping(address => Admin) public RegisterAdmins;\r\n    mapping(address => Employee) public RegisterEmployees;\r\n    mapping(address => uint) public AdminArrayIndex;\r\n    mapping(address => uint) public EmployeeArrayIndex;\r\n\r\n    event AdminRequested(address indexed adminAddress, string email, string ipfsHash);\r\n    event EmployeeRequested(address indexed employeeAddress, string email, string ipfsHash);\r\n\r\n    constructor() {\r\n        owner = msg.sender;\r\n    }\r\n\r\n    function isOwner(address account) public view returns (bool) {\r\n        return account == owner;\r\n    }\r\n\r\n    function registerAdmin(string memory email, string memory ipfsHash) public {\r\n        require(!RegisterAdmins[msg.sender].approved, \"Already registered as admin\");\r\n        require(bytes(email).length > 0, \"Email required\");\r\n        require(bytes(ipfsHash).length > 0, \"IPFS hash required\");\r\n\r\n        Admin memory newAdmin = Admin({\r\n            email: email,\r\n            ipfsHash: ipfsHash,\r\n            approved: false\r\n        });\r\n        RegisterAdmins[msg.sender] = newAdmin;\r\n\r\n        AdminsList.push(newAdmin);\r\n\r\n        AdminArrayIndex[msg.sender] = AdminIterator;\r\n        AdminIterator++;\r\n        emit AdminRequested(msg.sender, email, ipfsHash);\r\n    }\r\n\r\n    function registerEmployee(string memory email, string memory ipfsHash) public {\r\n        require(!RegisterEmployees[msg.sender].approved, \"Already registered as employee\");\r\n        require(bytes(email).length > 0, \"Email required\");\r\n        require(bytes(ipfsHash).length > 0, \"IPFS hash required\");\r\n        \r\n        Employee memory newEmployee = Employee({\r\n            email: email,\r\n            ipfsHash: ipfsHash,\r\n            approved: false\r\n        });\r\n        RegisterEmployees[msg.sender] = newEmployee;\r\n\r\n        EmployeeList.push(newEmployee); \r\n        \r\n        EmployeeArrayIndex[msg.sender] = EmployeeIterator;\r\n        EmployeeIterator++;\r\n        emit EmployeeRequested(msg.sender, email, ipfsHash);\r\n    }\r\n\r\n    function approveAdmin(address adminAddress) public {\r\n        require(msg.sender == owner, \"Only owner can approve admins\");\r\n        require(!RegisterAdmins[adminAddress].approved, \"Already approved\");\r\n        RegisterAdmins[adminAddress].approved = true;\r\n        AdminsList[AdminArrayIndex[adminAddress]].approved = true;\r\n    }\r\n\r\n    function rejectAdmin(address adminAddress) public {\r\n        require(msg.sender == owner, \"Only owner can reject admins\");\r\n        require(!RegisterAdmins[adminAddress].approved, \"Already approved\");\r\n        RegisterAdmins[adminAddress].approved = false;\r\n        AdminsList[AdminArrayIndex[adminAddress]].approved = false;\r\n    }\r\n\r\n    function approveEmployee(address employeeAddress, string memory newIpfsHash) public {\r\n        require(!RegisterEmployees[employeeAddress].approved, \"Already approved\");\r\n        RegisterEmployees[employeeAddress].ipfsHash = newIpfsHash; // Update IPFS hash\r\n        RegisterEmployees[employeeAddress].approved = true;\r\n        uint index = EmployeeArrayIndex[employeeAddress];\r\n        EmployeeList[index].ipfsHash = newIpfsHash; \r\n        EmployeeList[index].approved = true;\r\n    }\r\n\r\n    function rejectEmployee(address employeeAddress) public {\r\n        require(!RegisterEmployees[employeeAddress].approved, \"Already approved\");\r\n        RegisterEmployees[employeeAddress].approved = false;\r\n        EmployeeList[EmployeeArrayIndex[employeeAddress]].approved = false;\r\n    }\r\n\r\n    function getPendingAdmins() public view returns (Admin[] memory) {\r\n        uint count = 0;\r\n        for (uint i = 0; i < AdminsList.length; i++) {\r\n            if (!AdminsList[i].approved) {\r\n                count++;\r\n            }\r\n        }\r\n        Admin[] memory pendingAdmins = new Admin[](count);\r\n        uint index = 0; \r\n        for (uint i = 0; i < AdminsList.length; i++) {\r\n            if (!AdminsList[i].approved) {\r\n                pendingAdmins[index] = AdminsList[i];\r\n                index++;\r\n            }\r\n        }\r\n        return pendingAdmins;\r\n    }\r\n\r\n    function getApprovedAdmins() public view returns (Admin[] memory) {\r\n        uint count = 0;\r\n        for (uint i = 0; i < AdminsList.length; i++) {\r\n            if (AdminsList[i].approved) {\r\n                count++;\r\n            }\r\n        }\r\n        Admin[] memory approvedAdmins = new Admin[](count);\r\n        uint index = 0;\r\n        for (uint i = 0; i < AdminsList.length; i++) {\r\n            if (AdminsList[i].approved) {\r\n                approvedAdmins[index] = AdminsList[i];\r\n                index++;\r\n            }\r\n        }\r\n        return approvedAdmins;\r\n    }\r\n\r\n    function getAdmin(address adminAddress) public view returns (Admin memory) {\r\n        uint index = AdminArrayIndex[adminAddress];\r\n        require(AdminsList[index].approved, \"Admin is not approved\");\r\n        return AdminsList[index];\r\n    }\r\n\r\n    function getPendingEmployees() public view returns (Employee[] memory) {\r\n        uint count = 0;\r\n        for (uint i = 0; i < EmployeeList.length; i++) {\r\n            if (!EmployeeList[i].approved) {\r\n                count++;\r\n            }\r\n        }\r\n        Employee[] memory pendingEmployees = new Employee[](count);\r\n        uint index = 0;\r\n        for (uint i = 0; i < EmployeeList.length; i++) {\r\n            if (!EmployeeList[i].approved) {\r\n                pendingEmployees[index] = EmployeeList[i];\r\n                index++;\r\n            }\r\n        }\r\n        return pendingEmployees;\r\n    }\r\n    \r\n    function getApprovedEmployees() public view returns (Employee[] memory) {\r\n        uint count = 0;\r\n        for (uint i = 0; i < EmployeeList.length; i++) {\r\n            if (EmployeeList[i].approved) {\r\n                count++;\r\n            }\r\n        }\r\n        Employee[] memory approvedEmployees = new Employee[](count);\r\n        uint index = 0; \r\n        for (uint i = 0; i < EmployeeList.length; i++) {\r\n            if (EmployeeList[i].approved) {\r\n                approvedEmployees[index] = EmployeeList[i];\r\n                index++;\r\n            }\r\n        }\r\n        return approvedEmployees;\r\n    }\r\n    \r\n    function getEmployee(address employeeAddress) public view returns (Employee memory) {\r\n        uint index = EmployeeArrayIndex[employeeAddress];\r\n        require(EmployeeList[index].approved, \"Employee is not approved\");\r\n        return EmployeeList[index];\r\n    }\r\n\r\n\r\n\r\n\r\n\r\n\r\n    /*address public owner;\r\n    address[] public pendingAdmins;\r\n    address[] public pendingEmployees;\r\n    address[] public approvedEmployees;\r\n    address[] public approvedAdmins;\r\n    uint256 public constant TAX_RATE = 20;\r\n    uint256 public constant NI_RATE = 12;\r\n    \r\n    // Existing structures\r\n    struct PayrollRecord {\r\n        string ipfsHash;\r\n        address employee;\r\n        address employer;\r\n    }\r\n\r\n    struct AdminRequest {\r\n        string name;\r\n        uint256 employeeId;\r\n        string email;\r\n        bool approved;\r\n    }\r\n\r\n    struct EmployeeRequest {\r\n        string name;\r\n        uint256 employeeId;\r\n        string email;\r\n        string ipfsHash;\r\n        bool approved;\r\n        bool exists; // New flag to check if request exists\r\n    }\r\n\r\n    struct SalaryRecord {\r\n        uint256 grossAmount;\r\n        uint256 taxAmount;\r\n        uint256 niAmount;\r\n        uint256 netAmount;\r\n        uint256 timestamp;\r\n        bool paid;\r\n    }\r\n\r\n    struct Payslip {\r\n        string ipfsHash;\r\n        bool generated;\r\n    }\r\n\r\n    struct TaxSlab {\r\n        uint256 min;\r\n        uint256 max;\r\n        uint256 rate;\r\n    }\r\n\r\n    // New structures for enhanced functionality\r\n    struct EmployeeOnChainData {\r\n        string fullName;\r\n        uint256 employeeId;\r\n        string email;\r\n        uint256 annualSalary;\r\n        uint256 monthlySalary;\r\n        uint256 taxAmount;\r\n        uint256 niAmount;\r\n        uint256 netSalary;\r\n        uint256 startDate;\r\n    }\r\n\r\n    // Existing mappings\r\n    mapping(address => bool) public admins;\r\n    mapping(address => string) public adminNames;\r\n    mapping(address => uint256) public adminEmployeeIds;\r\n    mapping(address => string) public adminEmails;\r\n    mapping(uint256 => PayrollRecord) public payrollRecords;\r\n    mapping(address => mapping(uint256 => bool)) public accessPermissions;\r\n    mapping(address => AdminRequest) public adminRequests;\r\n    mapping(address => EmployeeRequest) public employeeRequests;\r\n    mapping(address => string) public employeeDataHashes;\r\n    mapping(address => mapping(uint256 => SalaryRecord)) public employeeSalaries;\r\n    mapping(address => mapping(uint256 => Payslip)) public payslips;\r\n    mapping(address => uint256[]) public employeeSalaryMonths;\r\n    TaxSlab[] public taxSlabs;\r\n\r\n    // New mappings\r\n    mapping(address => EmployeeOnChainData) public employeeOnChainData;\r\n\r\n    // Events\r\n    event EmployeeRegistered( address indexed employee, string fullName, uint256 employeeId, string email);\r\n    event EmployeeApproved(address indexed employee, uint256 annualSalary, string ipfsHash);\r\n    event EmployeeRejected(address indexed employee);\r\n    event AdminRequested(address indexed adminAddress, string name, uint256 employeeId, string email);\r\n    event AdminApproved(address indexed adminAddress);\r\n    event AdminRejected(address indexed adminAddress);\r\n    event SalaryAdded(address indexed employee, uint256 yearMonth, uint256 netAmount);\r\n    event PayslipGenerated(address indexed employee, uint256 yearMonth, string ipfsHash);\r\n    event PayrollRecordAdded(uint256 indexed recordId, address indexed employee);\r\n    event AccessGranted(uint256 indexed recordId, address indexed employee);\r\n    event AccessRevoked(uint256 indexed recordId, address indexed employee);\r\n    event SalaryUpdated(address indexed employee, uint256 newAnnualSalary);\r\n\r\n    modifier onlyAdmin() {\r\n        require(admins[msg.sender] || msg.sender == owner, \"Not authorized\");\r\n        _;\r\n    }\r\n\r\n    modifier onlyOwner() {\r\n        require(msg.sender == owner, \"Not owner\");\r\n        _;\r\n    }\r\n\r\n    constructor() {\r\n        owner = msg.sender;\r\n        taxSlabs.push(TaxSlab(0, 1000 ether, 10));\r\n        taxSlabs.push(TaxSlab(1000 ether, 5000 ether, 20));\r\n        taxSlabs.push(TaxSlab(5000 ether, type(uint256).max, 30));\r\n    }\r\n\r\n    // Admin Functions\r\n    function verifyOwner(address _address) external view returns (bool) {\r\n        return _address == owner;\r\n    }\r\n\r\n    function requestAdminRole(string memory _name, uint256 _employeeId, string memory _email) external {\r\n        require(!admins[msg.sender], \"Already an admin\");\r\n        require(bytes(_name).length > 0, \"Name required\");\r\n        require(_employeeId > 0, \"Invalid employee ID\");\r\n        require(bytes(_email).length > 0, \"Email required\");\r\n\r\n        adminRequests[msg.sender] = AdminRequest({\r\n            name: _name,\r\n            employeeId: _employeeId,\r\n            email: _email,\r\n            approved: false\r\n        });\r\n\r\n        pendingAdmins.push(msg.sender);\r\n        emit AdminRequested(msg.sender, _name, _employeeId, _email);\r\n    }\r\n\r\n    function approveAdmin(address _adminAddress) external onlyOwner {\r\n        require(!adminRequests[_adminAddress].approved, \"Already approved\");\r\n        \r\n        admins[_adminAddress] = true;\r\n        adminNames[_adminAddress] = adminRequests[_adminAddress].name;\r\n        adminEmployeeIds[_adminAddress] = adminRequests[_adminAddress].employeeId;\r\n        adminEmails[_adminAddress] = adminRequests[_adminAddress].email;\r\n        adminRequests[_adminAddress].approved = true;\r\n\r\n        _removeFromPendingAdmins(_adminAddress);\r\n        approvedAdmins.push(_adminAddress);\r\n        emit AdminApproved(_adminAddress);\r\n    }\r\n\r\n    function rejectAdmin(address _adminAddress) external onlyOwner {\r\n        require(!adminRequests[_adminAddress].approved, \"Already approved\");\r\n        _removeFromPendingAdmins(_adminAddress);\r\n        delete adminRequests[_adminAddress];\r\n        emit AdminRejected(_adminAddress);\r\n    }\r\n\r\n    // Employee Functions\r\n    function registerEmployee(\r\n        string memory _fullName,\r\n        uint256 _employeeId,\r\n        string memory _email,\r\n        string memory _ipfsHash\r\n    ) external {\r\n        require(!employeeRequests[msg.sender].exists, \"Already registered\");\r\n        require(bytes(_fullName).length > 0, \"Name required\");\r\n        require(_employeeId > 0, \"Invalid employee ID\");\r\n        require(bytes(_email).length > 0, \"Email required\");\r\n        require(bytes(_ipfsHash).length > 0, \"IPFS hash required\");\r\n\r\n        employeeRequests[msg.sender] = EmployeeRequest({\r\n            name: _fullName,\r\n            employeeId: _employeeId,\r\n            email: _email,\r\n            ipfsHash: _ipfsHash,\r\n            approved: false,\r\n            exists: true\r\n        });\r\n\r\n        pendingEmployees.push(msg.sender);\r\n        // Emit all relevant data\r\n        emit EmployeeRegistered(msg.sender,_fullName,_employeeId,_email);\r\n    }\r\n\r\n    function approveEmployee(\r\n    address employee,\r\n    uint256 annualSalary,\r\n    string calldata updatedIpfsHash  // Add this parameter\r\n) external onlyAdmin {\r\n    require(!employeeRequests[employee].approved, \"Already approved\");\r\n    \r\n    (uint256 monthly, uint256 tax, uint256 ni, uint256 net) = calculateSalaryComponents(annualSalary);\r\n    \r\n    EmployeeOnChainData storage data = employeeOnChainData[employee];\r\n    data.annualSalary = annualSalary;\r\n    data.monthlySalary = monthly;\r\n    data.taxAmount = tax;\r\n    data.niAmount = ni;\r\n    data.netSalary = net;\r\n    data.startDate = block.timestamp;\r\n\r\n    // Update the IPFS hash in the employee request\r\n    employeeRequests[employee].ipfsHash = updatedIpfsHash;\r\n    employeeRequests[employee].approved = true;\r\n    \r\n    approvedEmployees.push(employee);\r\n    _removeFromPendingEmployees(employee);\r\n    \r\n    emit EmployeeApproved(employee, annualSalary, updatedIpfsHash);\r\n}\r\n\r\n    function rejectEmployee(address employee) external onlyAdmin {\r\n        require(!employeeRequests[employee].approved, \"Already approved\");\r\n        _removeFromPendingEmployees(employee);\r\n        delete employeeRequests[employee];\r\n        emit EmployeeRejected(employee);\r\n    }\r\n\r\n    function updateEmployeeIPFSHash(address employee, string memory ipfsHash) public onlyAdmin {\r\n        employeeRequests[employee].ipfsHash = ipfsHash;\r\n        emit EmployeeApproved(employee, employeeOnChainData[employee].annualSalary, ipfsHash); // Emit updated event\r\n    }\r\n\r\n    function calculateSalaryComponents(uint256 annualSalary) public pure returns (\r\n        uint256 monthly,\r\n        uint256 tax,\r\n        uint256 ni,\r\n        uint256 net\r\n    ) {\r\n        monthly = annualSalary / 12;\r\n        tax = (monthly * TAX_RATE) / 100;\r\n        ni = (monthly * NI_RATE) / 100;\r\n        net = monthly - tax - ni;\r\n        return (monthly, tax, ni, net);\r\n    }\r\n\r\n    function getEmployeeSalaryDetails(address employee) public view returns (\r\n        uint256 annual,\r\n        uint256 monthly,\r\n        uint256 tax,\r\n        uint256 ni,\r\n        uint256 net\r\n    ) {\r\n        EmployeeOnChainData memory data = employeeOnChainData[employee];\r\n        return (\r\n            data.annualSalary,\r\n            data.monthlySalary,\r\n            data.taxAmount,\r\n            data.niAmount,\r\n            data.netSalary\r\n        );\r\n    }\r\n\r\n    // Payroll Functions\r\n    function addSalary(\r\n        address employee,\r\n        uint256 yearMonth,\r\n        uint256 grossSalary\r\n    ) external onlyAdmin {\r\n        require(!employeeSalaries[employee][yearMonth].paid, \"Salary exists\");\r\n        require(grossSalary > 0, \"Invalid salary amount\");\r\n\r\n        uint256 tax = calculateTax(grossSalary);\r\n        uint256 ni = (grossSalary * NI_RATE) / 100;\r\n        uint256 netSalary = grossSalary - tax - ni;\r\n\r\n        employeeSalaries[employee][yearMonth] = SalaryRecord({\r\n            grossAmount: grossSalary,\r\n            taxAmount: tax,\r\n            niAmount: ni,\r\n            netAmount: netSalary,\r\n            timestamp: block.timestamp,\r\n            paid: true\r\n        });\r\n\r\n        employeeSalaryMonths[employee].push(yearMonth);\r\n        emit SalaryAdded(employee, yearMonth, netSalary);\r\n    }\r\n\r\n    function setPayslipCID(\r\n        address employee,\r\n        uint256 yearMonth,\r\n        string calldata ipfsHash\r\n    ) external onlyAdmin {\r\n        require(employeeSalaries[employee][yearMonth].timestamp != 0, \"Salary not found\");\r\n        payslips[employee][yearMonth] = Payslip(ipfsHash, true);\r\n        emit PayslipGenerated(employee, yearMonth, ipfsHash);\r\n    }\r\n\r\n    // Helper Functions\r\n    function calculateTax(uint256 grossSalary) public view returns (uint256) {\r\n        for (uint i = 0; i < taxSlabs.length; i++) {\r\n            if (grossSalary >= taxSlabs[i].min && grossSalary < taxSlabs[i].max) {\r\n                return (grossSalary * taxSlabs[i].rate) / 100;\r\n            }\r\n        }\r\n        return 0;\r\n    }\r\n\r\n    function addPayrollRecord(uint256 recordId, string memory ipfsHash, address employee) public onlyAdmin {\r\n        require(bytes(ipfsHash).length > 0, \"IPFS hash required\");\r\n        require(employee != address(0), \"Invalid employee address\");\r\n        \r\n        payrollRecords[recordId] = PayrollRecord(ipfsHash, employee, msg.sender);\r\n        emit PayrollRecordAdded(recordId, employee);\r\n    }\r\n\r\n    function grantAccess(uint256 recordId, address employee) public {\r\n        require(payrollRecords[recordId].employer == msg.sender, \"Not employer\");\r\n        emit AccessGranted(recordId, employee);\r\n    }\r\n\r\n    function revokeAccess(uint256 recordId, address employee) public {\r\n        require(payrollRecords[recordId].employer == msg.sender, \"Not employer\");\r\n        accessPermissions[employee][recordId] = false;\r\n        emit AccessRevoked(recordId, employee);\r\n    }\r\n\r\n    // Private Functions\r\n    function _removeFromPendingAdmins(address _adminAddress) private {\r\n        for (uint i = 0; i < pendingAdmins.length; i++) {\r\n            if (pendingAdmins[i] == _adminAddress) {\r\n                pendingAdmins[i] = pendingAdmins[pendingAdmins.length - 1];\r\n                pendingAdmins.pop();\r\n                break;\r\n            }\r\n        }\r\n    }\r\n\r\n    function _removeFromPendingEmployees(address employee) private {\r\n        for (uint i = 0; i < pendingEmployees.length; i++) {\r\n            if (pendingEmployees[i] == employee) {\r\n                pendingEmployees[i] = pendingEmployees[pendingEmployees.length - 1];\r\n                pendingEmployees.pop();\r\n                break;\r\n            }\r\n        }\r\n    }\r\n\r\n    // View Functions\r\n    function isAdmin(address _address) external view returns (bool) {\r\n        return admins[_address];\r\n    }\r\n\r\n    function getPendingAdmins() external view returns (address[] memory) {\r\n        return pendingAdmins;\r\n    }\r\n\r\n    function getApprovedAdmins() external view returns (address[] memory) {\r\n        return approvedAdmins;\r\n    }\r\n\r\n    function getPendingEmployees() external view returns (address[] memory) {\r\n        return pendingEmployees;\r\n    }\r\n\r\n    function getApprovedEmployees() external view returns (address[] memory) {\r\n        return approvedEmployees;\r\n    }\r\n\r\n    function getEmployeeDetails(address employee) external view returns (EmployeeRequest memory) {\r\n        return employeeRequests[employee];\r\n    }\r\n\r\n    function getSalaryMonths(address employee) external view returns (uint256[] memory) {\r\n        return employeeSalaryMonths[employee];\r\n    }\r\n\r\n    function getPayrollRecord(uint256 recordId) public view returns (string memory) {\r\n        require(accessPermissions[msg.sender][recordId], \"Not authorized\");\r\n        return payrollRecords[recordId].ipfsHash;\r\n    }*/\r\n}",
  "sourcePath": "C:\\Shalvi\\PayrollManagement_Blockchain\\payroll-smart-contract\\contracts\\Payroll.sol",
  "compiler": {
    "name": "solc",
    "version": "0.8.0+commit.c7dfd78e.Emscripten.clang"
  },
  "schemaVersion": "3.4.16",
  "updatedAt": "2025-05-02T23:27:25.527Z",
  "networkType": "ethereum",
  "devdoc": {
    "kind": "dev",
    "methods": {},
    "version": 1
  },
  "userdoc": {
    "kind": "user",
    "methods": {},
    "version": 1
  }
}