{
  "contractName": "Payroll",
  "abi": [
    {
      "inputs": [],
      "stateMutability": "nonpayable",
      "type": "constructor"
    },
    {
      "anonymous": false,
      "inputs": [
        {
          "indexed": true,
          "internalType": "address",
          "name": "employee",
          "type": "address"
        }
      ],
      "name": "EmployeeApproved",
      "type": "event"
    },
    {
      "anonymous": false,
      "inputs": [
        {
          "indexed": true,
          "internalType": "address",
          "name": "employee",
          "type": "address"
        },
        {
          "indexed": false,
          "internalType": "string",
          "name": "ipfsHash",
          "type": "string"
        }
      ],
      "name": "EmployeeRegistered",
      "type": "event"
    },
    {
      "inputs": [
        {
          "internalType": "address",
          "name": "",
          "type": "address"
        },
        {
          "internalType": "uint256",
          "name": "",
          "type": "uint256"
        }
      ],
      "name": "accessPermissions",
      "outputs": [
        {
          "internalType": "bool",
          "name": "",
          "type": "bool"
        }
      ],
      "stateMutability": "view",
      "type": "function",
      "constant": true
    },
    {
      "inputs": [
        {
          "internalType": "address",
          "name": "",
          "type": "address"
        }
      ],
      "name": "adminEmails",
      "outputs": [
        {
          "internalType": "string",
          "name": "",
          "type": "string"
        }
      ],
      "stateMutability": "view",
      "type": "function",
      "constant": true
    },
    {
      "inputs": [
        {
          "internalType": "address",
          "name": "",
          "type": "address"
        }
      ],
      "name": "adminEmployeeIds",
      "outputs": [
        {
          "internalType": "uint256",
          "name": "",
          "type": "uint256"
        }
      ],
      "stateMutability": "view",
      "type": "function",
      "constant": true
    },
    {
      "inputs": [
        {
          "internalType": "address",
          "name": "",
          "type": "address"
        }
      ],
      "name": "adminNames",
      "outputs": [
        {
          "internalType": "string",
          "name": "",
          "type": "string"
        }
      ],
      "stateMutability": "view",
      "type": "function",
      "constant": true
    },
    {
      "inputs": [
        {
          "internalType": "address",
          "name": "",
          "type": "address"
        }
      ],
      "name": "adminRequests",
      "outputs": [
        {
          "internalType": "string",
          "name": "name",
          "type": "string"
        },
        {
          "internalType": "uint256",
          "name": "employeeId",
          "type": "uint256"
        },
        {
          "internalType": "string",
          "name": "email",
          "type": "string"
        },
        {
          "internalType": "bool",
          "name": "approved",
          "type": "bool"
        }
      ],
      "stateMutability": "view",
      "type": "function",
      "constant": true
    },
    {
      "inputs": [
        {
          "internalType": "address",
          "name": "",
          "type": "address"
        }
      ],
      "name": "admins",
      "outputs": [
        {
          "internalType": "bool",
          "name": "",
          "type": "bool"
        }
      ],
      "stateMutability": "view",
      "type": "function",
      "constant": true
    },
    {
      "inputs": [
        {
          "internalType": "uint256",
          "name": "",
          "type": "uint256"
        }
      ],
      "name": "approvedEmployees",
      "outputs": [
        {
          "internalType": "address",
          "name": "",
          "type": "address"
        }
      ],
      "stateMutability": "view",
      "type": "function",
      "constant": true
    },
    {
      "inputs": [
        {
          "internalType": "address",
          "name": "",
          "type": "address"
        }
      ],
      "name": "employeeDataHashes",
      "outputs": [
        {
          "internalType": "string",
          "name": "",
          "type": "string"
        }
      ],
      "stateMutability": "view",
      "type": "function",
      "constant": true
    },
    {
      "inputs": [
        {
          "internalType": "address",
          "name": "",
          "type": "address"
        }
      ],
      "name": "employeeRequests",
      "outputs": [
        {
          "internalType": "string",
          "name": "ipfsHash",
          "type": "string"
        },
        {
          "internalType": "bool",
          "name": "approved",
          "type": "bool"
        }
      ],
      "stateMutability": "view",
      "type": "function",
      "constant": true
    },
    {
      "inputs": [],
      "name": "owner",
      "outputs": [
        {
          "internalType": "address",
          "name": "",
          "type": "address"
        }
      ],
      "stateMutability": "view",
      "type": "function",
      "constant": true
    },
    {
      "inputs": [
        {
          "internalType": "uint256",
          "name": "",
          "type": "uint256"
        }
      ],
      "name": "payrollRecords",
      "outputs": [
        {
          "internalType": "string",
          "name": "ipfsHash",
          "type": "string"
        },
        {
          "internalType": "address",
          "name": "employee",
          "type": "address"
        },
        {
          "internalType": "address",
          "name": "employer",
          "type": "address"
        }
      ],
      "stateMutability": "view",
      "type": "function",
      "constant": true
    },
    {
      "inputs": [
        {
          "internalType": "uint256",
          "name": "",
          "type": "uint256"
        }
      ],
      "name": "pendingAdmins",
      "outputs": [
        {
          "internalType": "address",
          "name": "",
          "type": "address"
        }
      ],
      "stateMutability": "view",
      "type": "function",
      "constant": true
    },
    {
      "inputs": [
        {
          "internalType": "uint256",
          "name": "",
          "type": "uint256"
        }
      ],
      "name": "pendingEmployees",
      "outputs": [
        {
          "internalType": "address",
          "name": "",
          "type": "address"
        }
      ],
      "stateMutability": "view",
      "type": "function",
      "constant": true
    },
    {
      "inputs": [
        {
          "internalType": "address",
          "name": "_address",
          "type": "address"
        }
      ],
      "name": "verifyOwner",
      "outputs": [
        {
          "internalType": "bool",
          "name": "",
          "type": "bool"
        }
      ],
      "stateMutability": "view",
      "type": "function",
      "constant": true
    },
    {
      "inputs": [
        {
          "internalType": "string",
          "name": "_name",
          "type": "string"
        },
        {
          "internalType": "uint256",
          "name": "_employeeId",
          "type": "uint256"
        },
        {
          "internalType": "string",
          "name": "_email",
          "type": "string"
        }
      ],
      "name": "requestAdminRole",
      "outputs": [],
      "stateMutability": "nonpayable",
      "type": "function"
    },
    {
      "inputs": [],
      "name": "getPendingAdmins",
      "outputs": [
        {
          "internalType": "address[]",
          "name": "",
          "type": "address[]"
        }
      ],
      "stateMutability": "view",
      "type": "function",
      "constant": true
    },
    {
      "inputs": [
        {
          "internalType": "address",
          "name": "_adminAddress",
          "type": "address"
        }
      ],
      "name": "approveAdmin",
      "outputs": [],
      "stateMutability": "nonpayable",
      "type": "function"
    },
    {
      "inputs": [
        {
          "internalType": "address",
          "name": "_address",
          "type": "address"
        }
      ],
      "name": "isAdmin",
      "outputs": [
        {
          "internalType": "bool",
          "name": "",
          "type": "bool"
        }
      ],
      "stateMutability": "view",
      "type": "function",
      "constant": true
    },
    {
      "inputs": [
        {
          "internalType": "address",
          "name": "_adminAddress",
          "type": "address"
        }
      ],
      "name": "rejectAdmin",
      "outputs": [],
      "stateMutability": "nonpayable",
      "type": "function"
    },
    {
      "inputs": [
        {
          "internalType": "string",
          "name": "ipfsHash",
          "type": "string"
        }
      ],
      "name": "registerEmployee",
      "outputs": [],
      "stateMutability": "nonpayable",
      "type": "function"
    },
    {
      "inputs": [
        {
          "internalType": "address",
          "name": "employee",
          "type": "address"
        }
      ],
      "name": "approveEmployee",
      "outputs": [],
      "stateMutability": "nonpayable",
      "type": "function"
    },
    {
      "inputs": [],
      "name": "getPendingEmployees",
      "outputs": [
        {
          "internalType": "address[]",
          "name": "",
          "type": "address[]"
        }
      ],
      "stateMutability": "view",
      "type": "function",
      "constant": true
    },
    {
      "inputs": [],
      "name": "getApprovedEmployees",
      "outputs": [
        {
          "internalType": "address[]",
          "name": "",
          "type": "address[]"
        }
      ],
      "stateMutability": "view",
      "type": "function",
      "constant": true
    },
    {
      "inputs": [
        {
          "internalType": "address",
          "name": "employee",
          "type": "address"
        }
      ],
      "name": "getEmployeeDataHash",
      "outputs": [
        {
          "internalType": "string",
          "name": "",
          "type": "string"
        }
      ],
      "stateMutability": "view",
      "type": "function",
      "constant": true
    },
    {
      "inputs": [
        {
          "internalType": "uint256",
          "name": "recordId",
          "type": "uint256"
        },
        {
          "internalType": "string",
          "name": "ipfsHash",
          "type": "string"
        },
        {
          "internalType": "address",
          "name": "employee",
          "type": "address"
        }
      ],
      "name": "addPayrollRecord",
      "outputs": [],
      "stateMutability": "nonpayable",
      "type": "function"
    },
    {
      "inputs": [
        {
          "internalType": "uint256",
          "name": "recordId",
          "type": "uint256"
        },
        {
          "internalType": "address",
          "name": "employee",
          "type": "address"
        }
      ],
      "name": "grantAccess",
      "outputs": [],
      "stateMutability": "nonpayable",
      "type": "function"
    },
    {
      "inputs": [
        {
          "internalType": "uint256",
          "name": "recordId",
          "type": "uint256"
        },
        {
          "internalType": "address",
          "name": "employee",
          "type": "address"
        }
      ],
      "name": "revokeAccess",
      "outputs": [],
      "stateMutability": "nonpayable",
      "type": "function"
    },
    {
      "inputs": [
        {
          "internalType": "uint256",
          "name": "recordId",
          "type": "uint256"
        }
      ],
      "name": "getPayrollRecord",
      "outputs": [
        {
          "internalType": "string",
          "name": "",
          "type": "string"
        }
      ],
      "stateMutability": "view",
      "type": "function",
      "constant": true
    }
  ],
  "bytecode": "0x608060405234801561001057600080fd5b50336000806101000a81548173ffffffffffffffffffffffffffffffffffffffff021916908373ffffffffffffffffffffffffffffffffffffffff160217905550613675806100606000396000f3fe608060405234801561001057600080fd5b50600436106101c45760003560e01c80637d341df6116100f9578063add34bde11610097578063d501817a11610071578063d501817a1461057b578063d9a5ec1b146105ab578063e31bf91d146105c7578063fc19c040146105f7576101c4565b8063add34bde14610523578063b5c1b0a914610541578063c6b7d3d81461055f576101c4565b80638da5cb5b116100d35780638da5cb5b14610487578063956c2dcc146104a5578063964ce51e146104d5578063a58edf09146104f3576101c4565b80637d341df61461040b57806382e9db29146104275780638c85cd8514610457576101c4565b80633c48aa791161016657806360cac2241161014057806360cac2241461038557806365dd152c146103a15780636d73e669146103bd57806370ac9067146103d9576101c4565b80633c48aa79146102f2578063429b62e5146103255780635c58e77614610355576101c4565b80631d2613de116101a25780631d2613de1461024657806324d7806c146102625780632bf35b34146102925780633234a484146102c2576101c4565b80630e66848d146101c957806315dab9bb146101fa5780631ba04cc714610216575b600080fd5b6101e360048036038101906101de91906129da565b610627565b6040516101f1929190613146565b60405180910390f35b610214600480360381019061020f91906129da565b6106e0565b005b610230600480360381019061022b91906129da565b610b29565b60405161023d91906130e6565b60405180910390f35b610260600480360381019061025b91906129da565b610bc9565b005b61027c600480360381019061027791906129da565b611139565b60405161028991906130cb565b60405180910390f35b6102ac60048036038101906102a791906129da565b61118f565b6040516102b991906130e6565b60405180910390f35b6102dc60048036038101906102d79190612aff565b61122f565b6040516102e9919061308e565b60405180910390f35b61030c600480360381019061030791906129da565b61126e565b60405161031c9493929190613176565b60405180910390f35b61033f600480360381019061033a91906129da565b6113bb565b60405161034c91906130cb565b60405180910390f35b61036f600480360381019061036a91906129da565b6113db565b60405161037c9190613369565b60405180910390f35b61039f600480360381019061039a9190612a3f565b6113f3565b005b6103bb60048036038101906103b69190612b28565b611612565b005b6103d760048036038101906103d291906129da565b611725565b005b6103f360048036038101906103ee9190612aff565b611d5b565b60405161040293929190613108565b60405180910390f35b61042560048036038101906104209190612b64565b611e4d565b005b610441600480360381019061043c91906129da565b611f5a565b60405161044e91906130e6565b60405180910390f35b610471600480360381019061046c91906129da565b61202b565b60405161047e91906130cb565b60405180910390f35b61048f612084565b60405161049c919061308e565b60405180910390f35b6104bf60048036038101906104ba91906129da565b6120a8565b6040516104cc91906130e6565b60405180910390f35b6104dd612148565b6040516104ea91906130a9565b60405180910390f35b61050d60048036038101906105089190612aff565b6121d6565b60405161051a919061308e565b60405180910390f35b61052b612215565b60405161053891906130a9565b60405180910390f35b6105496122a3565b60405161055691906130a9565b60405180910390f35b61057960048036038101906105749190612a80565b612331565b005b61059560048036038101906105909190612a03565b612512565b6040516105a291906130cb565b60405180910390f35b6105c560048036038101906105c09190612b28565b612541565b005b6105e160048036038101906105dc9190612aff565b612654565b6040516105ee919061308e565b60405180910390f35b610611600480360381019061060c9190612aff565b612693565b60405161061e91906130e6565b60405180910390f35b600b60205280600052604060002060009150905080600001805461064a906134f8565b80601f0160208091040260200160405190810160405280929190818152602001828054610676906134f8565b80156106c35780601f10610698576101008083540402835291602001916106c3565b820191906000526020600020905b8154815290600101906020018083116106a657829003601f168201915b5050505050908060010160009054906101000a900460ff16905082565b60008054906101000a900473ffffffffffffffffffffffffffffffffffffffff1673ffffffffffffffffffffffffffffffffffffffff163373ffffffffffffffffffffffffffffffffffffffff161461076e576040517f08c379a000000000000000000000000000000000000000000000000000000000815260040161076590613229565b60405180910390fd5b6000600a60008373ffffffffffffffffffffffffffffffffffffffff1673ffffffffffffffffffffffffffffffffffffffff1681526020019081526020016000206001015414156107f4576040517f08c379a00000000000000000000000000000000000000000000000000000000081526004016107eb906131e9565b60405180910390fd5b600a60008273ffffffffffffffffffffffffffffffffffffffff1673ffffffffffffffffffffffffffffffffffffffff16815260200190815260200160002060030160009054906101000a900460ff1615610884576040517f08c379a000000000000000000000000000000000000000000000000000000000815260040161087b906131c9565b60405180910390fd5b60005b600180549050811015610aa7578173ffffffffffffffffffffffffffffffffffffffff16600182815481106108e5577f4e487b7100000000000000000000000000000000000000000000000000000000600052603260045260246000fd5b9060005260206000200160009054906101000a900473ffffffffffffffffffffffffffffffffffffffff1673ffffffffffffffffffffffffffffffffffffffff161415610a9457600180808054905061093e919061343a565b81548110610975577f4e487b7100000000000000000000000000000000000000000000000000000000600052603260045260246000fd5b9060005260206000200160009054906101000a900473ffffffffffffffffffffffffffffffffffffffff16600182815481106109da577f4e487b7100000000000000000000000000000000000000000000000000000000600052603260045260246000fd5b9060005260206000200160006101000a81548173ffffffffffffffffffffffffffffffffffffffff021916908373ffffffffffffffffffffffffffffffffffffffff1602179055506001805480610a5a577f4e487b7100000000000000000000000000000000000000000000000000000000600052603160045260246000fd5b6001900381819060005260206000200160006101000a81549073ffffffffffffffffffffffffffffffffffffffff02191690559055610aa7565b8080610a9f9061352a565b915050610887565b50600a60008273ffffffffffffffffffffffffffffffffffffffff1673ffffffffffffffffffffffffffffffffffffffff16815260200190815260200160002060008082016000610af891906127d8565b6001820160009055600282016000610b1091906127d8565b6003820160006101000a81549060ff0219169055505050565b60076020528060005260406000206000915090508054610b48906134f8565b80601f0160208091040260200160405190810160405280929190818152602001828054610b74906134f8565b8015610bc15780601f10610b9657610100808354040283529160200191610bc1565b820191906000526020600020905b815481529060010190602001808311610ba457829003601f168201915b505050505081565b600460003373ffffffffffffffffffffffffffffffffffffffff1673ffffffffffffffffffffffffffffffffffffffff16815260200190815260200160002060009054906101000a900460ff16610c55576040517f08c379a0000000000000000000000000000000000000000000000000000000008152600401610c4c90613269565b60405180910390fd5b600b60008273ffffffffffffffffffffffffffffffffffffffff1673ffffffffffffffffffffffffffffffffffffffff16815260200190815260200160002060010160009054906101000a900460ff1615610ce5576040517f08c379a0000000000000000000000000000000000000000000000000000000008152600401610cdc90613329565b60405180910390fd5b6000600b60008373ffffffffffffffffffffffffffffffffffffffff1673ffffffffffffffffffffffffffffffffffffffff1681526020019081526020016000206000018054610d34906134f8565b905011610d76576040517f08c379a0000000000000000000000000000000000000000000000000000000008152600401610d6d90613249565b60405180910390fd5b6001600b60008373ffffffffffffffffffffffffffffffffffffffff1673ffffffffffffffffffffffffffffffffffffffff16815260200190815260200160002060010160006101000a81548160ff021916908315150217905550600b60008273ffffffffffffffffffffffffffffffffffffffff1673ffffffffffffffffffffffffffffffffffffffff168152602001908152602001600020600001600c60008373ffffffffffffffffffffffffffffffffffffffff1673ffffffffffffffffffffffffffffffffffffffff168152602001908152602001600020908054610e5e906134f8565b610e69929190612818565b506003819080600181540180825580915050600190039060005260206000200160009091909190916101000a81548173ffffffffffffffffffffffffffffffffffffffff021916908373ffffffffffffffffffffffffffffffffffffffff16021790555060005b6002805490508110156110f2578173ffffffffffffffffffffffffffffffffffffffff1660028281548110610f2e577f4e487b7100000000000000000000000000000000000000000000000000000000600052603260045260246000fd5b9060005260206000200160009054906101000a900473ffffffffffffffffffffffffffffffffffffffff1673ffffffffffffffffffffffffffffffffffffffff1614156110df5760026001600280549050610f89919061343a565b81548110610fc0577f4e487b7100000000000000000000000000000000000000000000000000000000600052603260045260246000fd5b9060005260206000200160009054906101000a900473ffffffffffffffffffffffffffffffffffffffff1660028281548110611025577f4e487b7100000000000000000000000000000000000000000000000000000000600052603260045260246000fd5b9060005260206000200160006101000a81548173ffffffffffffffffffffffffffffffffffffffff021916908373ffffffffffffffffffffffffffffffffffffffff16021790555060028054806110a5577f4e487b7100000000000000000000000000000000000000000000000000000000600052603160045260246000fd5b6001900381819060005260206000200160006101000a81549073ffffffffffffffffffffffffffffffffffffffff021916905590556110f2565b80806110ea9061352a565b915050610ed0565b508073ffffffffffffffffffffffffffffffffffffffff167f52fc9bbf272c9663e2f72e32ebbd87b584e1015d97d62c96a47d445f8460cac160405160405180910390a250565b6000600460008373ffffffffffffffffffffffffffffffffffffffff1673ffffffffffffffffffffffffffffffffffffffff16815260200190815260200160002060009054906101000a900460ff169050919050565b600560205280600052604060002060009150905080546111ae906134f8565b80601f01602080910402602001604051908101604052809291908181526020018280546111da906134f8565b80156112275780601f106111fc57610100808354040283529160200191611227565b820191906000526020600020905b81548152906001019060200180831161120a57829003601f168201915b505050505081565b6003818154811061123f57600080fd5b906000526020600020016000915054906101000a900473ffffffffffffffffffffffffffffffffffffffff1681565b600a602052806000526040600020600091509050806000018054611291906134f8565b80601f01602080910402602001604051908101604052809291908181526020018280546112bd906134f8565b801561130a5780601f106112df5761010080835404028352916020019161130a565b820191906000526020600020905b8154815290600101906020018083116112ed57829003601f168201915b505050505090806001015490806002018054611325906134f8565b80601f0160208091040260200160405190810160405280929190818152602001828054611351906134f8565b801561139e5780601f106113735761010080835404028352916020019161139e565b820191906000526020600020905b81548152906001019060200180831161138157829003601f168201915b5050505050908060030160009054906101000a900460ff16905084565b60046020528060005260406000206000915054906101000a900460ff1681565b60066020528060005260406000206000915090505481565b600b60003373ffffffffffffffffffffffffffffffffffffffff1673ffffffffffffffffffffffffffffffffffffffff16815260200190815260200160002060010160009054906101000a900460ff1615611483576040517f08c379a000000000000000000000000000000000000000000000000000000000815260040161147a906132a9565b60405180910390fd5b60008151116114c7576040517f08c379a00000000000000000000000000000000000000000000000000000000081526004016114be906132e9565b60405180910390fd5b604051806040016040528082815260200160001515815250600b60003373ffffffffffffffffffffffffffffffffffffffff1673ffffffffffffffffffffffffffffffffffffffff168152602001908152602001600020600082015181600001908051906020019061153a9291906128a5565b5060208201518160010160006101000a81548160ff0219169083151502179055509050506002339080600181540180825580915050600190039060005260206000200160009091909190916101000a81548173ffffffffffffffffffffffffffffffffffffffff021916908373ffffffffffffffffffffffffffffffffffffffff1602179055503373ffffffffffffffffffffffffffffffffffffffff167f7657087667750afe9a0e3b2a3d756e2a2b4f696c3d71141eb99420bcc2f1e2318260405161160791906130e6565b60405180910390a250565b813373ffffffffffffffffffffffffffffffffffffffff166008600083815260200190815260200160002060020160009054906101000a900473ffffffffffffffffffffffffffffffffffffffff1673ffffffffffffffffffffffffffffffffffffffff16146116b7576040517f08c379a00000000000000000000000000000000000000000000000000000000081526004016116ae90613209565b60405180910390fd5b6001600960008473ffffffffffffffffffffffffffffffffffffffff1673ffffffffffffffffffffffffffffffffffffffff168152602001908152602001600020600085815260200190815260200160002060006101000a81548160ff021916908315150217905550505050565b60008054906101000a900473ffffffffffffffffffffffffffffffffffffffff1673ffffffffffffffffffffffffffffffffffffffff163373ffffffffffffffffffffffffffffffffffffffff16146117b3576040517f08c379a00000000000000000000000000000000000000000000000000000000081526004016117aa90613309565b60405180910390fd5b6000600a60008373ffffffffffffffffffffffffffffffffffffffff1673ffffffffffffffffffffffffffffffffffffffff168152602001908152602001600020600101541415611839576040517f08c379a0000000000000000000000000000000000000000000000000000000008152600401611830906131e9565b60405180910390fd5b600a60008273ffffffffffffffffffffffffffffffffffffffff1673ffffffffffffffffffffffffffffffffffffffff16815260200190815260200160002060030160009054906101000a900460ff16156118c9576040517f08c379a00000000000000000000000000000000000000000000000000000000081526004016118c0906131c9565b60405180910390fd5b6001600460008373ffffffffffffffffffffffffffffffffffffffff1673ffffffffffffffffffffffffffffffffffffffff16815260200190815260200160002060006101000a81548160ff021916908315150217905550600a60008273ffffffffffffffffffffffffffffffffffffffff1673ffffffffffffffffffffffffffffffffffffffff168152602001908152602001600020600001600560008373ffffffffffffffffffffffffffffffffffffffff1673ffffffffffffffffffffffffffffffffffffffff1681526020019081526020016000209080546119ae906134f8565b6119b9929190612818565b50600a60008273ffffffffffffffffffffffffffffffffffffffff1673ffffffffffffffffffffffffffffffffffffffff16815260200190815260200160002060010154600660008373ffffffffffffffffffffffffffffffffffffffff1673ffffffffffffffffffffffffffffffffffffffff16815260200190815260200160002081905550600a60008273ffffffffffffffffffffffffffffffffffffffff1673ffffffffffffffffffffffffffffffffffffffff168152602001908152602001600020600201600760008373ffffffffffffffffffffffffffffffffffffffff1673ffffffffffffffffffffffffffffffffffffffff168152602001908152602001600020908054611acd906134f8565b611ad8929190612818565b506001600a60008373ffffffffffffffffffffffffffffffffffffffff1673ffffffffffffffffffffffffffffffffffffffff16815260200190815260200160002060030160006101000a81548160ff02191690831515021790555060005b600180549050811015611d57578173ffffffffffffffffffffffffffffffffffffffff1660018281548110611b95577f4e487b7100000000000000000000000000000000000000000000000000000000600052603260045260246000fd5b9060005260206000200160009054906101000a900473ffffffffffffffffffffffffffffffffffffffff1673ffffffffffffffffffffffffffffffffffffffff161415611d44576001808080549050611bee919061343a565b81548110611c25577f4e487b7100000000000000000000000000000000000000000000000000000000600052603260045260246000fd5b9060005260206000200160009054906101000a900473ffffffffffffffffffffffffffffffffffffffff1660018281548110611c8a577f4e487b7100000000000000000000000000000000000000000000000000000000600052603260045260246000fd5b9060005260206000200160006101000a81548173ffffffffffffffffffffffffffffffffffffffff021916908373ffffffffffffffffffffffffffffffffffffffff1602179055506001805480611d0a577f4e487b7100000000000000000000000000000000000000000000000000000000600052603160045260246000fd5b6001900381819060005260206000200160006101000a81549073ffffffffffffffffffffffffffffffffffffffff02191690559055611d57565b8080611d4f9061352a565b915050611b37565b5050565b6008602052806000526040600020600091509050806000018054611d7e906134f8565b80601f0160208091040260200160405190810160405280929190818152602001828054611daa906134f8565b8015611df75780601f10611dcc57610100808354040283529160200191611df7565b820191906000526020600020905b815481529060010190602001808311611dda57829003601f168201915b5050505050908060010160009054906101000a900473ffffffffffffffffffffffffffffffffffffffff16908060020160009054906101000a900473ffffffffffffffffffffffffffffffffffffffff16905083565b60405180606001604052808381526020018273ffffffffffffffffffffffffffffffffffffffff1681526020013373ffffffffffffffffffffffffffffffffffffffff16815250600860008581526020019081526020016000206000820151816000019080519060200190611ec39291906128a5565b5060208201518160010160006101000a81548173ffffffffffffffffffffffffffffffffffffffff021916908373ffffffffffffffffffffffffffffffffffffffff16021790555060408201518160020160006101000a81548173ffffffffffffffffffffffffffffffffffffffff021916908373ffffffffffffffffffffffffffffffffffffffff160217905550905050505050565b6060600c60008373ffffffffffffffffffffffffffffffffffffffff1673ffffffffffffffffffffffffffffffffffffffff1681526020019081526020016000208054611fa6906134f8565b80601f0160208091040260200160405190810160405280929190818152602001828054611fd2906134f8565b801561201f5780601f10611ff45761010080835404028352916020019161201f565b820191906000526020600020905b81548152906001019060200180831161200257829003601f168201915b50505050509050919050565b60008060009054906101000a900473ffffffffffffffffffffffffffffffffffffffff1673ffffffffffffffffffffffffffffffffffffffff168273ffffffffffffffffffffffffffffffffffffffff16149050919050565b60008054906101000a900473ffffffffffffffffffffffffffffffffffffffff1681565b600c60205280600052604060002060009150905080546120c7906134f8565b80601f01602080910402602001604051908101604052809291908181526020018280546120f3906134f8565b80156121405780601f1061211557610100808354040283529160200191612140565b820191906000526020600020905b81548152906001019060200180831161212357829003601f168201915b505050505081565b606060028054806020026020016040519081016040528092919081815260200182805480156121cc57602002820191906000526020600020905b8160009054906101000a900473ffffffffffffffffffffffffffffffffffffffff1673ffffffffffffffffffffffffffffffffffffffff1681526020019060010190808311612182575b5050505050905090565b600181815481106121e657600080fd5b906000526020600020016000915054906101000a900473ffffffffffffffffffffffffffffffffffffffff1681565b6060600380548060200260200160405190810160405280929190818152602001828054801561229957602002820191906000526020600020905b8160009054906101000a900473ffffffffffffffffffffffffffffffffffffffff1673ffffffffffffffffffffffffffffffffffffffff168152602001906001019080831161224f575b5050505050905090565b6060600180548060200260200160405190810160405280929190818152602001828054801561232757602002820191906000526020600020905b8160009054906101000a900473ffffffffffffffffffffffffffffffffffffffff1673ffffffffffffffffffffffffffffffffffffffff16815260200190600101908083116122dd575b5050505050905090565b600460003373ffffffffffffffffffffffffffffffffffffffff1673ffffffffffffffffffffffffffffffffffffffff16815260200190815260200160002060009054906101000a900460ff16156123be576040517f08c379a00000000000000000000000000000000000000000000000000000000081526004016123b5906132c9565b60405180910390fd5b6000600a60003373ffffffffffffffffffffffffffffffffffffffff1673ffffffffffffffffffffffffffffffffffffffff1681526020019081526020016000206001015414612443576040517f08c379a000000000000000000000000000000000000000000000000000000000815260040161243a90613289565b60405180910390fd5b604051806080016040528084815260200183815260200182815260200160001515815250600a60003373ffffffffffffffffffffffffffffffffffffffff1673ffffffffffffffffffffffffffffffffffffffff16815260200190815260200160002060008201518160000190805190602001906124c29291906128a5565b506020820151816001015560408201518160020190805190602001906124e99291906128a5565b5060608201518160030160006101000a81548160ff021916908315150217905550905050505050565b60096020528160005260406000206020528060005260406000206000915091509054906101000a900460ff1681565b813373ffffffffffffffffffffffffffffffffffffffff166008600083815260200190815260200160002060020160009054906101000a900473ffffffffffffffffffffffffffffffffffffffff1673ffffffffffffffffffffffffffffffffffffffff16146125e6576040517f08c379a00000000000000000000000000000000000000000000000000000000081526004016125dd90613209565b60405180910390fd5b6000600960008473ffffffffffffffffffffffffffffffffffffffff1673ffffffffffffffffffffffffffffffffffffffff168152602001908152602001600020600085815260200190815260200160002060006101000a81548160ff021916908315150217905550505050565b6002818154811061266457600080fd5b906000526020600020016000915054906101000a900473ffffffffffffffffffffffffffffffffffffffff1681565b6060600960003373ffffffffffffffffffffffffffffffffffffffff1673ffffffffffffffffffffffffffffffffffffffff168152602001908152602001600020600083815260200190815260200160002060009054906101000a900460ff16612732576040517f08c379a000000000000000000000000000000000000000000000000000000000815260040161272990613349565b60405180910390fd5b600860008381526020019081526020016000206000018054612753906134f8565b80601f016020809104026020016040519081016040528092919081815260200182805461277f906134f8565b80156127cc5780601f106127a1576101008083540402835291602001916127cc565b820191906000526020600020905b8154815290600101906020018083116127af57829003601f168201915b50505050509050919050565b5080546127e4906134f8565b6000825580601f106127f65750612815565b601f016020900490600052602060002090810190612814919061292b565b5b50565b828054612824906134f8565b90600052602060002090601f0160209004810192826128465760008555612894565b82601f106128575780548555612894565b8280016001018555821561289457600052602060002091601f016020900482015b82811115612893578254825591600101919060010190612878565b5b5090506128a1919061292b565b5090565b8280546128b1906134f8565b90600052602060002090601f0160209004810192826128d3576000855561291a565b82601f106128ec57805160ff191683800117855561291a565b8280016001018555821561291a579182015b828111156129195782518255916020019190600101906128fe565b5b509050612927919061292b565b5090565b5b8082111561294457600081600090555060010161292c565b5090565b600061295b612956846133b5565b613384565b90508281526020810184848401111561297357600080fd5b61297e8482856134b6565b509392505050565b60008135905061299581613611565b92915050565b600082601f8301126129ac57600080fd5b81356129bc848260208601612948565b91505092915050565b6000813590506129d481613628565b92915050565b6000602082840312156129ec57600080fd5b60006129fa84828501612986565b91505092915050565b60008060408385031215612a1657600080fd5b6000612a2485828601612986565b9250506020612a35858286016129c5565b9150509250929050565b600060208284031215612a5157600080fd5b600082013567ffffffffffffffff811115612a6b57600080fd5b612a778482850161299b565b91505092915050565b600080600060608486031215612a9557600080fd5b600084013567ffffffffffffffff811115612aaf57600080fd5b612abb8682870161299b565b9350506020612acc868287016129c5565b925050604084013567ffffffffffffffff811115612ae957600080fd5b612af58682870161299b565b9150509250925092565b600060208284031215612b1157600080fd5b6000612b1f848285016129c5565b91505092915050565b60008060408385031215612b3b57600080fd5b6000612b49858286016129c5565b9250506020612b5a85828601612986565b9150509250929050565b600080600060608486031215612b7957600080fd5b6000612b87868287016129c5565b935050602084013567ffffffffffffffff811115612ba457600080fd5b612bb08682870161299b565b9250506040612bc186828701612986565b9150509250925092565b6000612bd78383612be3565b60208301905092915050565b612bec8161346e565b82525050565b612bfb8161346e565b82525050565b6000612c0c826133f5565b612c168185613418565b9350612c21836133e5565b8060005b83811015612c52578151612c398882612bcb565b9750612c448361340b565b925050600181019050612c25565b5085935050505092915050565b612c6881613480565b82525050565b6000612c7982613400565b612c838185613429565b9350612c938185602086016134c5565b612c9c81613600565b840191505092915050565b6000612cb4601983613429565b91507f5265717565737420616c726561647920617070726f7665642e000000000000006000830152602082019050919050565b6000612cf4602283613429565b91507f4e6f207265717565737420666f756e6420666f7220746869732061646472657360008301527f732e0000000000000000000000000000000000000000000000000000000000006020830152604082019050919050565b6000612d5a601083613429565b91507f4e6f742074686520656d706c6f796572000000000000000000000000000000006000830152602082019050919050565b6000612d9a601d83613429565b91507f4f6e6c79206f776e65722063616e2072656a6563742061646d696e732e0000006000830152602082019050919050565b6000612dda602383613429565b91507f4e6f207265717565737420666f756e6420666f72207468697320656d706c6f7960008301527f65652e00000000000000000000000000000000000000000000000000000000006020830152604082019050919050565b6000612e40602183613429565b91507f4f6e6c792061646d696e2063616e20617070726f766520656d706c6f7965657360008301527f2e000000000000000000000000000000000000000000000000000000000000006020830152604082019050919050565b6000612ea6602583613429565b91507f596f75206861766520616c7265616479207375626d697474656420612072657160008301527f756573742e0000000000000000000000000000000000000000000000000000006020830152604082019050919050565b6000612f0c601c83613429565b91507f456d706c6f79656520616c726561647920726567697374657265642e000000006000830152602082019050919050565b6000612f4c601983613429565b91507f596f752061726520616c726561647920616e2061646d696e2e000000000000006000830152602082019050919050565b6000612f8c601a83613429565b91507f4950465320686173682063616e6e6f7420626520656d7074792e0000000000006000830152602082019050919050565b6000612fcc601e83613429565b91507f4f6e6c79206f776e65722063616e20617070726f76652061646d696e732e00006000830152602082019050919050565b600061300c601a83613429565b91507f456d706c6f79656520616c726561647920617070726f7665642e0000000000006000830152602082019050919050565b600061304c600e83613429565b91507f4e6f7420617574686f72697a65640000000000000000000000000000000000006000830152602082019050919050565b613088816134ac565b82525050565b60006020820190506130a36000830184612bf2565b92915050565b600060208201905081810360008301526130c38184612c01565b905092915050565b60006020820190506130e06000830184612c5f565b92915050565b600060208201905081810360008301526131008184612c6e565b905092915050565b600060608201905081810360008301526131228186612c6e565b90506131316020830185612bf2565b61313e6040830184612bf2565b949350505050565b600060408201905081810360008301526131608185612c6e565b905061316f6020830184612c5f565b9392505050565b600060808201905081810360008301526131908187612c6e565b905061319f602083018661307f565b81810360408301526131b18185612c6e565b90506131c06060830184612c5f565b95945050505050565b600060208201905081810360008301526131e281612ca7565b9050919050565b6000602082019050818103600083015261320281612ce7565b9050919050565b6000602082019050818103600083015261322281612d4d565b9050919050565b6000602082019050818103600083015261324281612d8d565b9050919050565b6000602082019050818103600083015261326281612dcd565b9050919050565b6000602082019050818103600083015261328281612e33565b9050919050565b600060208201905081810360008301526132a281612e99565b9050919050565b600060208201905081810360008301526132c281612eff565b9050919050565b600060208201905081810360008301526132e281612f3f565b9050919050565b6000602082019050818103600083015261330281612f7f565b9050919050565b6000602082019050818103600083015261332281612fbf565b9050919050565b6000602082019050818103600083015261334281612fff565b9050919050565b600060208201905081810360008301526133628161303f565b9050919050565b600060208201905061337e600083018461307f565b92915050565b6000604051905081810181811067ffffffffffffffff821117156133ab576133aa6135d1565b5b8060405250919050565b600067ffffffffffffffff8211156133d0576133cf6135d1565b5b601f19601f8301169050602081019050919050565b6000819050602082019050919050565b600081519050919050565b600081519050919050565b6000602082019050919050565b600082825260208201905092915050565b600082825260208201905092915050565b6000613445826134ac565b9150613450836134ac565b92508282101561346357613462613573565b5b828203905092915050565b60006134798261348c565b9050919050565b60008115159050919050565b600073ffffffffffffffffffffffffffffffffffffffff82169050919050565b6000819050919050565b82818337600083830152505050565b60005b838110156134e35780820151818401526020810190506134c8565b838111156134f2576000848401525b50505050565b6000600282049050600182168061351057607f821691505b60208210811415613524576135236135a2565b5b50919050565b6000613535826134ac565b91507fffffffffffffffffffffffffffffffffffffffffffffffffffffffffffffffff82141561356857613567613573565b5b600182019050919050565b7f4e487b7100000000000000000000000000000000000000000000000000000000600052601160045260246000fd5b7f4e487b7100000000000000000000000000000000000000000000000000000000600052602260045260246000fd5b7f4e487b7100000000000000000000000000000000000000000000000000000000600052604160045260246000fd5b6000601f19601f8301169050919050565b61361a8161346e565b811461362557600080fd5b50565b613631816134ac565b811461363c57600080fd5b5056fea2646970667358221220bc1324bac7f3f480bdee449d70e6f9c7805032e2c4b560fa503befd93ae5d9c164736f6c63430008000033",
  "immutableReferences": {},
  "source": "// SPDX-License-Identifier: MIT\r\npragma solidity ^0.8.0;\r\n\r\ncontract Payroll {\r\n    address public owner;\r\n    address[] public pendingAdmins;\r\n    address[] public pendingEmployees;\r\n    address[] public approvedEmployees; // New array to store approved employees\r\n\r\n    struct PayrollRecord {\r\n        string ipfsHash; // IPFS hash of the encrypted payroll data\r\n        address employee; // Employee address\r\n        address employer; // Employer address\r\n    }\r\n\r\n    struct AdminRequest {\r\n        string name;\r\n        uint256 employeeId;\r\n        string email;\r\n        bool approved;\r\n    }\r\n\r\n    struct EmployeeRequest {\r\n        string ipfsHash; // IPFS hash of employee data\r\n        bool approved;\r\n    }\r\n\r\n    mapping(address => bool) public admins;\r\n    mapping(address => string) public adminNames;\r\n    mapping(address => uint256) public adminEmployeeIds;\r\n    mapping(address => string) public adminEmails;\r\n    mapping(uint256 => PayrollRecord) public payrollRecords;\r\n    mapping(address => mapping(uint256 => bool)) public accessPermissions;\r\n    mapping(address => AdminRequest) public adminRequests;\r\n    mapping(address => EmployeeRequest) public employeeRequests;\r\n    mapping(address => string) public employeeDataHashes; // IPFS hash of employee data\r\n\r\n    // Events\r\n    event EmployeeRegistered(address indexed employee, string ipfsHash);\r\n    event EmployeeApproved(address indexed employee);\r\n\r\n    // Constructor to set the owner during deployment\r\n    constructor() {\r\n        owner = msg.sender;\r\n    }\r\n\r\n    // Function to verify if an address is the owner\r\n    function verifyOwner(address _address) external view returns (bool) {\r\n        return _address == owner;\r\n    }\r\n\r\n    // Function to request admin role\r\n    function requestAdminRole(string memory _name, uint256 _employeeId, string memory _email) external {\r\n        require(!admins[msg.sender], \"You are already an admin.\");\r\n        require(adminRequests[msg.sender].employeeId == 0, \"You have already submitted a request.\");\r\n\r\n        adminRequests[msg.sender] = AdminRequest({\r\n            name: _name,\r\n            employeeId: _employeeId,\r\n            email: _email,\r\n            approved: false\r\n        });\r\n    }\r\n\r\n    // Function to get pending admin requests\r\n    function getPendingAdmins() external view returns (address[] memory) {\r\n        return pendingAdmins;\r\n    }\r\n\r\n    // Function to approve an admin request (only owner can call this)\r\n    function approveAdmin(address _adminAddress) external {\r\n        require(msg.sender == owner, \"Only owner can approve admins.\");\r\n        require(adminRequests[_adminAddress].employeeId != 0, \"No request found for this address.\");\r\n        require(!adminRequests[_adminAddress].approved, \"Request already approved.\");\r\n\r\n        admins[_adminAddress] = true;\r\n        adminNames[_adminAddress] = adminRequests[_adminAddress].name;\r\n        adminEmployeeIds[_adminAddress] = adminRequests[_adminAddress].employeeId;\r\n        adminEmails[_adminAddress] = adminRequests[_adminAddress].email;\r\n        adminRequests[_adminAddress].approved = true;\r\n\r\n        // Remove the approved admin from the pendingAdmins array\r\n        for (uint i = 0; i < pendingAdmins.length; i++) {\r\n            if (pendingAdmins[i] == _adminAddress) {\r\n                pendingAdmins[i] = pendingAdmins[pendingAdmins.length - 1];\r\n                pendingAdmins.pop();\r\n                break;\r\n            }\r\n        }\r\n    }\r\n\r\n    // Function to verify if an address is an admin\r\n    function isAdmin(address _address) external view returns (bool) {\r\n        return admins[_address];\r\n    }\r\n\r\n    // Function to reject an admin request\r\n    function rejectAdmin(address _adminAddress) external {\r\n        require(msg.sender == owner, \"Only owner can reject admins.\");\r\n        require(adminRequests[_adminAddress].employeeId != 0, \"No request found for this address.\");\r\n        require(!adminRequests[_adminAddress].approved, \"Request already approved.\");\r\n\r\n        // Remove the rejected admin from the pendingAdmins array\r\n        for (uint i = 0; i < pendingAdmins.length; i++) {\r\n            if (pendingAdmins[i] == _adminAddress) {\r\n                pendingAdmins[i] = pendingAdmins[pendingAdmins.length - 1];\r\n                pendingAdmins.pop();\r\n                break;\r\n            }\r\n        }\r\n\r\n        // Delete the admin request\r\n        delete adminRequests[_adminAddress];\r\n    }\r\n\r\n    // Function for employees to register and submit their data\r\n    function registerEmployee(string memory ipfsHash) external {\r\n        require(!employeeRequests[msg.sender].approved, \"Employee already registered.\");\r\n        require(bytes(ipfsHash).length > 0, \"IPFS hash cannot be empty.\");\r\n\r\n        employeeRequests[msg.sender] = EmployeeRequest({\r\n            ipfsHash: ipfsHash,\r\n            approved: false\r\n        });\r\n\r\n        pendingEmployees.push(msg.sender);\r\n        emit EmployeeRegistered(msg.sender, ipfsHash);\r\n    }\r\n\r\n    // Function for admins to approve employee requests\r\n    function approveEmployee(address employee) external {\r\n        require(admins[msg.sender], \"Only admin can approve employees.\");\r\n        require(!employeeRequests[employee].approved, \"Employee already approved.\");\r\n        require(bytes(employeeRequests[employee].ipfsHash).length > 0, \"No request found for this employee.\");\r\n\r\n        employeeRequests[employee].approved = true;\r\n        employeeDataHashes[employee] = employeeRequests[employee].ipfsHash;\r\n\r\n        // Add the employee to the approvedEmployees array\r\n        approvedEmployees.push(employee);\r\n\r\n        // Remove the approved employee from the pendingEmployees array\r\n        for (uint i = 0; i < pendingEmployees.length; i++) {\r\n            if (pendingEmployees[i] == employee) {\r\n                pendingEmployees[i] = pendingEmployees[pendingEmployees.length - 1];\r\n                pendingEmployees.pop();\r\n                break;\r\n            }\r\n        }\r\n\r\n        emit EmployeeApproved(employee);\r\n    }\r\n\r\n    // Function to get pending employee requests\r\n    function getPendingEmployees() external view returns (address[] memory) {\r\n        return pendingEmployees;\r\n    }\r\n\r\n    // Function to get approved employees\r\n    function getApprovedEmployees() external view returns (address[] memory) {\r\n        return approvedEmployees;\r\n    }\r\n\r\n    // Function to get employee data hash\r\n    function getEmployeeDataHash(address employee) external view returns (string memory) {\r\n        return employeeDataHashes[employee];\r\n    }\r\n\r\n    modifier onlyEmployer(uint256 recordId) {\r\n        require(payrollRecords[recordId].employer == msg.sender, \"Not the employer\");\r\n        _;\r\n    }\r\n\r\n    // Add a new payroll record\r\n    function addPayrollRecord(uint256 recordId, string memory ipfsHash, address employee) public {\r\n        payrollRecords[recordId] = PayrollRecord(ipfsHash, employee, msg.sender);\r\n    }\r\n\r\n    // Grant access to an employee\r\n    function grantAccess(uint256 recordId, address employee) public onlyEmployer(recordId) {\r\n        accessPermissions[employee][recordId] = true;\r\n    }\r\n\r\n    // Revoke access from an employee\r\n    function revokeAccess(uint256 recordId, address employee) public onlyEmployer(recordId) {\r\n        accessPermissions[employee][recordId] = false;\r\n    }\r\n\r\n    // Get the IPFS hash of a payroll record\r\n    function getPayrollRecord(uint256 recordId) public view returns (string memory) {\r\n        require(accessPermissions[msg.sender][recordId], \"Not authorized\");\r\n        return payrollRecords[recordId].ipfsHash;\r\n    }\r\n}",
  "sourcePath": "C:\\Shalvi\\PayrollManagement_Blockchain\\payroll-smart-contract\\contracts\\Payroll.sol",
  "compiler": {
    "name": "solc",
    "version": "0.8.0+commit.c7dfd78e.Emscripten.clang"
  },
  "schemaVersion": "3.4.16",
  "updatedAt": "2025-03-20T22:13:37.394Z",
  "networkType": "ethereum",
  "devdoc": {
    "kind": "dev",
    "methods": {},
    "version": 1
  },
  "userdoc": {
    "kind": "user",
    "methods": {},
    "version": 1
  }
}