{
  "contractName": "Payroll",
  "abi": [
    {
      "inputs": [],
      "stateMutability": "nonpayable",
      "type": "constructor"
    },
    {
      "anonymous": false,
      "inputs": [
        {
          "indexed": true,
          "internalType": "address",
          "name": "adminAddress",
          "type": "address"
        }
      ],
      "name": "AdminApproved",
      "type": "event"
    },
    {
      "anonymous": false,
      "inputs": [
        {
          "indexed": true,
          "internalType": "address",
          "name": "adminAddress",
          "type": "address"
        }
      ],
      "name": "AdminRejected",
      "type": "event"
    },
    {
      "anonymous": false,
      "inputs": [
        {
          "indexed": true,
          "internalType": "address",
          "name": "adminAddress",
          "type": "address"
        },
        {
          "indexed": false,
          "internalType": "string",
          "name": "name",
          "type": "string"
        },
        {
          "indexed": false,
          "internalType": "uint256",
          "name": "employeeId",
          "type": "uint256"
        },
        {
          "indexed": false,
          "internalType": "string",
          "name": "email",
          "type": "string"
        }
      ],
      "name": "AdminRequested",
      "type": "event"
    },
    {
      "anonymous": false,
      "inputs": [
        {
          "indexed": true,
          "internalType": "address",
          "name": "employee",
          "type": "address"
        }
      ],
      "name": "EmployeeApproved",
      "type": "event"
    },
    {
      "anonymous": false,
      "inputs": [
        {
          "indexed": true,
          "internalType": "address",
          "name": "employee",
          "type": "address"
        },
        {
          "indexed": false,
          "internalType": "string",
          "name": "ipfsHash",
          "type": "string"
        }
      ],
      "name": "EmployeeRegistered",
      "type": "event"
    },
    {
      "anonymous": false,
      "inputs": [
        {
          "indexed": true,
          "internalType": "address",
          "name": "employee",
          "type": "address"
        }
      ],
      "name": "EmployeeRejected",
      "type": "event"
    },
    {
      "inputs": [
        {
          "internalType": "address",
          "name": "",
          "type": "address"
        },
        {
          "internalType": "uint256",
          "name": "",
          "type": "uint256"
        }
      ],
      "name": "accessPermissions",
      "outputs": [
        {
          "internalType": "bool",
          "name": "",
          "type": "bool"
        }
      ],
      "stateMutability": "view",
      "type": "function",
      "constant": true
    },
    {
      "inputs": [
        {
          "internalType": "address",
          "name": "",
          "type": "address"
        }
      ],
      "name": "adminEmails",
      "outputs": [
        {
          "internalType": "string",
          "name": "",
          "type": "string"
        }
      ],
      "stateMutability": "view",
      "type": "function",
      "constant": true
    },
    {
      "inputs": [
        {
          "internalType": "address",
          "name": "",
          "type": "address"
        }
      ],
      "name": "adminEmployeeIds",
      "outputs": [
        {
          "internalType": "uint256",
          "name": "",
          "type": "uint256"
        }
      ],
      "stateMutability": "view",
      "type": "function",
      "constant": true
    },
    {
      "inputs": [
        {
          "internalType": "address",
          "name": "",
          "type": "address"
        }
      ],
      "name": "adminNames",
      "outputs": [
        {
          "internalType": "string",
          "name": "",
          "type": "string"
        }
      ],
      "stateMutability": "view",
      "type": "function",
      "constant": true
    },
    {
      "inputs": [
        {
          "internalType": "address",
          "name": "",
          "type": "address"
        }
      ],
      "name": "adminRequests",
      "outputs": [
        {
          "internalType": "string",
          "name": "name",
          "type": "string"
        },
        {
          "internalType": "uint256",
          "name": "employeeId",
          "type": "uint256"
        },
        {
          "internalType": "string",
          "name": "email",
          "type": "string"
        },
        {
          "internalType": "bool",
          "name": "approved",
          "type": "bool"
        }
      ],
      "stateMutability": "view",
      "type": "function",
      "constant": true
    },
    {
      "inputs": [
        {
          "internalType": "address",
          "name": "",
          "type": "address"
        }
      ],
      "name": "admins",
      "outputs": [
        {
          "internalType": "bool",
          "name": "",
          "type": "bool"
        }
      ],
      "stateMutability": "view",
      "type": "function",
      "constant": true
    },
    {
      "inputs": [
        {
          "internalType": "uint256",
          "name": "",
          "type": "uint256"
        }
      ],
      "name": "approvedAdmins",
      "outputs": [
        {
          "internalType": "address",
          "name": "",
          "type": "address"
        }
      ],
      "stateMutability": "view",
      "type": "function",
      "constant": true
    },
    {
      "inputs": [
        {
          "internalType": "uint256",
          "name": "",
          "type": "uint256"
        }
      ],
      "name": "approvedEmployees",
      "outputs": [
        {
          "internalType": "address",
          "name": "",
          "type": "address"
        }
      ],
      "stateMutability": "view",
      "type": "function",
      "constant": true
    },
    {
      "inputs": [
        {
          "internalType": "address",
          "name": "",
          "type": "address"
        }
      ],
      "name": "employeeDataHashes",
      "outputs": [
        {
          "internalType": "string",
          "name": "",
          "type": "string"
        }
      ],
      "stateMutability": "view",
      "type": "function",
      "constant": true
    },
    {
      "inputs": [
        {
          "internalType": "address",
          "name": "",
          "type": "address"
        }
      ],
      "name": "employeeRequests",
      "outputs": [
        {
          "internalType": "string",
          "name": "ipfsHash",
          "type": "string"
        },
        {
          "internalType": "bool",
          "name": "approved",
          "type": "bool"
        }
      ],
      "stateMutability": "view",
      "type": "function",
      "constant": true
    },
    {
      "inputs": [],
      "name": "owner",
      "outputs": [
        {
          "internalType": "address",
          "name": "",
          "type": "address"
        }
      ],
      "stateMutability": "view",
      "type": "function",
      "constant": true
    },
    {
      "inputs": [
        {
          "internalType": "uint256",
          "name": "",
          "type": "uint256"
        }
      ],
      "name": "payrollRecords",
      "outputs": [
        {
          "internalType": "string",
          "name": "ipfsHash",
          "type": "string"
        },
        {
          "internalType": "address",
          "name": "employee",
          "type": "address"
        },
        {
          "internalType": "address",
          "name": "employer",
          "type": "address"
        }
      ],
      "stateMutability": "view",
      "type": "function",
      "constant": true
    },
    {
      "inputs": [
        {
          "internalType": "uint256",
          "name": "",
          "type": "uint256"
        }
      ],
      "name": "pendingAdmins",
      "outputs": [
        {
          "internalType": "address",
          "name": "",
          "type": "address"
        }
      ],
      "stateMutability": "view",
      "type": "function",
      "constant": true
    },
    {
      "inputs": [
        {
          "internalType": "uint256",
          "name": "",
          "type": "uint256"
        }
      ],
      "name": "pendingEmployees",
      "outputs": [
        {
          "internalType": "address",
          "name": "",
          "type": "address"
        }
      ],
      "stateMutability": "view",
      "type": "function",
      "constant": true
    },
    {
      "inputs": [
        {
          "internalType": "address",
          "name": "_address",
          "type": "address"
        }
      ],
      "name": "verifyOwner",
      "outputs": [
        {
          "internalType": "bool",
          "name": "",
          "type": "bool"
        }
      ],
      "stateMutability": "view",
      "type": "function",
      "constant": true
    },
    {
      "inputs": [
        {
          "internalType": "string",
          "name": "_name",
          "type": "string"
        },
        {
          "internalType": "uint256",
          "name": "_employeeId",
          "type": "uint256"
        },
        {
          "internalType": "string",
          "name": "_email",
          "type": "string"
        }
      ],
      "name": "requestAdminRole",
      "outputs": [],
      "stateMutability": "nonpayable",
      "type": "function"
    },
    {
      "inputs": [
        {
          "internalType": "address",
          "name": "_address",
          "type": "address"
        }
      ],
      "name": "isAdmin",
      "outputs": [
        {
          "internalType": "bool",
          "name": "",
          "type": "bool"
        }
      ],
      "stateMutability": "view",
      "type": "function",
      "constant": true
    },
    {
      "inputs": [
        {
          "internalType": "address",
          "name": "_adminAddress",
          "type": "address"
        }
      ],
      "name": "approveAdmin",
      "outputs": [],
      "stateMutability": "nonpayable",
      "type": "function"
    },
    {
      "inputs": [],
      "name": "getPendingAdmins",
      "outputs": [
        {
          "internalType": "address[]",
          "name": "",
          "type": "address[]"
        }
      ],
      "stateMutability": "view",
      "type": "function",
      "constant": true
    },
    {
      "inputs": [
        {
          "internalType": "address",
          "name": "_adminAddress",
          "type": "address"
        }
      ],
      "name": "rejectAdmin",
      "outputs": [],
      "stateMutability": "nonpayable",
      "type": "function"
    },
    {
      "inputs": [],
      "name": "getApprovedAdmins",
      "outputs": [
        {
          "internalType": "address[]",
          "name": "",
          "type": "address[]"
        }
      ],
      "stateMutability": "view",
      "type": "function",
      "constant": true
    },
    {
      "inputs": [
        {
          "internalType": "string",
          "name": "ipfsHash",
          "type": "string"
        }
      ],
      "name": "registerEmployee",
      "outputs": [],
      "stateMutability": "nonpayable",
      "type": "function"
    },
    {
      "inputs": [
        {
          "internalType": "address",
          "name": "employee",
          "type": "address"
        }
      ],
      "name": "approveEmployee",
      "outputs": [],
      "stateMutability": "nonpayable",
      "type": "function"
    },
    {
      "inputs": [
        {
          "internalType": "address",
          "name": "employee",
          "type": "address"
        }
      ],
      "name": "rejectEmployee",
      "outputs": [],
      "stateMutability": "nonpayable",
      "type": "function"
    },
    {
      "inputs": [],
      "name": "getPendingEmployees",
      "outputs": [
        {
          "internalType": "address[]",
          "name": "",
          "type": "address[]"
        }
      ],
      "stateMutability": "view",
      "type": "function",
      "constant": true
    },
    {
      "inputs": [],
      "name": "getApprovedEmployees",
      "outputs": [
        {
          "internalType": "address[]",
          "name": "",
          "type": "address[]"
        }
      ],
      "stateMutability": "view",
      "type": "function",
      "constant": true
    },
    {
      "inputs": [
        {
          "internalType": "address",
          "name": "employee",
          "type": "address"
        }
      ],
      "name": "getEmployeeDetails",
      "outputs": [
        {
          "components": [
            {
              "internalType": "string",
              "name": "ipfsHash",
              "type": "string"
            },
            {
              "internalType": "bool",
              "name": "approved",
              "type": "bool"
            }
          ],
          "internalType": "struct Payroll.EmployeeRequest",
          "name": "",
          "type": "tuple"
        }
      ],
      "stateMutability": "view",
      "type": "function",
      "constant": true
    },
    {
      "inputs": [
        {
          "internalType": "uint256",
          "name": "recordId",
          "type": "uint256"
        },
        {
          "internalType": "string",
          "name": "ipfsHash",
          "type": "string"
        },
        {
          "internalType": "address",
          "name": "employee",
          "type": "address"
        }
      ],
      "name": "addPayrollRecord",
      "outputs": [],
      "stateMutability": "nonpayable",
      "type": "function"
    },
    {
      "inputs": [
        {
          "internalType": "uint256",
          "name": "recordId",
          "type": "uint256"
        },
        {
          "internalType": "address",
          "name": "employee",
          "type": "address"
        }
      ],
      "name": "grantAccess",
      "outputs": [],
      "stateMutability": "nonpayable",
      "type": "function"
    },
    {
      "inputs": [
        {
          "internalType": "uint256",
          "name": "recordId",
          "type": "uint256"
        },
        {
          "internalType": "address",
          "name": "employee",
          "type": "address"
        }
      ],
      "name": "revokeAccess",
      "outputs": [],
      "stateMutability": "nonpayable",
      "type": "function"
    },
    {
      "inputs": [
        {
          "internalType": "uint256",
          "name": "recordId",
          "type": "uint256"
        }
      ],
      "name": "getPayrollRecord",
      "outputs": [
        {
          "internalType": "string",
          "name": "",
          "type": "string"
        }
      ],
      "stateMutability": "view",
      "type": "function",
      "constant": true
    }
  ],
  "bytecode": "0x608060405234801561001057600080fd5b50336000806101000a81548173ffffffffffffffffffffffffffffffffffffffff021916908373ffffffffffffffffffffffffffffffffffffffff160217905550613f8f806100606000396000f3fe608060405234801561001057600080fd5b50600436106101e55760003560e01c806370ac90671161010f578063a58edf09116100a2578063d501817a11610071578063d501817a14610606578063d9a5ec1b14610636578063e31bf91d14610652578063fc19c04014610682576101e5565b8063a58edf091461057e578063add34bde146105ae578063b5c1b0a9146105cc578063c6b7d3d8146105ea576101e5565b80638c85cd85116100de5780638c85cd85146104e25780638da5cb5b14610512578063956c2dcc14610530578063964ce51e14610560576101e5565b806370ac90671461044857806374ca47c71461047a5780637ae7523f146104aa5780637d341df6146104c6576101e5565b80633234a484116101875780635c58e776116101565780635c58e776146103c457806360cac224146103f457806365dd152c146104105780636d73e6691461042c576101e5565b80633234a484146103135780633c48aa7914610343578063429b62e514610376578063459ad834146103a6576101e5565b80631caafcf1116101c35780631caafcf1146102675780631d2613de1461029757806324d7806c146102b35780632bf35b34146102e3576101e5565b80630e66848d146101ea57806315dab9bb1461021b5780631ba04cc714610237575b600080fd5b61020460048036038101906101ff91906130d7565b6106b2565b604051610212929190613988565b60405180910390f35b610235600480360381019061023091906130d7565b61076b565b005b610251600480360381019061024c91906130d7565b610bb4565b60405161025e9190613928565b60405180910390f35b610281600480360381019061027c91906130d7565b610c54565b60405161028e9190613c50565b60405180910390f35b6102b160048036038101906102ac91906130d7565b610d5a565b005b6102cd60048036038101906102c891906130d7565b6112ca565b6040516102da919061390d565b60405180910390f35b6102fd60048036038101906102f891906130d7565b611320565b60405161030a9190613928565b60405180910390f35b61032d600480360381019061032891906131fc565b6113c0565b60405161033a91906138d0565b60405180910390f35b61035d600480360381019061035891906130d7565b6113ff565b60405161036d94939291906139fd565b60405180910390f35b610390600480360381019061038b91906130d7565b61154c565b60405161039d919061390d565b60405180910390f35b6103ae61156c565b6040516103bb91906138eb565b60405180910390f35b6103de60048036038101906103d991906130d7565b6115fa565b6040516103eb9190613c72565b60405180910390f35b61040e6004803603810190610409919061313c565b611612565b005b61042a60048036038101906104259190613225565b611831565b005b610446600480360381019061044191906130d7565b611944565b005b610462600480360381019061045d91906131fc565b612020565b6040516104719392919061394a565b60405180910390f35b610494600480360381019061048f91906131fc565b612112565b6040516104a191906138d0565b60405180910390f35b6104c460048036038101906104bf91906130d7565b612151565b005b6104e060048036038101906104db9190613261565b61253f565b005b6104fc60048036038101906104f791906130d7565b61264c565b604051610509919061390d565b60405180910390f35b61051a6126a5565b60405161052791906138d0565b60405180910390f35b61054a600480360381019061054591906130d7565b6126c9565b6040516105579190613928565b60405180910390f35b610568612769565b60405161057591906138eb565b60405180910390f35b610598600480360381019061059391906131fc565b6127f7565b6040516105a591906138d0565b60405180910390f35b6105b6612836565b6040516105c391906138eb565b60405180910390f35b6105d46128c4565b6040516105e191906138eb565b60405180910390f35b61060460048036038101906105ff919061317d565b612952565b005b610620600480360381019061061b9190613100565b612bf3565b60405161062d919061390d565b60405180910390f35b610650600480360381019061064b9190613225565b612c22565b005b61066c600480360381019061066791906131fc565b612d35565b60405161067991906138d0565b60405180910390f35b61069c600480360381019061069791906131fc565b612d74565b6040516106a99190613928565b60405180910390f35b600c6020528060005260406000206000915090508060000180546106d590613e12565b80601f016020809104026020016040519081016040528092919081815260200182805461070190613e12565b801561074e5780601f106107235761010080835404028352916020019161074e565b820191906000526020600020905b81548152906001019060200180831161073157829003601f168201915b5050505050908060010160009054906101000a900460ff16905082565b60008054906101000a900473ffffffffffffffffffffffffffffffffffffffff1673ffffffffffffffffffffffffffffffffffffffff163373ffffffffffffffffffffffffffffffffffffffff16146107f9576040517f08c379a00000000000000000000000000000000000000000000000000000000081526004016107f090613ab0565b60405180910390fd5b6000600b60008373ffffffffffffffffffffffffffffffffffffffff1673ffffffffffffffffffffffffffffffffffffffff16815260200190815260200160002060010154141561087f576040517f08c379a000000000000000000000000000000000000000000000000000000000815260040161087690613a70565b60405180910390fd5b600b60008273ffffffffffffffffffffffffffffffffffffffff1673ffffffffffffffffffffffffffffffffffffffff16815260200190815260200160002060030160009054906101000a900460ff161561090f576040517f08c379a000000000000000000000000000000000000000000000000000000000815260040161090690613a50565b60405180910390fd5b60005b600180549050811015610b32578173ffffffffffffffffffffffffffffffffffffffff1660018281548110610970577f4e487b7100000000000000000000000000000000000000000000000000000000600052603260045260246000fd5b9060005260206000200160009054906101000a900473ffffffffffffffffffffffffffffffffffffffff1673ffffffffffffffffffffffffffffffffffffffff161415610b1f5760018080805490506109c99190613d54565b81548110610a00577f4e487b7100000000000000000000000000000000000000000000000000000000600052603260045260246000fd5b9060005260206000200160009054906101000a900473ffffffffffffffffffffffffffffffffffffffff1660018281548110610a65577f4e487b7100000000000000000000000000000000000000000000000000000000600052603260045260246000fd5b9060005260206000200160006101000a81548173ffffffffffffffffffffffffffffffffffffffff021916908373ffffffffffffffffffffffffffffffffffffffff1602179055506001805480610ae5577f4e487b7100000000000000000000000000000000000000000000000000000000600052603160045260246000fd5b6001900381819060005260206000200160006101000a81549073ffffffffffffffffffffffffffffffffffffffff02191690559055610b32565b8080610b2a90613e44565b915050610912565b50600b60008273ffffffffffffffffffffffffffffffffffffffff1673ffffffffffffffffffffffffffffffffffffffff16815260200190815260200160002060008082016000610b839190612eb9565b6001820160009055600282016000610b9b9190612eb9565b6003820160006101000a81549060ff0219169055505050565b60086020528060005260406000206000915090508054610bd390613e12565b80601f0160208091040260200160405190810160405280929190818152602001828054610bff90613e12565b8015610c4c5780601f10610c2157610100808354040283529160200191610c4c565b820191906000526020600020905b815481529060010190602001808311610c2f57829003601f168201915b505050505081565b610c5c612ef9565b600c60008373ffffffffffffffffffffffffffffffffffffffff1673ffffffffffffffffffffffffffffffffffffffff168152602001908152602001600020604051806040016040529081600082018054610cb690613e12565b80601f0160208091040260200160405190810160405280929190818152602001828054610ce290613e12565b8015610d2f5780601f10610d0457610100808354040283529160200191610d2f565b820191906000526020600020905b815481529060010190602001808311610d1257829003601f168201915b505050505081526020016001820160009054906101000a900460ff1615151515815250509050919050565b600560003373ffffffffffffffffffffffffffffffffffffffff1673ffffffffffffffffffffffffffffffffffffffff16815260200190815260200160002060009054906101000a900460ff16610de6576040517f08c379a0000000000000000000000000000000000000000000000000000000008152600401610ddd90613af0565b60405180910390fd5b600c60008273ffffffffffffffffffffffffffffffffffffffff1673ffffffffffffffffffffffffffffffffffffffff16815260200190815260200160002060010160009054906101000a900460ff1615610e76576040517f08c379a0000000000000000000000000000000000000000000000000000000008152600401610e6d90613c10565b60405180910390fd5b6000600c60008373ffffffffffffffffffffffffffffffffffffffff1673ffffffffffffffffffffffffffffffffffffffff1681526020019081526020016000206000018054610ec590613e12565b905011610f07576040517f08c379a0000000000000000000000000000000000000000000000000000000008152600401610efe90613ad0565b60405180910390fd5b6001600c60008373ffffffffffffffffffffffffffffffffffffffff1673ffffffffffffffffffffffffffffffffffffffff16815260200190815260200160002060010160006101000a81548160ff021916908315150217905550600c60008273ffffffffffffffffffffffffffffffffffffffff1673ffffffffffffffffffffffffffffffffffffffff168152602001908152602001600020600001600d60008373ffffffffffffffffffffffffffffffffffffffff1673ffffffffffffffffffffffffffffffffffffffff168152602001908152602001600020908054610fef90613e12565b610ffa929190612f15565b506003819080600181540180825580915050600190039060005260206000200160009091909190916101000a81548173ffffffffffffffffffffffffffffffffffffffff021916908373ffffffffffffffffffffffffffffffffffffffff16021790555060005b600280549050811015611283578173ffffffffffffffffffffffffffffffffffffffff16600282815481106110bf577f4e487b7100000000000000000000000000000000000000000000000000000000600052603260045260246000fd5b9060005260206000200160009054906101000a900473ffffffffffffffffffffffffffffffffffffffff1673ffffffffffffffffffffffffffffffffffffffff161415611270576002600160028054905061111a9190613d54565b81548110611151577f4e487b7100000000000000000000000000000000000000000000000000000000600052603260045260246000fd5b9060005260206000200160009054906101000a900473ffffffffffffffffffffffffffffffffffffffff16600282815481106111b6577f4e487b7100000000000000000000000000000000000000000000000000000000600052603260045260246000fd5b9060005260206000200160006101000a81548173ffffffffffffffffffffffffffffffffffffffff021916908373ffffffffffffffffffffffffffffffffffffffff1602179055506002805480611236577f4e487b7100000000000000000000000000000000000000000000000000000000600052603160045260246000fd5b6001900381819060005260206000200160006101000a81549073ffffffffffffffffffffffffffffffffffffffff02191690559055611283565b808061127b90613e44565b915050611061565b508073ffffffffffffffffffffffffffffffffffffffff167f52fc9bbf272c9663e2f72e32ebbd87b584e1015d97d62c96a47d445f8460cac160405160405180910390a250565b6000600560008373ffffffffffffffffffffffffffffffffffffffff1673ffffffffffffffffffffffffffffffffffffffff16815260200190815260200160002060009054906101000a900460ff169050919050565b6006602052806000526040600020600091509050805461133f90613e12565b80601f016020809104026020016040519081016040528092919081815260200182805461136b90613e12565b80156113b85780601f1061138d576101008083540402835291602001916113b8565b820191906000526020600020905b81548152906001019060200180831161139b57829003601f168201915b505050505081565b600381815481106113d057600080fd5b906000526020600020016000915054906101000a900473ffffffffffffffffffffffffffffffffffffffff1681565b600b60205280600052604060002060009150905080600001805461142290613e12565b80601f016020809104026020016040519081016040528092919081815260200182805461144e90613e12565b801561149b5780601f106114705761010080835404028352916020019161149b565b820191906000526020600020905b81548152906001019060200180831161147e57829003601f168201915b5050505050908060010154908060020180546114b690613e12565b80601f01602080910402602001604051908101604052809291908181526020018280546114e290613e12565b801561152f5780601f106115045761010080835404028352916020019161152f565b820191906000526020600020905b81548152906001019060200180831161151257829003601f168201915b5050505050908060030160009054906101000a900460ff16905084565b60056020528060005260406000206000915054906101000a900460ff1681565b606060048054806020026020016040519081016040528092919081815260200182805480156115f057602002820191906000526020600020905b8160009054906101000a900473ffffffffffffffffffffffffffffffffffffffff1673ffffffffffffffffffffffffffffffffffffffff16815260200190600101908083116115a6575b5050505050905090565b60076020528060005260406000206000915090505481565b600c60003373ffffffffffffffffffffffffffffffffffffffff1673ffffffffffffffffffffffffffffffffffffffff16815260200190815260200160002060010160009054906101000a900460ff16156116a2576040517f08c379a000000000000000000000000000000000000000000000000000000000815260040161169990613b70565b60405180910390fd5b60008151116116e6576040517f08c379a00000000000000000000000000000000000000000000000000000000081526004016116dd90613bd0565b60405180910390fd5b604051806040016040528082815260200160001515815250600c60003373ffffffffffffffffffffffffffffffffffffffff1673ffffffffffffffffffffffffffffffffffffffff1681526020019081526020016000206000820151816000019080519060200190611759929190612fa2565b5060208201518160010160006101000a81548160ff0219169083151502179055509050506002339080600181540180825580915050600190039060005260206000200160009091909190916101000a81548173ffffffffffffffffffffffffffffffffffffffff021916908373ffffffffffffffffffffffffffffffffffffffff1602179055503373ffffffffffffffffffffffffffffffffffffffff167f7657087667750afe9a0e3b2a3d756e2a2b4f696c3d71141eb99420bcc2f1e231826040516118269190613928565b60405180910390a250565b813373ffffffffffffffffffffffffffffffffffffffff166009600083815260200190815260200160002060020160009054906101000a900473ffffffffffffffffffffffffffffffffffffffff1673ffffffffffffffffffffffffffffffffffffffff16146118d6576040517f08c379a00000000000000000000000000000000000000000000000000000000081526004016118cd90613a90565b60405180910390fd5b6001600a60008473ffffffffffffffffffffffffffffffffffffffff1673ffffffffffffffffffffffffffffffffffffffff168152602001908152602001600020600085815260200190815260200160002060006101000a81548160ff021916908315150217905550505050565b60008054906101000a900473ffffffffffffffffffffffffffffffffffffffff1673ffffffffffffffffffffffffffffffffffffffff163373ffffffffffffffffffffffffffffffffffffffff16146119d2576040517f08c379a00000000000000000000000000000000000000000000000000000000081526004016119c990613bf0565b60405180910390fd5b6000600b60008373ffffffffffffffffffffffffffffffffffffffff1673ffffffffffffffffffffffffffffffffffffffff168152602001908152602001600020600101541415611a58576040517f08c379a0000000000000000000000000000000000000000000000000000000008152600401611a4f90613b10565b60405180910390fd5b600b60008273ffffffffffffffffffffffffffffffffffffffff1673ffffffffffffffffffffffffffffffffffffffff16815260200190815260200160002060030160009054906101000a900460ff1615611ae8576040517f08c379a0000000000000000000000000000000000000000000000000000000008152600401611adf90613b90565b60405180910390fd5b6001600560008373ffffffffffffffffffffffffffffffffffffffff1673ffffffffffffffffffffffffffffffffffffffff16815260200190815260200160002060006101000a81548160ff021916908315150217905550600b60008273ffffffffffffffffffffffffffffffffffffffff1673ffffffffffffffffffffffffffffffffffffffff168152602001908152602001600020600001600660008373ffffffffffffffffffffffffffffffffffffffff1673ffffffffffffffffffffffffffffffffffffffff168152602001908152602001600020908054611bcd90613e12565b611bd8929190612f15565b50600b60008273ffffffffffffffffffffffffffffffffffffffff1673ffffffffffffffffffffffffffffffffffffffff16815260200190815260200160002060010154600760008373ffffffffffffffffffffffffffffffffffffffff1673ffffffffffffffffffffffffffffffffffffffff16815260200190815260200160002081905550600b60008273ffffffffffffffffffffffffffffffffffffffff1673ffffffffffffffffffffffffffffffffffffffff168152602001908152602001600020600201600860008373ffffffffffffffffffffffffffffffffffffffff1673ffffffffffffffffffffffffffffffffffffffff168152602001908152602001600020908054611cec90613e12565b611cf7929190612f15565b506001600b60008373ffffffffffffffffffffffffffffffffffffffff1673ffffffffffffffffffffffffffffffffffffffff16815260200190815260200160002060030160006101000a81548160ff02191690831515021790555060005b600180549050811015611f76578173ffffffffffffffffffffffffffffffffffffffff1660018281548110611db4577f4e487b7100000000000000000000000000000000000000000000000000000000600052603260045260246000fd5b9060005260206000200160009054906101000a900473ffffffffffffffffffffffffffffffffffffffff1673ffffffffffffffffffffffffffffffffffffffff161415611f63576001808080549050611e0d9190613d54565b81548110611e44577f4e487b7100000000000000000000000000000000000000000000000000000000600052603260045260246000fd5b9060005260206000200160009054906101000a900473ffffffffffffffffffffffffffffffffffffffff1660018281548110611ea9577f4e487b7100000000000000000000000000000000000000000000000000000000600052603260045260246000fd5b9060005260206000200160006101000a81548173ffffffffffffffffffffffffffffffffffffffff021916908373ffffffffffffffffffffffffffffffffffffffff1602179055506001805480611f29577f4e487b7100000000000000000000000000000000000000000000000000000000600052603160045260246000fd5b6001900381819060005260206000200160006101000a81549073ffffffffffffffffffffffffffffffffffffffff02191690559055611f76565b8080611f6e90613e44565b915050611d56565b506004819080600181540180825580915050600190039060005260206000200160009091909190916101000a81548173ffffffffffffffffffffffffffffffffffffffff021916908373ffffffffffffffffffffffffffffffffffffffff1602179055508073ffffffffffffffffffffffffffffffffffffffff167ffabaa80f65af32f62e52c9e7740cc469e3307d1e4afc01ab4b11be61ddef487660405160405180910390a250565b600960205280600052604060002060009150905080600001805461204390613e12565b80601f016020809104026020016040519081016040528092919081815260200182805461206f90613e12565b80156120bc5780601f10612091576101008083540402835291602001916120bc565b820191906000526020600020905b81548152906001019060200180831161209f57829003601f168201915b5050505050908060010160009054906101000a900473ffffffffffffffffffffffffffffffffffffffff16908060020160009054906101000a900473ffffffffffffffffffffffffffffffffffffffff16905083565b6004818154811061212257600080fd5b906000526020600020016000915054906101000a900473ffffffffffffffffffffffffffffffffffffffff1681565b600560003373ffffffffffffffffffffffffffffffffffffffff1673ffffffffffffffffffffffffffffffffffffffff16815260200190815260200160002060009054906101000a900460ff166121dd576040517f08c379a00000000000000000000000000000000000000000000000000000000081526004016121d490613b50565b60405180910390fd5b600c60008273ffffffffffffffffffffffffffffffffffffffff1673ffffffffffffffffffffffffffffffffffffffff16815260200190815260200160002060010160009054906101000a900460ff161561226d576040517f08c379a000000000000000000000000000000000000000000000000000000000815260040161226490613c10565b60405180910390fd5b60005b600280549050811015612492578173ffffffffffffffffffffffffffffffffffffffff16600282815481106122ce577f4e487b7100000000000000000000000000000000000000000000000000000000600052603260045260246000fd5b9060005260206000200160009054906101000a900473ffffffffffffffffffffffffffffffffffffffff1673ffffffffffffffffffffffffffffffffffffffff16141561247f57600260016002805490506123299190613d54565b81548110612360577f4e487b7100000000000000000000000000000000000000000000000000000000600052603260045260246000fd5b9060005260206000200160009054906101000a900473ffffffffffffffffffffffffffffffffffffffff16600282815481106123c5577f4e487b7100000000000000000000000000000000000000000000000000000000600052603260045260246000fd5b9060005260206000200160006101000a81548173ffffffffffffffffffffffffffffffffffffffff021916908373ffffffffffffffffffffffffffffffffffffffff1602179055506002805480612445577f4e487b7100000000000000000000000000000000000000000000000000000000600052603160045260246000fd5b6001900381819060005260206000200160006101000a81549073ffffffffffffffffffffffffffffffffffffffff02191690559055612492565b808061248a90613e44565b915050612270565b50600c60008273ffffffffffffffffffffffffffffffffffffffff1673ffffffffffffffffffffffffffffffffffffffff168152602001908152602001600020600080820160006124e39190612eb9565b6001820160006101000a81549060ff021916905550508073ffffffffffffffffffffffffffffffffffffffff167f3ea7a2184fd07e601e85c2763d5ce0811e5340156854cb97d89922894fce125260405160405180910390a250565b60405180606001604052808381526020018273ffffffffffffffffffffffffffffffffffffffff1681526020013373ffffffffffffffffffffffffffffffffffffffff168152506009600085815260200190815260200160002060008201518160000190805190602001906125b5929190612fa2565b5060208201518160010160006101000a81548173ffffffffffffffffffffffffffffffffffffffff021916908373ffffffffffffffffffffffffffffffffffffffff16021790555060408201518160020160006101000a81548173ffffffffffffffffffffffffffffffffffffffff021916908373ffffffffffffffffffffffffffffffffffffffff160217905550905050505050565b60008060009054906101000a900473ffffffffffffffffffffffffffffffffffffffff1673ffffffffffffffffffffffffffffffffffffffff168273ffffffffffffffffffffffffffffffffffffffff16149050919050565b60008054906101000a900473ffffffffffffffffffffffffffffffffffffffff1681565b600d60205280600052604060002060009150905080546126e890613e12565b80601f016020809104026020016040519081016040528092919081815260200182805461271490613e12565b80156127615780601f1061273657610100808354040283529160200191612761565b820191906000526020600020905b81548152906001019060200180831161274457829003601f168201915b505050505081565b606060028054806020026020016040519081016040528092919081815260200182805480156127ed57602002820191906000526020600020905b8160009054906101000a900473ffffffffffffffffffffffffffffffffffffffff1673ffffffffffffffffffffffffffffffffffffffff16815260200190600101908083116127a3575b5050505050905090565b6001818154811061280757600080fd5b906000526020600020016000915054906101000a900473ffffffffffffffffffffffffffffffffffffffff1681565b606060038054806020026020016040519081016040528092919081815260200182805480156128ba57602002820191906000526020600020905b8160009054906101000a900473ffffffffffffffffffffffffffffffffffffffff1673ffffffffffffffffffffffffffffffffffffffff1681526020019060010190808311612870575b5050505050905090565b6060600180548060200260200160405190810160405280929190818152602001828054801561294857602002820191906000526020600020905b8160009054906101000a900473ffffffffffffffffffffffffffffffffffffffff1673ffffffffffffffffffffffffffffffffffffffff16815260200190600101908083116128fe575b5050505050905090565b600560003373ffffffffffffffffffffffffffffffffffffffff1673ffffffffffffffffffffffffffffffffffffffff16815260200190815260200160002060009054906101000a900460ff16156129df576040517f08c379a00000000000000000000000000000000000000000000000000000000081526004016129d690613bb0565b60405180910390fd5b600b60003373ffffffffffffffffffffffffffffffffffffffff1673ffffffffffffffffffffffffffffffffffffffff16815260200190815260200160002060030160009054906101000a900460ff1615612a6f576040517f08c379a0000000000000000000000000000000000000000000000000000000008152600401612a6690613b30565b60405180910390fd5b604051806080016040528084815260200183815260200182815260200160001515815250600b60003373ffffffffffffffffffffffffffffffffffffffff1673ffffffffffffffffffffffffffffffffffffffff1681526020019081526020016000206000820151816000019080519060200190612aee929190612fa2565b50602082015181600101556040820151816002019080519060200190612b15929190612fa2565b5060608201518160030160006101000a81548160ff0219169083151502179055509050506001339080600181540180825580915050600190039060005260206000200160009091909190916101000a81548173ffffffffffffffffffffffffffffffffffffffff021916908373ffffffffffffffffffffffffffffffffffffffff1602179055503373ffffffffffffffffffffffffffffffffffffffff167f30be33830082aa5fe7b65f3972e0ad3fd5d089aa4bde4a4d9fdfeb305ff24d31848484604051612be6939291906139b8565b60405180910390a2505050565b600a6020528160005260406000206020528060005260406000206000915091509054906101000a900460ff1681565b813373ffffffffffffffffffffffffffffffffffffffff166009600083815260200190815260200160002060020160009054906101000a900473ffffffffffffffffffffffffffffffffffffffff1673ffffffffffffffffffffffffffffffffffffffff1614612cc7576040517f08c379a0000000000000000000000000000000000000000000000000000000008152600401612cbe90613a90565b60405180910390fd5b6000600a60008473ffffffffffffffffffffffffffffffffffffffff1673ffffffffffffffffffffffffffffffffffffffff168152602001908152602001600020600085815260200190815260200160002060006101000a81548160ff021916908315150217905550505050565b60028181548110612d4557600080fd5b906000526020600020016000915054906101000a900473ffffffffffffffffffffffffffffffffffffffff1681565b6060600a60003373ffffffffffffffffffffffffffffffffffffffff1673ffffffffffffffffffffffffffffffffffffffff168152602001908152602001600020600083815260200190815260200160002060009054906101000a900460ff16612e13576040517f08c379a0000000000000000000000000000000000000000000000000000000008152600401612e0a90613c30565b60405180910390fd5b600960008381526020019081526020016000206000018054612e3490613e12565b80601f0160208091040260200160405190810160405280929190818152602001828054612e6090613e12565b8015612ead5780601f10612e8257610100808354040283529160200191612ead565b820191906000526020600020905b815481529060010190602001808311612e9057829003601f168201915b50505050509050919050565b508054612ec590613e12565b6000825580601f10612ed75750612ef6565b601f016020900490600052602060002090810190612ef59190613028565b5b50565b6040518060400160405280606081526020016000151581525090565b828054612f2190613e12565b90600052602060002090601f016020900481019282612f435760008555612f91565b82601f10612f545780548555612f91565b82800160010185558215612f9157600052602060002091601f016020900482015b82811115612f90578254825591600101919060010190612f75565b5b509050612f9e9190613028565b5090565b828054612fae90613e12565b90600052602060002090601f016020900481019282612fd05760008555613017565b82601f10612fe957805160ff1916838001178555613017565b82800160010185558215613017579182015b82811115613016578251825591602001919060010190612ffb565b5b5090506130249190613028565b5090565b5b80821115613041576000816000905550600101613029565b5090565b600061305861305384613cbe565b613c8d565b90508281526020810184848401111561307057600080fd5b61307b848285613dd0565b509392505050565b60008135905061309281613f2b565b92915050565b600082601f8301126130a957600080fd5b81356130b9848260208601613045565b91505092915050565b6000813590506130d181613f42565b92915050565b6000602082840312156130e957600080fd5b60006130f784828501613083565b91505092915050565b6000806040838503121561311357600080fd5b600061312185828601613083565b9250506020613132858286016130c2565b9150509250929050565b60006020828403121561314e57600080fd5b600082013567ffffffffffffffff81111561316857600080fd5b61317484828501613098565b91505092915050565b60008060006060848603121561319257600080fd5b600084013567ffffffffffffffff8111156131ac57600080fd5b6131b886828701613098565b93505060206131c9868287016130c2565b925050604084013567ffffffffffffffff8111156131e657600080fd5b6131f286828701613098565b9150509250925092565b60006020828403121561320e57600080fd5b600061321c848285016130c2565b91505092915050565b6000806040838503121561323857600080fd5b6000613246858286016130c2565b925050602061325785828601613083565b9150509250929050565b60008060006060848603121561327657600080fd5b6000613284868287016130c2565b935050602084013567ffffffffffffffff8111156132a157600080fd5b6132ad86828701613098565b92505060406132be86828701613083565b9150509250925092565b60006132d483836132e0565b60208301905092915050565b6132e981613d88565b82525050565b6132f881613d88565b82525050565b600061330982613cfe565b6133138185613d21565b935061331e83613cee565b8060005b8381101561334f57815161333688826132c8565b975061334183613d14565b925050600181019050613322565b5085935050505092915050565b61336581613d9a565b82525050565b61337481613d9a565b82525050565b600061338582613d09565b61338f8185613d32565b935061339f818560208601613ddf565b6133a881613f1a565b840191505092915050565b60006133be82613d09565b6133c88185613d43565b93506133d8818560208601613ddf565b6133e181613f1a565b840191505092915050565b60006133f9601983613d43565b91507f5265717565737420616c726561647920617070726f7665642e000000000000006000830152602082019050919050565b6000613439602283613d43565b91507f4e6f207265717565737420666f756e6420666f7220746869732061646472657360008301527f732e0000000000000000000000000000000000000000000000000000000000006020830152604082019050919050565b600061349f601083613d43565b91507f4e6f742074686520656d706c6f796572000000000000000000000000000000006000830152602082019050919050565b60006134df601d83613d43565b91507f4f6e6c79206f776e65722063616e2072656a6563742061646d696e732e0000006000830152602082019050919050565b600061351f602383613d43565b91507f4e6f207265717565737420666f756e6420666f72207468697320656d706c6f7960008301527f65652e00000000000000000000000000000000000000000000000000000000006020830152604082019050919050565b6000613585602183613d43565b91507f4f6e6c792061646d696e2063616e20617070726f766520656d706c6f7965657360008301527f2e000000000000000000000000000000000000000000000000000000000000006020830152604082019050919050565b60006135eb601183613d43565b91507f4e6f207265717565737420666f756e642e0000000000000000000000000000006000830152602082019050919050565b600061362b602583613d43565b91507f596f75206861766520616c7265616479207375626d697474656420612072657160008301527f756573742e0000000000000000000000000000000000000000000000000000006020830152604082019050919050565b6000613691602083613d43565b91507f4f6e6c792061646d696e2063616e2072656a65637420656d706c6f796565732e6000830152602082019050919050565b60006136d1601c83613d43565b91507f456d706c6f79656520616c726561647920726567697374657265642e000000006000830152602082019050919050565b6000613711601183613d43565b91507f416c726561647920617070726f7665642e0000000000000000000000000000006000830152602082019050919050565b6000613751601983613d43565b91507f596f752061726520616c726561647920616e2061646d696e2e000000000000006000830152602082019050919050565b6000613791601a83613d43565b91507f4950465320686173682063616e6e6f7420626520656d7074792e0000000000006000830152602082019050919050565b60006137d1601e83613d43565b91507f4f6e6c79206f776e65722063616e20617070726f76652061646d696e732e00006000830152602082019050919050565b6000613811601a83613d43565b91507f456d706c6f79656520616c726561647920617070726f7665642e0000000000006000830152602082019050919050565b6000613851600e83613d43565b91507f4e6f7420617574686f72697a65640000000000000000000000000000000000006000830152602082019050919050565b600060408301600083015184820360008601526138a1828261337a565b91505060208301516138b6602086018261335c565b508091505092915050565b6138ca81613dc6565b82525050565b60006020820190506138e560008301846132ef565b92915050565b6000602082019050818103600083015261390581846132fe565b905092915050565b6000602082019050613922600083018461336b565b92915050565b6000602082019050818103600083015261394281846133b3565b905092915050565b6000606082019050818103600083015261396481866133b3565b905061397360208301856132ef565b61398060408301846132ef565b949350505050565b600060408201905081810360008301526139a281856133b3565b90506139b1602083018461336b565b9392505050565b600060608201905081810360008301526139d281866133b3565b90506139e160208301856138c1565b81810360408301526139f381846133b3565b9050949350505050565b60006080820190508181036000830152613a1781876133b3565b9050613a2660208301866138c1565b8181036040830152613a3881856133b3565b9050613a47606083018461336b565b95945050505050565b60006020820190508181036000830152613a69816133ec565b9050919050565b60006020820190508181036000830152613a898161342c565b9050919050565b60006020820190508181036000830152613aa981613492565b9050919050565b60006020820190508181036000830152613ac9816134d2565b9050919050565b60006020820190508181036000830152613ae981613512565b9050919050565b60006020820190508181036000830152613b0981613578565b9050919050565b60006020820190508181036000830152613b29816135de565b9050919050565b60006020820190508181036000830152613b498161361e565b9050919050565b60006020820190508181036000830152613b6981613684565b9050919050565b60006020820190508181036000830152613b89816136c4565b9050919050565b60006020820190508181036000830152613ba981613704565b9050919050565b60006020820190508181036000830152613bc981613744565b9050919050565b60006020820190508181036000830152613be981613784565b9050919050565b60006020820190508181036000830152613c09816137c4565b9050919050565b60006020820190508181036000830152613c2981613804565b9050919050565b60006020820190508181036000830152613c4981613844565b9050919050565b60006020820190508181036000830152613c6a8184613884565b905092915050565b6000602082019050613c8760008301846138c1565b92915050565b6000604051905081810181811067ffffffffffffffff82111715613cb457613cb3613eeb565b5b8060405250919050565b600067ffffffffffffffff821115613cd957613cd8613eeb565b5b601f19601f8301169050602081019050919050565b6000819050602082019050919050565b600081519050919050565b600081519050919050565b6000602082019050919050565b600082825260208201905092915050565b600082825260208201905092915050565b600082825260208201905092915050565b6000613d5f82613dc6565b9150613d6a83613dc6565b925082821015613d7d57613d7c613e8d565b5b828203905092915050565b6000613d9382613da6565b9050919050565b60008115159050919050565b600073ffffffffffffffffffffffffffffffffffffffff82169050919050565b6000819050919050565b82818337600083830152505050565b60005b83811015613dfd578082015181840152602081019050613de2565b83811115613e0c576000848401525b50505050565b60006002820490506001821680613e2a57607f821691505b60208210811415613e3e57613e3d613ebc565b5b50919050565b6000613e4f82613dc6565b91507fffffffffffffffffffffffffffffffffffffffffffffffffffffffffffffffff821415613e8257613e81613e8d565b5b600182019050919050565b7f4e487b7100000000000000000000000000000000000000000000000000000000600052601160045260246000fd5b7f4e487b7100000000000000000000000000000000000000000000000000000000600052602260045260246000fd5b7f4e487b7100000000000000000000000000000000000000000000000000000000600052604160045260246000fd5b6000601f19601f8301169050919050565b613f3481613d88565b8114613f3f57600080fd5b50565b613f4b81613dc6565b8114613f5657600080fd5b5056fea264697066735822122047895218bebcca18701ce2cd5b5c5fbc864f1a5836979ade7846dc7d448b591d64736f6c63430008000033",
  "immutableReferences": {},
  "source": "// SPDX-License-Identifier: MIT\r\npragma solidity ^0.8.0;\r\n\r\ncontract Payroll {\r\n    address public owner;\r\n    address[] public pendingAdmins;\r\n    address[] public pendingEmployees;\r\n    address[] public approvedEmployees;\r\n    address[] public approvedAdmins; // Track approved admins\r\n\r\n    struct PayrollRecord {\r\n        string ipfsHash;\r\n        address employee;\r\n        address employer;\r\n    }\r\n\r\n    struct AdminRequest {\r\n        string name;\r\n        uint256 employeeId;\r\n        string email;\r\n        bool approved;\r\n    }\r\n\r\n    struct EmployeeRequest {\r\n        string ipfsHash;\r\n        bool approved;\r\n    }\r\n\r\n    mapping(address => bool) public admins;\r\n    mapping(address => string) public adminNames;\r\n    mapping(address => uint256) public adminEmployeeIds;\r\n    mapping(address => string) public adminEmails;\r\n    mapping(uint256 => PayrollRecord) public payrollRecords;\r\n    mapping(address => mapping(uint256 => bool)) public accessPermissions;\r\n    mapping(address => AdminRequest) public adminRequests;\r\n    mapping(address => EmployeeRequest) public employeeRequests;\r\n    mapping(address => string) public employeeDataHashes;\r\n\r\n    event EmployeeRegistered(address indexed employee, string ipfsHash);\r\n    event EmployeeApproved(address indexed employee);\r\n    event EmployeeRejected(address indexed employee);\r\n    event AdminRequested(address indexed adminAddress, string name, uint256 employeeId, string email);\r\n    event AdminApproved(address indexed adminAddress);\r\n    event AdminRejected(address indexed adminAddress);\r\n\r\n\r\n    constructor() {\r\n        owner = msg.sender;\r\n    }\r\n\r\n    function verifyOwner(address _address) external view returns (bool) {\r\n        return _address == owner;\r\n    }\r\n\r\n    function requestAdminRole(string memory _name, uint256 _employeeId, string memory _email) external {\r\n        require(!admins[msg.sender], \"You are already an admin.\");\r\n        require(!adminRequests[msg.sender].approved, \"You have already submitted a request.\");\r\n\r\n        adminRequests[msg.sender] = AdminRequest({\r\n            name: _name,\r\n            employeeId: _employeeId,\r\n            email: _email,\r\n            approved: false\r\n        });\r\n\r\n        pendingAdmins.push(msg.sender);\r\n        emit AdminRequested(msg.sender, _name, _employeeId, _email);\r\n    }\r\n\r\n    function isAdmin(address _address) external view returns (bool) {\r\n        return admins[_address];\r\n    }\r\n\r\n    function approveAdmin(address _adminAddress) external {\r\n        require(msg.sender == owner, \"Only owner can approve admins.\");\r\n        require(adminRequests[_adminAddress].employeeId != 0, \"No request found.\");\r\n        require(!adminRequests[_adminAddress].approved, \"Already approved.\");\r\n\r\n        admins[_adminAddress] = true;\r\n        adminNames[_adminAddress] = adminRequests[_adminAddress].name;\r\n        adminEmployeeIds[_adminAddress] = adminRequests[_adminAddress].employeeId;\r\n        adminEmails[_adminAddress] = adminRequests[_adminAddress].email;\r\n        adminRequests[_adminAddress].approved = true;\r\n\r\n        // Remove from pendingAdmins\r\n        for (uint i = 0; i < pendingAdmins.length; i++) {\r\n            if (pendingAdmins[i] == _adminAddress) {\r\n                pendingAdmins[i] = pendingAdmins[pendingAdmins.length - 1];\r\n                pendingAdmins.pop();\r\n                break;\r\n            }\r\n        }\r\n\r\n        // Add to approvedAdmins\r\n        approvedAdmins.push(_adminAddress);\r\n        emit AdminApproved(_adminAddress);\r\n    }\r\n\r\n    function getPendingAdmins() external view returns (address[] memory) {\r\n        return pendingAdmins;\r\n    }\r\n\r\n    function rejectAdmin(address _adminAddress) external {\r\n        require(msg.sender == owner, \"Only owner can reject admins.\");\r\n        require(adminRequests[_adminAddress].employeeId != 0, \"No request found for this address.\");\r\n        require(!adminRequests[_adminAddress].approved, \"Request already approved.\");\r\n\r\n        for (uint i = 0; i < pendingAdmins.length; i++) {\r\n            if (pendingAdmins[i] == _adminAddress) {\r\n                pendingAdmins[i] = pendingAdmins[pendingAdmins.length - 1];\r\n                pendingAdmins.pop();\r\n                break;\r\n            }\r\n        }\r\n\r\n        delete adminRequests[_adminAddress];\r\n    }\r\n\r\n    function getApprovedAdmins() external view returns (address[] memory) {\r\n        return approvedAdmins; // Now returns the dedicated list\r\n    }\r\n\r\n\r\n\r\n\r\n\r\n\r\n\r\n\r\n\r\n\r\n\r\n\r\n\r\n\r\n\r\n\r\n\r\n\r\n\r\n\r\n\r\n\r\n\r\n\r\n\r\n\r\n\r\n\r\n\r\n\r\n    function registerEmployee(string memory ipfsHash) external {\r\n        require(!employeeRequests[msg.sender].approved, \"Employee already registered.\");\r\n        require(bytes(ipfsHash).length > 0, \"IPFS hash cannot be empty.\");\r\n\r\n        employeeRequests[msg.sender] = EmployeeRequest({\r\n            ipfsHash: ipfsHash,\r\n            approved: false\r\n        });\r\n\r\n        pendingEmployees.push(msg.sender);\r\n        emit EmployeeRegistered(msg.sender, ipfsHash);\r\n    }\r\n\r\n    function approveEmployee(address employee) external {\r\n        require(admins[msg.sender], \"Only admin can approve employees.\");\r\n        require(!employeeRequests[employee].approved, \"Employee already approved.\");\r\n        require(bytes(employeeRequests[employee].ipfsHash).length > 0, \"No request found for this employee.\");\r\n\r\n        employeeRequests[employee].approved = true;\r\n        employeeDataHashes[employee] = employeeRequests[employee].ipfsHash;\r\n        approvedEmployees.push(employee);\r\n\r\n        for (uint i = 0; i < pendingEmployees.length; i++) {\r\n            if (pendingEmployees[i] == employee) {\r\n                pendingEmployees[i] = pendingEmployees[pendingEmployees.length - 1];\r\n                pendingEmployees.pop();\r\n                break;\r\n            }\r\n        }\r\n\r\n        emit EmployeeApproved(employee);\r\n    }\r\n\r\n    function rejectEmployee(address employee) external {\r\n        require(admins[msg.sender], \"Only admin can reject employees.\");\r\n        require(!employeeRequests[employee].approved, \"Employee already approved.\");\r\n\r\n        for (uint i = 0; i < pendingEmployees.length; i++) {\r\n            if (pendingEmployees[i] == employee) {\r\n                pendingEmployees[i] = pendingEmployees[pendingEmployees.length - 1];\r\n                pendingEmployees.pop();\r\n                break;\r\n            }\r\n        }\r\n\r\n        delete employeeRequests[employee];\r\n        emit EmployeeRejected(employee);\r\n    }\r\n\r\n    function getPendingEmployees() external view returns (address[] memory) {\r\n        return pendingEmployees;\r\n    }\r\n\r\n    function getApprovedEmployees() external view returns (address[] memory) {\r\n        return approvedEmployees;\r\n    }\r\n\r\n    function getEmployeeDetails(address employee) external view returns (EmployeeRequest memory) {\r\n        return employeeRequests[employee];\r\n    }\r\n\r\n    modifier onlyEmployer(uint256 recordId) {\r\n        require(payrollRecords[recordId].employer == msg.sender, \"Not the employer\");\r\n        _;\r\n    }\r\n\r\n    function addPayrollRecord(uint256 recordId, string memory ipfsHash, address employee) public {\r\n        payrollRecords[recordId] = PayrollRecord(ipfsHash, employee, msg.sender);\r\n    }\r\n\r\n    function grantAccess(uint256 recordId, address employee) public onlyEmployer(recordId) {\r\n        accessPermissions[employee][recordId] = true;\r\n    }\r\n\r\n    function revokeAccess(uint256 recordId, address employee) public onlyEmployer(recordId) {\r\n        accessPermissions[employee][recordId] = false;\r\n    }\r\n\r\n    function getPayrollRecord(uint256 recordId) public view returns (string memory) {\r\n        require(accessPermissions[msg.sender][recordId], \"Not authorized\");\r\n        return payrollRecords[recordId].ipfsHash;\r\n    }\r\n}",
  "sourcePath": "C:\\Shalvi\\PayrollManagement_Blockchain\\payroll-smart-contract\\contracts\\Payroll.sol",
  "compiler": {
    "name": "solc",
    "version": "0.8.0+commit.c7dfd78e.Emscripten.clang"
  },
  "schemaVersion": "3.4.16",
  "updatedAt": "2025-03-27T20:10:22.793Z",
  "networkType": "ethereum",
  "devdoc": {
    "kind": "dev",
    "methods": {},
    "version": 1
  },
  "userdoc": {
    "kind": "user",
    "methods": {},
    "version": 1
  }
}