{
  "contractName": "Payroll",
  "abi": [
    {
      "inputs": [],
      "stateMutability": "nonpayable",
      "type": "constructor"
    },
    {
      "anonymous": false,
      "inputs": [
        {
          "indexed": true,
          "internalType": "address",
          "name": "employee",
          "type": "address"
        }
      ],
      "name": "EmployeeApproved",
      "type": "event"
    },
    {
      "anonymous": false,
      "inputs": [
        {
          "indexed": true,
          "internalType": "address",
          "name": "employee",
          "type": "address"
        },
        {
          "indexed": false,
          "internalType": "string",
          "name": "ipfsHash",
          "type": "string"
        }
      ],
      "name": "EmployeeRegistered",
      "type": "event"
    },
    {
      "anonymous": false,
      "inputs": [
        {
          "indexed": true,
          "internalType": "address",
          "name": "employee",
          "type": "address"
        }
      ],
      "name": "EmployeeRejected",
      "type": "event"
    },
    {
      "inputs": [
        {
          "internalType": "address",
          "name": "",
          "type": "address"
        },
        {
          "internalType": "uint256",
          "name": "",
          "type": "uint256"
        }
      ],
      "name": "accessPermissions",
      "outputs": [
        {
          "internalType": "bool",
          "name": "",
          "type": "bool"
        }
      ],
      "stateMutability": "view",
      "type": "function",
      "constant": true
    },
    {
      "inputs": [
        {
          "internalType": "address",
          "name": "",
          "type": "address"
        }
      ],
      "name": "adminEmails",
      "outputs": [
        {
          "internalType": "string",
          "name": "",
          "type": "string"
        }
      ],
      "stateMutability": "view",
      "type": "function",
      "constant": true
    },
    {
      "inputs": [
        {
          "internalType": "address",
          "name": "",
          "type": "address"
        }
      ],
      "name": "adminEmployeeIds",
      "outputs": [
        {
          "internalType": "uint256",
          "name": "",
          "type": "uint256"
        }
      ],
      "stateMutability": "view",
      "type": "function",
      "constant": true
    },
    {
      "inputs": [
        {
          "internalType": "address",
          "name": "",
          "type": "address"
        }
      ],
      "name": "adminNames",
      "outputs": [
        {
          "internalType": "string",
          "name": "",
          "type": "string"
        }
      ],
      "stateMutability": "view",
      "type": "function",
      "constant": true
    },
    {
      "inputs": [
        {
          "internalType": "address",
          "name": "",
          "type": "address"
        }
      ],
      "name": "adminRequests",
      "outputs": [
        {
          "internalType": "string",
          "name": "name",
          "type": "string"
        },
        {
          "internalType": "uint256",
          "name": "employeeId",
          "type": "uint256"
        },
        {
          "internalType": "string",
          "name": "email",
          "type": "string"
        },
        {
          "internalType": "bool",
          "name": "approved",
          "type": "bool"
        }
      ],
      "stateMutability": "view",
      "type": "function",
      "constant": true
    },
    {
      "inputs": [
        {
          "internalType": "address",
          "name": "",
          "type": "address"
        }
      ],
      "name": "admins",
      "outputs": [
        {
          "internalType": "bool",
          "name": "",
          "type": "bool"
        }
      ],
      "stateMutability": "view",
      "type": "function",
      "constant": true
    },
    {
      "inputs": [
        {
          "internalType": "uint256",
          "name": "",
          "type": "uint256"
        }
      ],
      "name": "approvedEmployees",
      "outputs": [
        {
          "internalType": "address",
          "name": "",
          "type": "address"
        }
      ],
      "stateMutability": "view",
      "type": "function",
      "constant": true
    },
    {
      "inputs": [
        {
          "internalType": "address",
          "name": "",
          "type": "address"
        }
      ],
      "name": "employeeDataHashes",
      "outputs": [
        {
          "internalType": "string",
          "name": "",
          "type": "string"
        }
      ],
      "stateMutability": "view",
      "type": "function",
      "constant": true
    },
    {
      "inputs": [
        {
          "internalType": "address",
          "name": "",
          "type": "address"
        }
      ],
      "name": "employeeRequests",
      "outputs": [
        {
          "internalType": "string",
          "name": "ipfsHash",
          "type": "string"
        },
        {
          "internalType": "bool",
          "name": "approved",
          "type": "bool"
        }
      ],
      "stateMutability": "view",
      "type": "function",
      "constant": true
    },
    {
      "inputs": [],
      "name": "owner",
      "outputs": [
        {
          "internalType": "address",
          "name": "",
          "type": "address"
        }
      ],
      "stateMutability": "view",
      "type": "function",
      "constant": true
    },
    {
      "inputs": [
        {
          "internalType": "uint256",
          "name": "",
          "type": "uint256"
        }
      ],
      "name": "payrollRecords",
      "outputs": [
        {
          "internalType": "string",
          "name": "ipfsHash",
          "type": "string"
        },
        {
          "internalType": "address",
          "name": "employee",
          "type": "address"
        },
        {
          "internalType": "address",
          "name": "employer",
          "type": "address"
        }
      ],
      "stateMutability": "view",
      "type": "function",
      "constant": true
    },
    {
      "inputs": [
        {
          "internalType": "uint256",
          "name": "",
          "type": "uint256"
        }
      ],
      "name": "pendingAdmins",
      "outputs": [
        {
          "internalType": "address",
          "name": "",
          "type": "address"
        }
      ],
      "stateMutability": "view",
      "type": "function",
      "constant": true
    },
    {
      "inputs": [
        {
          "internalType": "uint256",
          "name": "",
          "type": "uint256"
        }
      ],
      "name": "pendingEmployees",
      "outputs": [
        {
          "internalType": "address",
          "name": "",
          "type": "address"
        }
      ],
      "stateMutability": "view",
      "type": "function",
      "constant": true
    },
    {
      "inputs": [
        {
          "internalType": "address",
          "name": "_address",
          "type": "address"
        }
      ],
      "name": "verifyOwner",
      "outputs": [
        {
          "internalType": "bool",
          "name": "",
          "type": "bool"
        }
      ],
      "stateMutability": "view",
      "type": "function",
      "constant": true
    },
    {
      "inputs": [
        {
          "internalType": "string",
          "name": "_name",
          "type": "string"
        },
        {
          "internalType": "uint256",
          "name": "_employeeId",
          "type": "uint256"
        },
        {
          "internalType": "string",
          "name": "_email",
          "type": "string"
        }
      ],
      "name": "requestAdminRole",
      "outputs": [],
      "stateMutability": "nonpayable",
      "type": "function"
    },
    {
      "inputs": [],
      "name": "getPendingAdmins",
      "outputs": [
        {
          "internalType": "address[]",
          "name": "",
          "type": "address[]"
        }
      ],
      "stateMutability": "view",
      "type": "function",
      "constant": true
    },
    {
      "inputs": [
        {
          "internalType": "address",
          "name": "_adminAddress",
          "type": "address"
        }
      ],
      "name": "approveAdmin",
      "outputs": [],
      "stateMutability": "nonpayable",
      "type": "function"
    },
    {
      "inputs": [
        {
          "internalType": "address",
          "name": "_address",
          "type": "address"
        }
      ],
      "name": "isAdmin",
      "outputs": [
        {
          "internalType": "bool",
          "name": "",
          "type": "bool"
        }
      ],
      "stateMutability": "view",
      "type": "function",
      "constant": true
    },
    {
      "inputs": [
        {
          "internalType": "address",
          "name": "_adminAddress",
          "type": "address"
        }
      ],
      "name": "rejectAdmin",
      "outputs": [],
      "stateMutability": "nonpayable",
      "type": "function"
    },
    {
      "inputs": [
        {
          "internalType": "string",
          "name": "ipfsHash",
          "type": "string"
        }
      ],
      "name": "registerEmployee",
      "outputs": [],
      "stateMutability": "nonpayable",
      "type": "function"
    },
    {
      "inputs": [
        {
          "internalType": "address",
          "name": "employee",
          "type": "address"
        }
      ],
      "name": "approveEmployee",
      "outputs": [],
      "stateMutability": "nonpayable",
      "type": "function"
    },
    {
      "inputs": [
        {
          "internalType": "address",
          "name": "employee",
          "type": "address"
        }
      ],
      "name": "rejectEmployee",
      "outputs": [],
      "stateMutability": "nonpayable",
      "type": "function"
    },
    {
      "inputs": [],
      "name": "getPendingEmployees",
      "outputs": [
        {
          "internalType": "address[]",
          "name": "",
          "type": "address[]"
        }
      ],
      "stateMutability": "view",
      "type": "function",
      "constant": true
    },
    {
      "inputs": [],
      "name": "getApprovedEmployees",
      "outputs": [
        {
          "internalType": "address[]",
          "name": "",
          "type": "address[]"
        }
      ],
      "stateMutability": "view",
      "type": "function",
      "constant": true
    },
    {
      "inputs": [
        {
          "internalType": "address",
          "name": "employee",
          "type": "address"
        }
      ],
      "name": "getEmployeeDetails",
      "outputs": [
        {
          "components": [
            {
              "internalType": "string",
              "name": "ipfsHash",
              "type": "string"
            },
            {
              "internalType": "bool",
              "name": "approved",
              "type": "bool"
            }
          ],
          "internalType": "struct Payroll.EmployeeRequest",
          "name": "",
          "type": "tuple"
        }
      ],
      "stateMutability": "view",
      "type": "function",
      "constant": true
    },
    {
      "inputs": [
        {
          "internalType": "uint256",
          "name": "recordId",
          "type": "uint256"
        },
        {
          "internalType": "string",
          "name": "ipfsHash",
          "type": "string"
        },
        {
          "internalType": "address",
          "name": "employee",
          "type": "address"
        }
      ],
      "name": "addPayrollRecord",
      "outputs": [],
      "stateMutability": "nonpayable",
      "type": "function"
    },
    {
      "inputs": [
        {
          "internalType": "uint256",
          "name": "recordId",
          "type": "uint256"
        },
        {
          "internalType": "address",
          "name": "employee",
          "type": "address"
        }
      ],
      "name": "grantAccess",
      "outputs": [],
      "stateMutability": "nonpayable",
      "type": "function"
    },
    {
      "inputs": [
        {
          "internalType": "uint256",
          "name": "recordId",
          "type": "uint256"
        },
        {
          "internalType": "address",
          "name": "employee",
          "type": "address"
        }
      ],
      "name": "revokeAccess",
      "outputs": [],
      "stateMutability": "nonpayable",
      "type": "function"
    },
    {
      "inputs": [
        {
          "internalType": "uint256",
          "name": "recordId",
          "type": "uint256"
        }
      ],
      "name": "getPayrollRecord",
      "outputs": [
        {
          "internalType": "string",
          "name": "",
          "type": "string"
        }
      ],
      "stateMutability": "view",
      "type": "function",
      "constant": true
    }
  ],
  "bytecode": "0x608060405234801561001057600080fd5b50336000806101000a81548173ffffffffffffffffffffffffffffffffffffffff021916908373ffffffffffffffffffffffffffffffffffffffff160217905550613bf3806100606000396000f3fe608060405234801561001057600080fd5b50600436106101cf5760003560e01c806370ac906711610104578063a58edf09116100a2578063d501817a11610071578063d501817a146105a2578063d9a5ec1b146105d2578063e31bf91d146105ee578063fc19c0401461061e576101cf565b8063a58edf091461051a578063add34bde1461054a578063b5c1b0a914610568578063c6b7d3d814610586576101cf565b80638c85cd85116100de5780638c85cd851461047e5780638da5cb5b146104ae578063956c2dcc146104cc578063964ce51e146104fc576101cf565b806370ac9067146104145780637ae7523f146104465780637d341df614610462576101cf565b80633234a484116101715780635c58e7761161014b5780635c58e7761461039057806360cac224146103c057806365dd152c146103dc5780636d73e669146103f8576101cf565b80633234a484146102fd5780633c48aa791461032d578063429b62e514610360576101cf565b80631caafcf1116101ad5780631caafcf1146102515780631d2613de1461028157806324d7806c1461029d5780632bf35b34146102cd576101cf565b80630e66848d146101d457806315dab9bb146102055780631ba04cc714610221575b600080fd5b6101ee60048036038101906101e99190612e40565b61064e565b6040516101fc929190613671565b60405180910390f35b61021f600480360381019061021a9190612e40565b610707565b005b61023b60048036038101906102369190612e40565b610b50565b6040516102489190613611565b60405180910390f35b61026b60048036038101906102669190612e40565b610bf0565b60405161027891906138b4565b60405180910390f35b61029b60048036038101906102969190612e40565b610cf6565b005b6102b760048036038101906102b29190612e40565b611266565b6040516102c491906135f6565b60405180910390f35b6102e760048036038101906102e29190612e40565b6112bc565b6040516102f49190613611565b60405180910390f35b61031760048036038101906103129190612f65565b61135c565b60405161032491906135b9565b60405180910390f35b61034760048036038101906103429190612e40565b61139b565b60405161035794939291906136a1565b60405180910390f35b61037a60048036038101906103759190612e40565b6114e8565b60405161038791906135f6565b60405180910390f35b6103aa60048036038101906103a59190612e40565b611508565b6040516103b791906138d6565b60405180910390f35b6103da60048036038101906103d59190612ea5565b611520565b005b6103f660048036038101906103f19190612f8e565b61173f565b005b610412600480360381019061040d9190612e40565b611852565b005b61042e60048036038101906104299190612f65565b611e88565b60405161043d93929190613633565b60405180910390f35b610460600480360381019061045b9190612e40565b611f7a565b005b61047c60048036038101906104779190612fca565b612368565b005b61049860048036038101906104939190612e40565b612475565b6040516104a591906135f6565b60405180910390f35b6104b66124ce565b6040516104c391906135b9565b60405180910390f35b6104e660048036038101906104e19190612e40565b6124f2565b6040516104f39190613611565b60405180910390f35b610504612592565b60405161051191906135d4565b60405180910390f35b610534600480360381019061052f9190612f65565b612620565b60405161054191906135b9565b60405180910390f35b61055261265f565b60405161055f91906135d4565b60405180910390f35b6105706126ed565b60405161057d91906135d4565b60405180910390f35b6105a0600480360381019061059b9190612ee6565b61277b565b005b6105bc60048036038101906105b79190612e69565b61295c565b6040516105c991906135f6565b60405180910390f35b6105ec60048036038101906105e79190612f8e565b61298b565b005b61060860048036038101906106039190612f65565b612a9e565b60405161061591906135b9565b60405180910390f35b61063860048036038101906106339190612f65565b612add565b6040516106459190613611565b60405180910390f35b600b60205280600052604060002060009150905080600001805461067190613a76565b80601f016020809104026020016040519081016040528092919081815260200182805461069d90613a76565b80156106ea5780601f106106bf576101008083540402835291602001916106ea565b820191906000526020600020905b8154815290600101906020018083116106cd57829003601f168201915b5050505050908060010160009054906101000a900460ff16905082565b60008054906101000a900473ffffffffffffffffffffffffffffffffffffffff1673ffffffffffffffffffffffffffffffffffffffff163373ffffffffffffffffffffffffffffffffffffffff1614610795576040517f08c379a000000000000000000000000000000000000000000000000000000000815260040161078c90613754565b60405180910390fd5b6000600a60008373ffffffffffffffffffffffffffffffffffffffff1673ffffffffffffffffffffffffffffffffffffffff16815260200190815260200160002060010154141561081b576040517f08c379a000000000000000000000000000000000000000000000000000000000815260040161081290613714565b60405180910390fd5b600a60008273ffffffffffffffffffffffffffffffffffffffff1673ffffffffffffffffffffffffffffffffffffffff16815260200190815260200160002060030160009054906101000a900460ff16156108ab576040517f08c379a00000000000000000000000000000000000000000000000000000000081526004016108a2906136f4565b60405180910390fd5b60005b600180549050811015610ace578173ffffffffffffffffffffffffffffffffffffffff166001828154811061090c577f4e487b7100000000000000000000000000000000000000000000000000000000600052603260045260246000fd5b9060005260206000200160009054906101000a900473ffffffffffffffffffffffffffffffffffffffff1673ffffffffffffffffffffffffffffffffffffffff161415610abb57600180808054905061096591906139b8565b8154811061099c577f4e487b7100000000000000000000000000000000000000000000000000000000600052603260045260246000fd5b9060005260206000200160009054906101000a900473ffffffffffffffffffffffffffffffffffffffff1660018281548110610a01577f4e487b7100000000000000000000000000000000000000000000000000000000600052603260045260246000fd5b9060005260206000200160006101000a81548173ffffffffffffffffffffffffffffffffffffffff021916908373ffffffffffffffffffffffffffffffffffffffff1602179055506001805480610a81577f4e487b7100000000000000000000000000000000000000000000000000000000600052603160045260246000fd5b6001900381819060005260206000200160006101000a81549073ffffffffffffffffffffffffffffffffffffffff02191690559055610ace565b8080610ac690613aa8565b9150506108ae565b50600a60008273ffffffffffffffffffffffffffffffffffffffff1673ffffffffffffffffffffffffffffffffffffffff16815260200190815260200160002060008082016000610b1f9190612c22565b6001820160009055600282016000610b379190612c22565b6003820160006101000a81549060ff0219169055505050565b60076020528060005260406000206000915090508054610b6f90613a76565b80601f0160208091040260200160405190810160405280929190818152602001828054610b9b90613a76565b8015610be85780601f10610bbd57610100808354040283529160200191610be8565b820191906000526020600020905b815481529060010190602001808311610bcb57829003601f168201915b505050505081565b610bf8612c62565b600b60008373ffffffffffffffffffffffffffffffffffffffff1673ffffffffffffffffffffffffffffffffffffffff168152602001908152602001600020604051806040016040529081600082018054610c5290613a76565b80601f0160208091040260200160405190810160405280929190818152602001828054610c7e90613a76565b8015610ccb5780601f10610ca057610100808354040283529160200191610ccb565b820191906000526020600020905b815481529060010190602001808311610cae57829003601f168201915b505050505081526020016001820160009054906101000a900460ff1615151515815250509050919050565b600460003373ffffffffffffffffffffffffffffffffffffffff1673ffffffffffffffffffffffffffffffffffffffff16815260200190815260200160002060009054906101000a900460ff16610d82576040517f08c379a0000000000000000000000000000000000000000000000000000000008152600401610d7990613794565b60405180910390fd5b600b60008273ffffffffffffffffffffffffffffffffffffffff1673ffffffffffffffffffffffffffffffffffffffff16815260200190815260200160002060010160009054906101000a900460ff1615610e12576040517f08c379a0000000000000000000000000000000000000000000000000000000008152600401610e0990613874565b60405180910390fd5b6000600b60008373ffffffffffffffffffffffffffffffffffffffff1673ffffffffffffffffffffffffffffffffffffffff1681526020019081526020016000206000018054610e6190613a76565b905011610ea3576040517f08c379a0000000000000000000000000000000000000000000000000000000008152600401610e9a90613774565b60405180910390fd5b6001600b60008373ffffffffffffffffffffffffffffffffffffffff1673ffffffffffffffffffffffffffffffffffffffff16815260200190815260200160002060010160006101000a81548160ff021916908315150217905550600b60008273ffffffffffffffffffffffffffffffffffffffff1673ffffffffffffffffffffffffffffffffffffffff168152602001908152602001600020600001600c60008373ffffffffffffffffffffffffffffffffffffffff1673ffffffffffffffffffffffffffffffffffffffff168152602001908152602001600020908054610f8b90613a76565b610f96929190612c7e565b506003819080600181540180825580915050600190039060005260206000200160009091909190916101000a81548173ffffffffffffffffffffffffffffffffffffffff021916908373ffffffffffffffffffffffffffffffffffffffff16021790555060005b60028054905081101561121f578173ffffffffffffffffffffffffffffffffffffffff166002828154811061105b577f4e487b7100000000000000000000000000000000000000000000000000000000600052603260045260246000fd5b9060005260206000200160009054906101000a900473ffffffffffffffffffffffffffffffffffffffff1673ffffffffffffffffffffffffffffffffffffffff16141561120c57600260016002805490506110b691906139b8565b815481106110ed577f4e487b7100000000000000000000000000000000000000000000000000000000600052603260045260246000fd5b9060005260206000200160009054906101000a900473ffffffffffffffffffffffffffffffffffffffff1660028281548110611152577f4e487b7100000000000000000000000000000000000000000000000000000000600052603260045260246000fd5b9060005260206000200160006101000a81548173ffffffffffffffffffffffffffffffffffffffff021916908373ffffffffffffffffffffffffffffffffffffffff16021790555060028054806111d2577f4e487b7100000000000000000000000000000000000000000000000000000000600052603160045260246000fd5b6001900381819060005260206000200160006101000a81549073ffffffffffffffffffffffffffffffffffffffff0219169055905561121f565b808061121790613aa8565b915050610ffd565b508073ffffffffffffffffffffffffffffffffffffffff167f52fc9bbf272c9663e2f72e32ebbd87b584e1015d97d62c96a47d445f8460cac160405160405180910390a250565b6000600460008373ffffffffffffffffffffffffffffffffffffffff1673ffffffffffffffffffffffffffffffffffffffff16815260200190815260200160002060009054906101000a900460ff169050919050565b600560205280600052604060002060009150905080546112db90613a76565b80601f016020809104026020016040519081016040528092919081815260200182805461130790613a76565b80156113545780601f1061132957610100808354040283529160200191611354565b820191906000526020600020905b81548152906001019060200180831161133757829003601f168201915b505050505081565b6003818154811061136c57600080fd5b906000526020600020016000915054906101000a900473ffffffffffffffffffffffffffffffffffffffff1681565b600a6020528060005260406000206000915090508060000180546113be90613a76565b80601f01602080910402602001604051908101604052809291908181526020018280546113ea90613a76565b80156114375780601f1061140c57610100808354040283529160200191611437565b820191906000526020600020905b81548152906001019060200180831161141a57829003601f168201915b50505050509080600101549080600201805461145290613a76565b80601f016020809104026020016040519081016040528092919081815260200182805461147e90613a76565b80156114cb5780601f106114a0576101008083540402835291602001916114cb565b820191906000526020600020905b8154815290600101906020018083116114ae57829003601f168201915b5050505050908060030160009054906101000a900460ff16905084565b60046020528060005260406000206000915054906101000a900460ff1681565b60066020528060005260406000206000915090505481565b600b60003373ffffffffffffffffffffffffffffffffffffffff1673ffffffffffffffffffffffffffffffffffffffff16815260200190815260200160002060010160009054906101000a900460ff16156115b0576040517f08c379a00000000000000000000000000000000000000000000000000000000081526004016115a7906137f4565b60405180910390fd5b60008151116115f4576040517f08c379a00000000000000000000000000000000000000000000000000000000081526004016115eb90613834565b60405180910390fd5b604051806040016040528082815260200160001515815250600b60003373ffffffffffffffffffffffffffffffffffffffff1673ffffffffffffffffffffffffffffffffffffffff1681526020019081526020016000206000820151816000019080519060200190611667929190612d0b565b5060208201518160010160006101000a81548160ff0219169083151502179055509050506002339080600181540180825580915050600190039060005260206000200160009091909190916101000a81548173ffffffffffffffffffffffffffffffffffffffff021916908373ffffffffffffffffffffffffffffffffffffffff1602179055503373ffffffffffffffffffffffffffffffffffffffff167f7657087667750afe9a0e3b2a3d756e2a2b4f696c3d71141eb99420bcc2f1e231826040516117349190613611565b60405180910390a250565b813373ffffffffffffffffffffffffffffffffffffffff166008600083815260200190815260200160002060020160009054906101000a900473ffffffffffffffffffffffffffffffffffffffff1673ffffffffffffffffffffffffffffffffffffffff16146117e4576040517f08c379a00000000000000000000000000000000000000000000000000000000081526004016117db90613734565b60405180910390fd5b6001600960008473ffffffffffffffffffffffffffffffffffffffff1673ffffffffffffffffffffffffffffffffffffffff168152602001908152602001600020600085815260200190815260200160002060006101000a81548160ff021916908315150217905550505050565b60008054906101000a900473ffffffffffffffffffffffffffffffffffffffff1673ffffffffffffffffffffffffffffffffffffffff163373ffffffffffffffffffffffffffffffffffffffff16146118e0576040517f08c379a00000000000000000000000000000000000000000000000000000000081526004016118d790613854565b60405180910390fd5b6000600a60008373ffffffffffffffffffffffffffffffffffffffff1673ffffffffffffffffffffffffffffffffffffffff168152602001908152602001600020600101541415611966576040517f08c379a000000000000000000000000000000000000000000000000000000000815260040161195d90613714565b60405180910390fd5b600a60008273ffffffffffffffffffffffffffffffffffffffff1673ffffffffffffffffffffffffffffffffffffffff16815260200190815260200160002060030160009054906101000a900460ff16156119f6576040517f08c379a00000000000000000000000000000000000000000000000000000000081526004016119ed906136f4565b60405180910390fd5b6001600460008373ffffffffffffffffffffffffffffffffffffffff1673ffffffffffffffffffffffffffffffffffffffff16815260200190815260200160002060006101000a81548160ff021916908315150217905550600a60008273ffffffffffffffffffffffffffffffffffffffff1673ffffffffffffffffffffffffffffffffffffffff168152602001908152602001600020600001600560008373ffffffffffffffffffffffffffffffffffffffff1673ffffffffffffffffffffffffffffffffffffffff168152602001908152602001600020908054611adb90613a76565b611ae6929190612c7e565b50600a60008273ffffffffffffffffffffffffffffffffffffffff1673ffffffffffffffffffffffffffffffffffffffff16815260200190815260200160002060010154600660008373ffffffffffffffffffffffffffffffffffffffff1673ffffffffffffffffffffffffffffffffffffffff16815260200190815260200160002081905550600a60008273ffffffffffffffffffffffffffffffffffffffff1673ffffffffffffffffffffffffffffffffffffffff168152602001908152602001600020600201600760008373ffffffffffffffffffffffffffffffffffffffff1673ffffffffffffffffffffffffffffffffffffffff168152602001908152602001600020908054611bfa90613a76565b611c05929190612c7e565b506001600a60008373ffffffffffffffffffffffffffffffffffffffff1673ffffffffffffffffffffffffffffffffffffffff16815260200190815260200160002060030160006101000a81548160ff02191690831515021790555060005b600180549050811015611e84578173ffffffffffffffffffffffffffffffffffffffff1660018281548110611cc2577f4e487b7100000000000000000000000000000000000000000000000000000000600052603260045260246000fd5b9060005260206000200160009054906101000a900473ffffffffffffffffffffffffffffffffffffffff1673ffffffffffffffffffffffffffffffffffffffff161415611e71576001808080549050611d1b91906139b8565b81548110611d52577f4e487b7100000000000000000000000000000000000000000000000000000000600052603260045260246000fd5b9060005260206000200160009054906101000a900473ffffffffffffffffffffffffffffffffffffffff1660018281548110611db7577f4e487b7100000000000000000000000000000000000000000000000000000000600052603260045260246000fd5b9060005260206000200160006101000a81548173ffffffffffffffffffffffffffffffffffffffff021916908373ffffffffffffffffffffffffffffffffffffffff1602179055506001805480611e37577f4e487b7100000000000000000000000000000000000000000000000000000000600052603160045260246000fd5b6001900381819060005260206000200160006101000a81549073ffffffffffffffffffffffffffffffffffffffff02191690559055611e84565b8080611e7c90613aa8565b915050611c64565b5050565b6008602052806000526040600020600091509050806000018054611eab90613a76565b80601f0160208091040260200160405190810160405280929190818152602001828054611ed790613a76565b8015611f245780601f10611ef957610100808354040283529160200191611f24565b820191906000526020600020905b815481529060010190602001808311611f0757829003601f168201915b5050505050908060010160009054906101000a900473ffffffffffffffffffffffffffffffffffffffff16908060020160009054906101000a900473ffffffffffffffffffffffffffffffffffffffff16905083565b600460003373ffffffffffffffffffffffffffffffffffffffff1673ffffffffffffffffffffffffffffffffffffffff16815260200190815260200160002060009054906101000a900460ff16612006576040517f08c379a0000000000000000000000000000000000000000000000000000000008152600401611ffd906137d4565b60405180910390fd5b600b60008273ffffffffffffffffffffffffffffffffffffffff1673ffffffffffffffffffffffffffffffffffffffff16815260200190815260200160002060010160009054906101000a900460ff1615612096576040517f08c379a000000000000000000000000000000000000000000000000000000000815260040161208d90613874565b60405180910390fd5b60005b6002805490508110156122bb578173ffffffffffffffffffffffffffffffffffffffff16600282815481106120f7577f4e487b7100000000000000000000000000000000000000000000000000000000600052603260045260246000fd5b9060005260206000200160009054906101000a900473ffffffffffffffffffffffffffffffffffffffff1673ffffffffffffffffffffffffffffffffffffffff1614156122a8576002600160028054905061215291906139b8565b81548110612189577f4e487b7100000000000000000000000000000000000000000000000000000000600052603260045260246000fd5b9060005260206000200160009054906101000a900473ffffffffffffffffffffffffffffffffffffffff16600282815481106121ee577f4e487b7100000000000000000000000000000000000000000000000000000000600052603260045260246000fd5b9060005260206000200160006101000a81548173ffffffffffffffffffffffffffffffffffffffff021916908373ffffffffffffffffffffffffffffffffffffffff160217905550600280548061226e577f4e487b7100000000000000000000000000000000000000000000000000000000600052603160045260246000fd5b6001900381819060005260206000200160006101000a81549073ffffffffffffffffffffffffffffffffffffffff021916905590556122bb565b80806122b390613aa8565b915050612099565b50600b60008273ffffffffffffffffffffffffffffffffffffffff1673ffffffffffffffffffffffffffffffffffffffff1681526020019081526020016000206000808201600061230c9190612c22565b6001820160006101000a81549060ff021916905550508073ffffffffffffffffffffffffffffffffffffffff167f3ea7a2184fd07e601e85c2763d5ce0811e5340156854cb97d89922894fce125260405160405180910390a250565b60405180606001604052808381526020018273ffffffffffffffffffffffffffffffffffffffff1681526020013373ffffffffffffffffffffffffffffffffffffffff168152506008600085815260200190815260200160002060008201518160000190805190602001906123de929190612d0b565b5060208201518160010160006101000a81548173ffffffffffffffffffffffffffffffffffffffff021916908373ffffffffffffffffffffffffffffffffffffffff16021790555060408201518160020160006101000a81548173ffffffffffffffffffffffffffffffffffffffff021916908373ffffffffffffffffffffffffffffffffffffffff160217905550905050505050565b60008060009054906101000a900473ffffffffffffffffffffffffffffffffffffffff1673ffffffffffffffffffffffffffffffffffffffff168273ffffffffffffffffffffffffffffffffffffffff16149050919050565b60008054906101000a900473ffffffffffffffffffffffffffffffffffffffff1681565b600c602052806000526040600020600091509050805461251190613a76565b80601f016020809104026020016040519081016040528092919081815260200182805461253d90613a76565b801561258a5780601f1061255f5761010080835404028352916020019161258a565b820191906000526020600020905b81548152906001019060200180831161256d57829003601f168201915b505050505081565b6060600280548060200260200160405190810160405280929190818152602001828054801561261657602002820191906000526020600020905b8160009054906101000a900473ffffffffffffffffffffffffffffffffffffffff1673ffffffffffffffffffffffffffffffffffffffff16815260200190600101908083116125cc575b5050505050905090565b6001818154811061263057600080fd5b906000526020600020016000915054906101000a900473ffffffffffffffffffffffffffffffffffffffff1681565b606060038054806020026020016040519081016040528092919081815260200182805480156126e357602002820191906000526020600020905b8160009054906101000a900473ffffffffffffffffffffffffffffffffffffffff1673ffffffffffffffffffffffffffffffffffffffff1681526020019060010190808311612699575b5050505050905090565b6060600180548060200260200160405190810160405280929190818152602001828054801561277157602002820191906000526020600020905b8160009054906101000a900473ffffffffffffffffffffffffffffffffffffffff1673ffffffffffffffffffffffffffffffffffffffff1681526020019060010190808311612727575b5050505050905090565b600460003373ffffffffffffffffffffffffffffffffffffffff1673ffffffffffffffffffffffffffffffffffffffff16815260200190815260200160002060009054906101000a900460ff1615612808576040517f08c379a00000000000000000000000000000000000000000000000000000000081526004016127ff90613814565b60405180910390fd5b6000600a60003373ffffffffffffffffffffffffffffffffffffffff1673ffffffffffffffffffffffffffffffffffffffff168152602001908152602001600020600101541461288d576040517f08c379a0000000000000000000000000000000000000000000000000000000008152600401612884906137b4565b60405180910390fd5b604051806080016040528084815260200183815260200182815260200160001515815250600a60003373ffffffffffffffffffffffffffffffffffffffff1673ffffffffffffffffffffffffffffffffffffffff168152602001908152602001600020600082015181600001908051906020019061290c929190612d0b565b50602082015181600101556040820151816002019080519060200190612933929190612d0b565b5060608201518160030160006101000a81548160ff021916908315150217905550905050505050565b60096020528160005260406000206020528060005260406000206000915091509054906101000a900460ff1681565b813373ffffffffffffffffffffffffffffffffffffffff166008600083815260200190815260200160002060020160009054906101000a900473ffffffffffffffffffffffffffffffffffffffff1673ffffffffffffffffffffffffffffffffffffffff1614612a30576040517f08c379a0000000000000000000000000000000000000000000000000000000008152600401612a2790613734565b60405180910390fd5b6000600960008473ffffffffffffffffffffffffffffffffffffffff1673ffffffffffffffffffffffffffffffffffffffff168152602001908152602001600020600085815260200190815260200160002060006101000a81548160ff021916908315150217905550505050565b60028181548110612aae57600080fd5b906000526020600020016000915054906101000a900473ffffffffffffffffffffffffffffffffffffffff1681565b6060600960003373ffffffffffffffffffffffffffffffffffffffff1673ffffffffffffffffffffffffffffffffffffffff168152602001908152602001600020600083815260200190815260200160002060009054906101000a900460ff16612b7c576040517f08c379a0000000000000000000000000000000000000000000000000000000008152600401612b7390613894565b60405180910390fd5b600860008381526020019081526020016000206000018054612b9d90613a76565b80601f0160208091040260200160405190810160405280929190818152602001828054612bc990613a76565b8015612c165780601f10612beb57610100808354040283529160200191612c16565b820191906000526020600020905b815481529060010190602001808311612bf957829003601f168201915b50505050509050919050565b508054612c2e90613a76565b6000825580601f10612c405750612c5f565b601f016020900490600052602060002090810190612c5e9190612d91565b5b50565b6040518060400160405280606081526020016000151581525090565b828054612c8a90613a76565b90600052602060002090601f016020900481019282612cac5760008555612cfa565b82601f10612cbd5780548555612cfa565b82800160010185558215612cfa57600052602060002091601f016020900482015b82811115612cf9578254825591600101919060010190612cde565b5b509050612d079190612d91565b5090565b828054612d1790613a76565b90600052602060002090601f016020900481019282612d395760008555612d80565b82601f10612d5257805160ff1916838001178555612d80565b82800160010185558215612d80579182015b82811115612d7f578251825591602001919060010190612d64565b5b509050612d8d9190612d91565b5090565b5b80821115612daa576000816000905550600101612d92565b5090565b6000612dc1612dbc84613922565b6138f1565b905082815260208101848484011115612dd957600080fd5b612de4848285613a34565b509392505050565b600081359050612dfb81613b8f565b92915050565b600082601f830112612e1257600080fd5b8135612e22848260208601612dae565b91505092915050565b600081359050612e3a81613ba6565b92915050565b600060208284031215612e5257600080fd5b6000612e6084828501612dec565b91505092915050565b60008060408385031215612e7c57600080fd5b6000612e8a85828601612dec565b9250506020612e9b85828601612e2b565b9150509250929050565b600060208284031215612eb757600080fd5b600082013567ffffffffffffffff811115612ed157600080fd5b612edd84828501612e01565b91505092915050565b600080600060608486031215612efb57600080fd5b600084013567ffffffffffffffff811115612f1557600080fd5b612f2186828701612e01565b9350506020612f3286828701612e2b565b925050604084013567ffffffffffffffff811115612f4f57600080fd5b612f5b86828701612e01565b9150509250925092565b600060208284031215612f7757600080fd5b6000612f8584828501612e2b565b91505092915050565b60008060408385031215612fa157600080fd5b6000612faf85828601612e2b565b9250506020612fc085828601612dec565b9150509250929050565b600080600060608486031215612fdf57600080fd5b6000612fed86828701612e2b565b935050602084013567ffffffffffffffff81111561300a57600080fd5b61301686828701612e01565b925050604061302786828701612dec565b9150509250925092565b600061303d8383613049565b60208301905092915050565b613052816139ec565b82525050565b613061816139ec565b82525050565b600061307282613962565b61307c8185613985565b935061308783613952565b8060005b838110156130b857815161309f8882613031565b97506130aa83613978565b92505060018101905061308b565b5085935050505092915050565b6130ce816139fe565b82525050565b6130dd816139fe565b82525050565b60006130ee8261396d565b6130f88185613996565b9350613108818560208601613a43565b61311181613b7e565b840191505092915050565b60006131278261396d565b61313181856139a7565b9350613141818560208601613a43565b61314a81613b7e565b840191505092915050565b60006131626019836139a7565b91507f5265717565737420616c726561647920617070726f7665642e000000000000006000830152602082019050919050565b60006131a26022836139a7565b91507f4e6f207265717565737420666f756e6420666f7220746869732061646472657360008301527f732e0000000000000000000000000000000000000000000000000000000000006020830152604082019050919050565b60006132086010836139a7565b91507f4e6f742074686520656d706c6f796572000000000000000000000000000000006000830152602082019050919050565b6000613248601d836139a7565b91507f4f6e6c79206f776e65722063616e2072656a6563742061646d696e732e0000006000830152602082019050919050565b60006132886023836139a7565b91507f4e6f207265717565737420666f756e6420666f72207468697320656d706c6f7960008301527f65652e00000000000000000000000000000000000000000000000000000000006020830152604082019050919050565b60006132ee6021836139a7565b91507f4f6e6c792061646d696e2063616e20617070726f766520656d706c6f7965657360008301527f2e000000000000000000000000000000000000000000000000000000000000006020830152604082019050919050565b60006133546025836139a7565b91507f596f75206861766520616c7265616479207375626d697474656420612072657160008301527f756573742e0000000000000000000000000000000000000000000000000000006020830152604082019050919050565b60006133ba6020836139a7565b91507f4f6e6c792061646d696e2063616e2072656a65637420656d706c6f796565732e6000830152602082019050919050565b60006133fa601c836139a7565b91507f456d706c6f79656520616c726561647920726567697374657265642e000000006000830152602082019050919050565b600061343a6019836139a7565b91507f596f752061726520616c726561647920616e2061646d696e2e000000000000006000830152602082019050919050565b600061347a601a836139a7565b91507f4950465320686173682063616e6e6f7420626520656d7074792e0000000000006000830152602082019050919050565b60006134ba601e836139a7565b91507f4f6e6c79206f776e65722063616e20617070726f76652061646d696e732e00006000830152602082019050919050565b60006134fa601a836139a7565b91507f456d706c6f79656520616c726561647920617070726f7665642e0000000000006000830152602082019050919050565b600061353a600e836139a7565b91507f4e6f7420617574686f72697a65640000000000000000000000000000000000006000830152602082019050919050565b6000604083016000830151848203600086015261358a82826130e3565b915050602083015161359f60208601826130c5565b508091505092915050565b6135b381613a2a565b82525050565b60006020820190506135ce6000830184613058565b92915050565b600060208201905081810360008301526135ee8184613067565b905092915050565b600060208201905061360b60008301846130d4565b92915050565b6000602082019050818103600083015261362b818461311c565b905092915050565b6000606082019050818103600083015261364d818661311c565b905061365c6020830185613058565b6136696040830184613058565b949350505050565b6000604082019050818103600083015261368b818561311c565b905061369a60208301846130d4565b9392505050565b600060808201905081810360008301526136bb818761311c565b90506136ca60208301866135aa565b81810360408301526136dc818561311c565b90506136eb60608301846130d4565b95945050505050565b6000602082019050818103600083015261370d81613155565b9050919050565b6000602082019050818103600083015261372d81613195565b9050919050565b6000602082019050818103600083015261374d816131fb565b9050919050565b6000602082019050818103600083015261376d8161323b565b9050919050565b6000602082019050818103600083015261378d8161327b565b9050919050565b600060208201905081810360008301526137ad816132e1565b9050919050565b600060208201905081810360008301526137cd81613347565b9050919050565b600060208201905081810360008301526137ed816133ad565b9050919050565b6000602082019050818103600083015261380d816133ed565b9050919050565b6000602082019050818103600083015261382d8161342d565b9050919050565b6000602082019050818103600083015261384d8161346d565b9050919050565b6000602082019050818103600083015261386d816134ad565b9050919050565b6000602082019050818103600083015261388d816134ed565b9050919050565b600060208201905081810360008301526138ad8161352d565b9050919050565b600060208201905081810360008301526138ce818461356d565b905092915050565b60006020820190506138eb60008301846135aa565b92915050565b6000604051905081810181811067ffffffffffffffff8211171561391857613917613b4f565b5b8060405250919050565b600067ffffffffffffffff82111561393d5761393c613b4f565b5b601f19601f8301169050602081019050919050565b6000819050602082019050919050565b600081519050919050565b600081519050919050565b6000602082019050919050565b600082825260208201905092915050565b600082825260208201905092915050565b600082825260208201905092915050565b60006139c382613a2a565b91506139ce83613a2a565b9250828210156139e1576139e0613af1565b5b828203905092915050565b60006139f782613a0a565b9050919050565b60008115159050919050565b600073ffffffffffffffffffffffffffffffffffffffff82169050919050565b6000819050919050565b82818337600083830152505050565b60005b83811015613a61578082015181840152602081019050613a46565b83811115613a70576000848401525b50505050565b60006002820490506001821680613a8e57607f821691505b60208210811415613aa257613aa1613b20565b5b50919050565b6000613ab382613a2a565b91507fffffffffffffffffffffffffffffffffffffffffffffffffffffffffffffffff821415613ae657613ae5613af1565b5b600182019050919050565b7f4e487b7100000000000000000000000000000000000000000000000000000000600052601160045260246000fd5b7f4e487b7100000000000000000000000000000000000000000000000000000000600052602260045260246000fd5b7f4e487b7100000000000000000000000000000000000000000000000000000000600052604160045260246000fd5b6000601f19601f8301169050919050565b613b98816139ec565b8114613ba357600080fd5b50565b613baf81613a2a565b8114613bba57600080fd5b5056fea2646970667358221220e587bc25c94a34808170a7fba7e481405a5dd5a7401e0d7643b03ee0aaefc84d64736f6c63430008000033",
  "immutableReferences": {},
  "source": "// SPDX-License-Identifier: MIT\r\npragma solidity ^0.8.0;\r\n\r\ncontract Payroll {\r\n    address public owner;\r\n    address[] public pendingAdmins;\r\n    address[] public pendingEmployees;\r\n    address[] public approvedEmployees;\r\n\r\n    struct PayrollRecord {\r\n        string ipfsHash;\r\n        address employee;\r\n        address employer;\r\n    }\r\n\r\n    struct AdminRequest {\r\n        string name;\r\n        uint256 employeeId;\r\n        string email;\r\n        bool approved;\r\n    }\r\n\r\n    struct EmployeeRequest {\r\n        string ipfsHash;\r\n        bool approved;\r\n    }\r\n\r\n    mapping(address => bool) public admins;\r\n    mapping(address => string) public adminNames;\r\n    mapping(address => uint256) public adminEmployeeIds;\r\n    mapping(address => string) public adminEmails;\r\n    mapping(uint256 => PayrollRecord) public payrollRecords;\r\n    mapping(address => mapping(uint256 => bool)) public accessPermissions;\r\n    mapping(address => AdminRequest) public adminRequests;\r\n    mapping(address => EmployeeRequest) public employeeRequests;\r\n    mapping(address => string) public employeeDataHashes;\r\n\r\n    event EmployeeRegistered(address indexed employee, string ipfsHash);\r\n    event EmployeeApproved(address indexed employee);\r\n    event EmployeeRejected(address indexed employee);\r\n\r\n    constructor() {\r\n        owner = msg.sender;\r\n    }\r\n\r\n    function verifyOwner(address _address) external view returns (bool) {\r\n        return _address == owner;\r\n    }\r\n\r\n    function requestAdminRole(string memory _name, uint256 _employeeId, string memory _email) external {\r\n        require(!admins[msg.sender], \"You are already an admin.\");\r\n        require(adminRequests[msg.sender].employeeId == 0, \"You have already submitted a request.\");\r\n\r\n        adminRequests[msg.sender] = AdminRequest({\r\n            name: _name,\r\n            employeeId: _employeeId,\r\n            email: _email,\r\n            approved: false\r\n        });\r\n    }\r\n\r\n    function getPendingAdmins() external view returns (address[] memory) {\r\n        return pendingAdmins;\r\n    }\r\n\r\n    function approveAdmin(address _adminAddress) external {\r\n        require(msg.sender == owner, \"Only owner can approve admins.\");\r\n        require(adminRequests[_adminAddress].employeeId != 0, \"No request found for this address.\");\r\n        require(!adminRequests[_adminAddress].approved, \"Request already approved.\");\r\n\r\n        admins[_adminAddress] = true;\r\n        adminNames[_adminAddress] = adminRequests[_adminAddress].name;\r\n        adminEmployeeIds[_adminAddress] = adminRequests[_adminAddress].employeeId;\r\n        adminEmails[_adminAddress] = adminRequests[_adminAddress].email;\r\n        adminRequests[_adminAddress].approved = true;\r\n\r\n        for (uint i = 0; i < pendingAdmins.length; i++) {\r\n            if (pendingAdmins[i] == _adminAddress) {\r\n                pendingAdmins[i] = pendingAdmins[pendingAdmins.length - 1];\r\n                pendingAdmins.pop();\r\n                break;\r\n            }\r\n        }\r\n    }\r\n\r\n    function isAdmin(address _address) external view returns (bool) {\r\n        return admins[_address];\r\n    }\r\n\r\n    function rejectAdmin(address _adminAddress) external {\r\n        require(msg.sender == owner, \"Only owner can reject admins.\");\r\n        require(adminRequests[_adminAddress].employeeId != 0, \"No request found for this address.\");\r\n        require(!adminRequests[_adminAddress].approved, \"Request already approved.\");\r\n\r\n        for (uint i = 0; i < pendingAdmins.length; i++) {\r\n            if (pendingAdmins[i] == _adminAddress) {\r\n                pendingAdmins[i] = pendingAdmins[pendingAdmins.length - 1];\r\n                pendingAdmins.pop();\r\n                break;\r\n            }\r\n        }\r\n\r\n        delete adminRequests[_adminAddress];\r\n    }\r\n\r\n    function registerEmployee(string memory ipfsHash) external {\r\n        require(!employeeRequests[msg.sender].approved, \"Employee already registered.\");\r\n        require(bytes(ipfsHash).length > 0, \"IPFS hash cannot be empty.\");\r\n\r\n        employeeRequests[msg.sender] = EmployeeRequest({\r\n            ipfsHash: ipfsHash,\r\n            approved: false\r\n        });\r\n\r\n        pendingEmployees.push(msg.sender);\r\n        emit EmployeeRegistered(msg.sender, ipfsHash);\r\n    }\r\n\r\n    function approveEmployee(address employee) external {\r\n        require(admins[msg.sender], \"Only admin can approve employees.\");\r\n        require(!employeeRequests[employee].approved, \"Employee already approved.\");\r\n        require(bytes(employeeRequests[employee].ipfsHash).length > 0, \"No request found for this employee.\");\r\n\r\n        employeeRequests[employee].approved = true;\r\n        employeeDataHashes[employee] = employeeRequests[employee].ipfsHash;\r\n        approvedEmployees.push(employee);\r\n\r\n        for (uint i = 0; i < pendingEmployees.length; i++) {\r\n            if (pendingEmployees[i] == employee) {\r\n                pendingEmployees[i] = pendingEmployees[pendingEmployees.length - 1];\r\n                pendingEmployees.pop();\r\n                break;\r\n            }\r\n        }\r\n\r\n        emit EmployeeApproved(employee);\r\n    }\r\n\r\n    function rejectEmployee(address employee) external {\r\n        require(admins[msg.sender], \"Only admin can reject employees.\");\r\n        require(!employeeRequests[employee].approved, \"Employee already approved.\");\r\n\r\n        for (uint i = 0; i < pendingEmployees.length; i++) {\r\n            if (pendingEmployees[i] == employee) {\r\n                pendingEmployees[i] = pendingEmployees[pendingEmployees.length - 1];\r\n                pendingEmployees.pop();\r\n                break;\r\n            }\r\n        }\r\n\r\n        delete employeeRequests[employee];\r\n        emit EmployeeRejected(employee);\r\n    }\r\n\r\n    function getPendingEmployees() external view returns (address[] memory) {\r\n        return pendingEmployees;\r\n    }\r\n\r\n    function getApprovedEmployees() external view returns (address[] memory) {\r\n        return approvedEmployees;\r\n    }\r\n\r\n    function getEmployeeDetails(address employee) external view returns (EmployeeRequest memory) {\r\n        return employeeRequests[employee];\r\n    }\r\n\r\n    modifier onlyEmployer(uint256 recordId) {\r\n        require(payrollRecords[recordId].employer == msg.sender, \"Not the employer\");\r\n        _;\r\n    }\r\n\r\n    function addPayrollRecord(uint256 recordId, string memory ipfsHash, address employee) public {\r\n        payrollRecords[recordId] = PayrollRecord(ipfsHash, employee, msg.sender);\r\n    }\r\n\r\n    function grantAccess(uint256 recordId, address employee) public onlyEmployer(recordId) {\r\n        accessPermissions[employee][recordId] = true;\r\n    }\r\n\r\n    function revokeAccess(uint256 recordId, address employee) public onlyEmployer(recordId) {\r\n        accessPermissions[employee][recordId] = false;\r\n    }\r\n\r\n    function getPayrollRecord(uint256 recordId) public view returns (string memory) {\r\n        require(accessPermissions[msg.sender][recordId], \"Not authorized\");\r\n        return payrollRecords[recordId].ipfsHash;\r\n    }\r\n}",
  "sourcePath": "C:\\Shalvi\\PayrollManagement_Blockchain\\payroll-smart-contract\\contracts\\Payroll.sol",
  "compiler": {
    "name": "solc",
    "version": "0.8.0+commit.c7dfd78e.Emscripten.clang"
  },
  "schemaVersion": "3.4.16",
  "updatedAt": "2025-03-21T00:22:05.444Z",
  "networkType": "ethereum",
  "devdoc": {
    "kind": "dev",
    "methods": {},
    "version": 1
  },
  "userdoc": {
    "kind": "user",
    "methods": {},
    "version": 1
  }
}