{
  "contractName": "Payroll",
  "abi": [
    {
      "inputs": [],
      "stateMutability": "nonpayable",
      "type": "constructor"
    },
    {
      "anonymous": false,
      "inputs": [
        {
          "indexed": true,
          "internalType": "address",
          "name": "adminAddress",
          "type": "address"
        },
        {
          "indexed": false,
          "internalType": "string",
          "name": "email",
          "type": "string"
        },
        {
          "indexed": false,
          "internalType": "string",
          "name": "ipfsHash",
          "type": "string"
        }
      ],
      "name": "AdminRequested",
      "type": "event"
    },
    {
      "anonymous": false,
      "inputs": [
        {
          "indexed": true,
          "internalType": "address",
          "name": "employeeAddress",
          "type": "address"
        },
        {
          "indexed": false,
          "internalType": "string",
          "name": "email",
          "type": "string"
        },
        {
          "indexed": false,
          "internalType": "string",
          "name": "ipfsHash",
          "type": "string"
        }
      ],
      "name": "EmployeeRequested",
      "type": "event"
    },
    {
      "inputs": [
        {
          "internalType": "address",
          "name": "",
          "type": "address"
        }
      ],
      "name": "AdminArrayIndex",
      "outputs": [
        {
          "internalType": "uint256",
          "name": "",
          "type": "uint256"
        }
      ],
      "stateMutability": "view",
      "type": "function",
      "constant": true
    },
    {
      "inputs": [],
      "name": "AdminIterator",
      "outputs": [
        {
          "internalType": "uint256",
          "name": "",
          "type": "uint256"
        }
      ],
      "stateMutability": "view",
      "type": "function",
      "constant": true
    },
    {
      "inputs": [
        {
          "internalType": "uint256",
          "name": "",
          "type": "uint256"
        }
      ],
      "name": "AdminsList",
      "outputs": [
        {
          "internalType": "string",
          "name": "email",
          "type": "string"
        },
        {
          "internalType": "string",
          "name": "ipfsHash",
          "type": "string"
        },
        {
          "internalType": "bool",
          "name": "approved",
          "type": "bool"
        }
      ],
      "stateMutability": "view",
      "type": "function",
      "constant": true
    },
    {
      "inputs": [
        {
          "internalType": "address",
          "name": "",
          "type": "address"
        }
      ],
      "name": "EmployeeArrayIndex",
      "outputs": [
        {
          "internalType": "uint256",
          "name": "",
          "type": "uint256"
        }
      ],
      "stateMutability": "view",
      "type": "function",
      "constant": true
    },
    {
      "inputs": [],
      "name": "EmployeeIterator",
      "outputs": [
        {
          "internalType": "uint256",
          "name": "",
          "type": "uint256"
        }
      ],
      "stateMutability": "view",
      "type": "function",
      "constant": true
    },
    {
      "inputs": [
        {
          "internalType": "uint256",
          "name": "",
          "type": "uint256"
        }
      ],
      "name": "EmployeeList",
      "outputs": [
        {
          "internalType": "string",
          "name": "email",
          "type": "string"
        },
        {
          "internalType": "string",
          "name": "ipfsHash",
          "type": "string"
        },
        {
          "internalType": "bool",
          "name": "approved",
          "type": "bool"
        }
      ],
      "stateMutability": "view",
      "type": "function",
      "constant": true
    },
    {
      "inputs": [
        {
          "internalType": "address",
          "name": "",
          "type": "address"
        }
      ],
      "name": "RegisterAdmins",
      "outputs": [
        {
          "internalType": "string",
          "name": "email",
          "type": "string"
        },
        {
          "internalType": "string",
          "name": "ipfsHash",
          "type": "string"
        },
        {
          "internalType": "bool",
          "name": "approved",
          "type": "bool"
        }
      ],
      "stateMutability": "view",
      "type": "function",
      "constant": true
    },
    {
      "inputs": [
        {
          "internalType": "address",
          "name": "",
          "type": "address"
        }
      ],
      "name": "RegisterEmployees",
      "outputs": [
        {
          "internalType": "string",
          "name": "email",
          "type": "string"
        },
        {
          "internalType": "string",
          "name": "ipfsHash",
          "type": "string"
        },
        {
          "internalType": "bool",
          "name": "approved",
          "type": "bool"
        }
      ],
      "stateMutability": "view",
      "type": "function",
      "constant": true
    },
    {
      "inputs": [],
      "name": "owner",
      "outputs": [
        {
          "internalType": "address",
          "name": "",
          "type": "address"
        }
      ],
      "stateMutability": "view",
      "type": "function",
      "constant": true
    },
    {
      "inputs": [
        {
          "internalType": "address",
          "name": "account",
          "type": "address"
        }
      ],
      "name": "isOwner",
      "outputs": [
        {
          "internalType": "bool",
          "name": "",
          "type": "bool"
        }
      ],
      "stateMutability": "view",
      "type": "function",
      "constant": true
    },
    {
      "inputs": [
        {
          "internalType": "string",
          "name": "email",
          "type": "string"
        },
        {
          "internalType": "string",
          "name": "ipfsHash",
          "type": "string"
        }
      ],
      "name": "registerAdmin",
      "outputs": [],
      "stateMutability": "nonpayable",
      "type": "function"
    },
    {
      "inputs": [
        {
          "internalType": "string",
          "name": "email",
          "type": "string"
        },
        {
          "internalType": "string",
          "name": "ipfsHash",
          "type": "string"
        }
      ],
      "name": "registerEmployee",
      "outputs": [],
      "stateMutability": "nonpayable",
      "type": "function"
    },
    {
      "inputs": [
        {
          "internalType": "address",
          "name": "adminAddress",
          "type": "address"
        }
      ],
      "name": "approveAdmin",
      "outputs": [],
      "stateMutability": "nonpayable",
      "type": "function"
    },
    {
      "inputs": [
        {
          "internalType": "address",
          "name": "adminAddress",
          "type": "address"
        }
      ],
      "name": "rejectAdmin",
      "outputs": [],
      "stateMutability": "nonpayable",
      "type": "function"
    },
    {
      "inputs": [
        {
          "internalType": "address",
          "name": "employeeAddress",
          "type": "address"
        },
        {
          "internalType": "string",
          "name": "newIpfsHash",
          "type": "string"
        }
      ],
      "name": "approveEmployee",
      "outputs": [],
      "stateMutability": "nonpayable",
      "type": "function"
    },
    {
      "inputs": [
        {
          "internalType": "address",
          "name": "employeeAddress",
          "type": "address"
        }
      ],
      "name": "rejectEmployee",
      "outputs": [],
      "stateMutability": "nonpayable",
      "type": "function"
    },
    {
      "inputs": [],
      "name": "getPendingAdmins",
      "outputs": [
        {
          "components": [
            {
              "internalType": "string",
              "name": "email",
              "type": "string"
            },
            {
              "internalType": "string",
              "name": "ipfsHash",
              "type": "string"
            },
            {
              "internalType": "bool",
              "name": "approved",
              "type": "bool"
            }
          ],
          "internalType": "struct Payroll.Admin[]",
          "name": "",
          "type": "tuple[]"
        }
      ],
      "stateMutability": "view",
      "type": "function",
      "constant": true
    },
    {
      "inputs": [],
      "name": "getApprovedAdmins",
      "outputs": [
        {
          "components": [
            {
              "internalType": "string",
              "name": "email",
              "type": "string"
            },
            {
              "internalType": "string",
              "name": "ipfsHash",
              "type": "string"
            },
            {
              "internalType": "bool",
              "name": "approved",
              "type": "bool"
            }
          ],
          "internalType": "struct Payroll.Admin[]",
          "name": "",
          "type": "tuple[]"
        }
      ],
      "stateMutability": "view",
      "type": "function",
      "constant": true
    },
    {
      "inputs": [],
      "name": "getPendingEmployees",
      "outputs": [
        {
          "components": [
            {
              "internalType": "string",
              "name": "email",
              "type": "string"
            },
            {
              "internalType": "string",
              "name": "ipfsHash",
              "type": "string"
            },
            {
              "internalType": "bool",
              "name": "approved",
              "type": "bool"
            }
          ],
          "internalType": "struct Payroll.Employee[]",
          "name": "",
          "type": "tuple[]"
        }
      ],
      "stateMutability": "view",
      "type": "function",
      "constant": true
    },
    {
      "inputs": [],
      "name": "getApprovedEmployees",
      "outputs": [
        {
          "components": [
            {
              "internalType": "string",
              "name": "email",
              "type": "string"
            },
            {
              "internalType": "string",
              "name": "ipfsHash",
              "type": "string"
            },
            {
              "internalType": "bool",
              "name": "approved",
              "type": "bool"
            }
          ],
          "internalType": "struct Payroll.Employee[]",
          "name": "",
          "type": "tuple[]"
        }
      ],
      "stateMutability": "view",
      "type": "function",
      "constant": true
    }
  ],
  "bytecode": "0x60806040526000600355600060045534801561001a57600080fd5b50600080546001600160a01b03191633179055611d188061003c6000396000f3fe608060405234801561001057600080fd5b506004361061012c5760003560e01c80637ae7523f116100ad578063b19769c811610071578063b19769c814610267578063b5c1b0a91461027a578063bdbcf7d914610282578063f8f98b7914610295578063ff978e9b146102a85761012c565b80637ae7523f1461020f5780638da5cb5b14610222578063964ce51e14610237578063a477b0241461024c578063add34bde1461025f5761012c565b80632f54bf6e116100f45780632f54bf6e146101a1578063428e7e74146101c1578063459ad834146101d457806366dc7bf1146101e95780636d73e669146101fc5761012c565b80630dab67b11461013157806312f597571461014f57806315dab9bb146101715780631f54bba01461018657806325e1c30314610199575b600080fd5b6101396102bb565b6040516101469190611c61565b60405180910390f35b61016261015d366004611861565b6102c1565b60405161014693929190611acf565b61018461017f366004611861565b6103f6565b005b610139610194366004611861565b6104db565b6101396104ed565b6101b46101af366004611861565b6104f3565b6040516101469190611a96565b6101846101cf366004611882565b61050a565b6101dc61063d565b60405161014691906119e3565b6101626101f7366004611861565b610921565b61018461020a366004611861565b61093c565b61018461021d366004611861565b6109f8565b61022a610a82565b60405161014691906119cf565b61023f610a91565b6040516101469190611a43565b61018461025a3660046118ce565b610d6a565b61023f610f3d565b610139610275366004611861565b611218565b6101dc61122a565b610162610290366004611925565b611503565b6101846102a33660046118ce565b611536565b6101626102b6366004611925565b6116fd565b60035481565b6006602052600090815260409020805481906102dc90611c6a565b80601f016020809104026020016040519081016040528092919081815260200182805461030890611c6a565b80156103555780601f1061032a57610100808354040283529160200191610355565b820191906000526020600020905b81548152906001019060200180831161033857829003601f168201915b50505050509080600101805461036a90611c6a565b80601f016020809104026020016040519081016040528092919081815260200182805461039690611c6a565b80156103e35780601f106103b8576101008083540402835291602001916103e3565b820191906000526020600020905b8154815290600101906020018083116103c657829003601f168201915b5050506002909301549192505060ff1683565b6000546001600160a01b031633146104295760405162461bcd60e51b815260040161042090611c2a565b60405180910390fd5b6001600160a01b03811660009081526005602052604090206002015460ff16156104655760405162461bcd60e51b815260040161042090611b07565b6001600160a01b0381166000908152600560209081526040808320600201805460ff1916905560079091528120546001805490919081106104b657634e487b7160e01b600052603260045260246000fd5b60009182526020909120600390910201600201805460ff191691151591909117905550565b60086020526000908152604090205481565b60045481565b6000546001600160a01b038281169116145b919050565b6001600160a01b03821660009081526006602052604090206002015460ff16156105465760405162461bcd60e51b815260040161042090611b07565b6001600160a01b038216600090815260066020908152604090912082516105759260019092019184019061170d565b506001600160a01b03821660009081526006602090815260408083206002908101805460ff19166001179055600890925290912054815490918391839081106105ce57634e487b7160e01b600052603260045260246000fd5b906000526020600020906003020160010190805190602001906105f292919061170d565b5060016002828154811061061657634e487b7160e01b600052603260045260246000fd5b60009182526020909120600390910201600201805460ff1916911515919091179055505050565b60606000805b6001548110156106aa576001818154811061066e57634e487b7160e01b600052603260045260246000fd5b600091825260209091206002600390920201015460ff1615610698578161069481611ca5565b9250505b806106a281611ca5565b915050610643565b5060008167ffffffffffffffff8111156106d457634e487b7160e01b600052604160045260246000fd5b60405190808252806020026020018201604052801561070d57816020015b6106fa611791565b8152602001906001900390816106f25790505b5090506000805b600154811015610918576001818154811061073f57634e487b7160e01b600052603260045260246000fd5b600091825260209091206002600390920201015460ff1615610906576001818154811061077c57634e487b7160e01b600052603260045260246000fd5b90600052602060002090600302016040518060600160405290816000820180546107a590611c6a565b80601f01602080910402602001604051908101604052809291908181526020018280546107d190611c6a565b801561081e5780601f106107f35761010080835404028352916020019161081e565b820191906000526020600020905b81548152906001019060200180831161080157829003601f168201915b5050505050815260200160018201805461083790611c6a565b80601f016020809104026020016040519081016040528092919081815260200182805461086390611c6a565b80156108b05780601f10610885576101008083540402835291602001916108b0565b820191906000526020600020905b81548152906001019060200180831161089357829003601f168201915b50505091835250506002919091015460ff16151560209091015283518490849081106108ec57634e487b7160e01b600052603260045260246000fd5b6020026020010181905250818061090290611ca5565b9250505b8061091081611ca5565b915050610714565b50909250505090565b6005602052600090815260409020805481906102dc90611c6a565b6000546001600160a01b031633146109665760405162461bcd60e51b815260040161042090611bf3565b6001600160a01b03811660009081526005602052604090206002015460ff16156109a25760405162461bcd60e51b815260040161042090611b07565b6001600160a01b0381166000908152600560209081526040808320600201805460ff19166001908117909155600790925290912054815482919081106104b657634e487b7160e01b600052603260045260246000fd5b6001600160a01b03811660009081526006602052604090206002015460ff1615610a345760405162461bcd60e51b815260040161042090611b07565b6001600160a01b03811660009081526006602090815260408083206002908101805460ff191690556008909252822054815481106104b657634e487b7160e01b600052603260045260246000fd5b6000546001600160a01b031681565b60606000805b600254811015610afd5760028181548110610ac257634e487b7160e01b600052603260045260246000fd5b600091825260209091206002600390920201015460ff16610aeb5781610ae781611ca5565b9250505b80610af581611ca5565b915050610a97565b5060008167ffffffffffffffff811115610b2757634e487b7160e01b600052604160045260246000fd5b604051908082528060200260200182016040528015610b6057816020015b610b4d611791565b815260200190600190039081610b455790505b5090506000805b6002548110156109185760028181548110610b9257634e487b7160e01b600052603260045260246000fd5b600091825260209091206002600390920201015460ff16610d585760028181548110610bce57634e487b7160e01b600052603260045260246000fd5b9060005260206000209060030201604051806060016040529081600082018054610bf790611c6a565b80601f0160208091040260200160405190810160405280929190818152602001828054610c2390611c6a565b8015610c705780601f10610c4557610100808354040283529160200191610c70565b820191906000526020600020905b815481529060010190602001808311610c5357829003601f168201915b50505050508152602001600182018054610c8990611c6a565b80601f0160208091040260200160405190810160405280929190818152602001828054610cb590611c6a565b8015610d025780601f10610cd757610100808354040283529160200191610d02565b820191906000526020600020905b815481529060010190602001808311610ce557829003601f168201915b50505091835250506002919091015460ff1615156020909101528351849084908110610d3e57634e487b7160e01b600052603260045260246000fd5b60200260200101819052508180610d5490611ca5565b9250505b80610d6281611ca5565b915050610b67565b3360009081526006602052604090206002015460ff1615610d9d5760405162461bcd60e51b815260040161042090611bbc565b6000825111610dbe5760405162461bcd60e51b815260040161042090611b68565b6000815111610ddf5760405162461bcd60e51b815260040161042090611b90565b604080516060810182528381526020808201849052600082840181905233815260068252929092208151805192938493610e1c928492019061170d565b506020828101518051610e35926001850192019061170d565b50604091909101516002918201805491151560ff1990921691909117905580546001810182556000919091528151805183926003027f405787fa12a823e0f2b7631cc41b3ba8828b3321ca811111fa75cd3aa3bb5ace0191610e9c9183916020019061170d565b506020828101518051610eb5926001850192019061170d565b50604091820151600291909101805460ff191691151591909117905560048054336000908152600860205292832081905591610ef083611ca5565b9190505550336001600160a01b03167f74df993ecd904806baa2cbe6f3ba762d37ac2bbfdab127b3a81e81f391de8fe28484604051610f30929190611aa1565b60405180910390a2505050565b60606000805b600254811015610faa5760028181548110610f6e57634e487b7160e01b600052603260045260246000fd5b600091825260209091206002600390920201015460ff1615610f985781610f9481611ca5565b9250505b80610fa281611ca5565b915050610f43565b5060008167ffffffffffffffff811115610fd457634e487b7160e01b600052604160045260246000fd5b60405190808252806020026020018201604052801561100d57816020015b610ffa611791565b815260200190600190039081610ff25790505b5090506000805b600254811015610918576002818154811061103f57634e487b7160e01b600052603260045260246000fd5b600091825260209091206002600390920201015460ff1615611206576002818154811061107c57634e487b7160e01b600052603260045260246000fd5b90600052602060002090600302016040518060600160405290816000820180546110a590611c6a565b80601f01602080910402602001604051908101604052809291908181526020018280546110d190611c6a565b801561111e5780601f106110f35761010080835404028352916020019161111e565b820191906000526020600020905b81548152906001019060200180831161110157829003601f168201915b5050505050815260200160018201805461113790611c6a565b80601f016020809104026020016040519081016040528092919081815260200182805461116390611c6a565b80156111b05780601f10611185576101008083540402835291602001916111b0565b820191906000526020600020905b81548152906001019060200180831161119357829003601f168201915b50505091835250506002919091015460ff16151560209091015283518490849081106111ec57634e487b7160e01b600052603260045260246000fd5b6020026020010181905250818061120290611ca5565b9250505b8061121081611ca5565b915050611014565b60076020526000908152604090205481565b60606000805b600154811015611296576001818154811061125b57634e487b7160e01b600052603260045260246000fd5b600091825260209091206002600390920201015460ff16611284578161128081611ca5565b9250505b8061128e81611ca5565b915050611230565b5060008167ffffffffffffffff8111156112c057634e487b7160e01b600052604160045260246000fd5b6040519080825280602002602001820160405280156112f957816020015b6112e6611791565b8152602001906001900390816112de5790505b5090506000805b600154811015610918576001818154811061132b57634e487b7160e01b600052603260045260246000fd5b600091825260209091206002600390920201015460ff166114f1576001818154811061136757634e487b7160e01b600052603260045260246000fd5b906000526020600020906003020160405180606001604052908160008201805461139090611c6a565b80601f01602080910402602001604051908101604052809291908181526020018280546113bc90611c6a565b80156114095780601f106113de57610100808354040283529160200191611409565b820191906000526020600020905b8154815290600101906020018083116113ec57829003601f168201915b5050505050815260200160018201805461142290611c6a565b80601f016020809104026020016040519081016040528092919081815260200182805461144e90611c6a565b801561149b5780601f106114705761010080835404028352916020019161149b565b820191906000526020600020905b81548152906001019060200180831161147e57829003601f168201915b50505091835250506002919091015460ff16151560209091015283518490849081106114d757634e487b7160e01b600052603260045260246000fd5b602002602001018190525081806114ed90611ca5565b9250505b806114fb81611ca5565b915050611300565b6001818154811061151357600080fd5b90600052602060002090600302016000915090508060000180546102dc90611c6a565b3360009081526005602052604090206002015460ff16156115695760405162461bcd60e51b815260040161042090611b31565b600082511161158a5760405162461bcd60e51b815260040161042090611b68565b60008151116115ab5760405162461bcd60e51b815260040161042090611b90565b6040805160608101825283815260208082018490526000828401819052338152600582529290922081518051929384936115e8928492019061170d565b506020828101518051611601926001850192019061170d565b50604091909101516002909101805491151560ff199092169190911790556001805480820182556000919091528151805183926003027fb10e2d527612073b26eecdfd717e6a320cf44b4afac2b0732d9fcbe2b7fa0cf601916116699183916020019061170d565b506020828101518051611682926001850192019061170d565b50604091820151600291909101805460ff1916911515919091179055600380543360009081526007602052928320819055916116bd83611ca5565b9190505550336001600160a01b03167ff45f9140869e0b2158cd2702175461c147dce957c3cf73ce2c8d93354ae113a08484604051610f30929190611aa1565b6002818154811061151357600080fd5b82805461171990611c6a565b90600052602060002090601f01602090048101928261173b5760008555611781565b82601f1061175457805160ff1916838001178555611781565b82800160010185558215611781579182015b82811115611781578251825591602001919060010190611766565b5061178d9291506117b4565b5090565b604051806060016040528060608152602001606081526020016000151581525090565b5b8082111561178d57600081556001016117b5565b80356001600160a01b038116811461050557600080fd5b600082601f8301126117f0578081fd5b813567ffffffffffffffff8082111561180b5761180b611ccc565b604051601f8301601f19168101602001828111828210171561182f5761182f611ccc565b604052828152848301602001861015611846578384fd5b82602086016020830137918201602001929092529392505050565b600060208284031215611872578081fd5b61187b826117c9565b9392505050565b60008060408385031215611894578081fd5b61189d836117c9565b9150602083013567ffffffffffffffff8111156118b8578182fd5b6118c4858286016117e0565b9150509250929050565b600080604083850312156118e0578182fd5b823567ffffffffffffffff808211156118f7578384fd5b611903868387016117e0565b93506020850135915080821115611918578283fd5b506118c4858286016117e0565b600060208284031215611936578081fd5b5035919050565b60008151808452815b8181101561196257602081850181015186830182015201611946565b818111156119735782602083870101525b50601f01601f19169290920160200192915050565b600081516060845261199d606085018261193d565b9050602083015184820360208601526119b6828261193d565b9150506040830151151560408501528091505092915050565b6001600160a01b0391909116815260200190565b6000602080830181845280855180835260408601915060408482028701019250838701855b82811015611a3657603f19888603018452611a24858351611988565b94509285019290850190600101611a08565b5092979650505050505050565b6000602080830181845280855180835260408601915060408482028701019250838701855b82811015611a3657603f19888603018452611a84858351611988565b94509285019290850190600101611a68565b901515815260200190565b600060408252611ab4604083018561193d565b8281036020840152611ac6818561193d565b95945050505050565b600060608252611ae2606083018661193d565b8281036020840152611af4818661193d565b9150508215156040830152949350505050565b60208082526010908201526f105b1c9958591e48185c1c1c9bdd995960821b604082015260600190565b6020808252601b908201527f416c726561647920726567697374657265642061732061646d696e0000000000604082015260600190565b6020808252600e908201526d115b585a5b081c995c5d5a5c995960921b604082015260600190565b60208082526012908201527112541194c81a185cda081c995c5d5a5c995960721b604082015260600190565b6020808252601e908201527f416c7265616479207265676973746572656420617320656d706c6f7965650000604082015260600190565b6020808252601d908201527f4f6e6c79206f776e65722063616e20617070726f76652061646d696e73000000604082015260600190565b6020808252601c908201527f4f6e6c79206f776e65722063616e2072656a6563742061646d696e7300000000604082015260600190565b90815260200190565b600281046001821680611c7e57607f821691505b60208210811415611c9f57634e487b7160e01b600052602260045260246000fd5b50919050565b6000600019821415611cc557634e487b7160e01b81526011600452602481fd5b5060010190565b634e487b7160e01b600052604160045260246000fdfea264697066735822122022b3ee228afa7841e05689f48f28423352547cc1c8050746b612f6631df1e95b64736f6c63430008000033",
  "immutableReferences": {},
  "source": "// SPDX-License-Identifier: MIT\r\npragma solidity ^0.8.0;\r\n\r\ncontract Payroll {\r\n\r\n    struct Admin {\r\n        string email;\r\n        string ipfsHash;\r\n        bool approved;\r\n    }\r\n    struct Employee {\r\n        string email;\r\n        string ipfsHash;\r\n        bool approved;\r\n    }\r\n\r\n    address public owner;\r\n    Admin[] public AdminsList;\r\n    Employee[] public EmployeeList;\r\n\r\n    uint public AdminIterator = 0;\r\n    uint public EmployeeIterator = 0;\r\n\r\n    mapping(address => Admin) public RegisterAdmins;\r\n    mapping(address => Employee) public RegisterEmployees;\r\n    mapping(address => uint) public AdminArrayIndex;\r\n    mapping(address => uint) public EmployeeArrayIndex;\r\n\r\n    event AdminRequested(address indexed adminAddress, string email, string ipfsHash);\r\n    event EmployeeRequested(address indexed employeeAddress, string email, string ipfsHash);\r\n\r\n    constructor() {\r\n        owner = msg.sender;\r\n    }\r\n\r\n    function isOwner(address account) public view returns (bool) {\r\n        return account == owner;\r\n    }\r\n\r\n    function registerAdmin(string memory email, string memory ipfsHash) public {\r\n        require(!RegisterAdmins[msg.sender].approved, \"Already registered as admin\");\r\n        require(bytes(email).length > 0, \"Email required\");\r\n        require(bytes(ipfsHash).length > 0, \"IPFS hash required\");\r\n\r\n        Admin memory newAdmin = Admin({\r\n            email: email,\r\n            ipfsHash: ipfsHash,\r\n            approved: false\r\n        });\r\n        RegisterAdmins[msg.sender] = newAdmin;\r\n\r\n        AdminsList.push(newAdmin);\r\n\r\n        AdminArrayIndex[msg.sender] = AdminIterator;\r\n        AdminIterator++;\r\n        emit AdminRequested(msg.sender, email, ipfsHash);\r\n    }\r\n\r\n    function registerEmployee(string memory email, string memory ipfsHash) public {\r\n        require(!RegisterEmployees[msg.sender].approved, \"Already registered as employee\");\r\n        require(bytes(email).length > 0, \"Email required\");\r\n        require(bytes(ipfsHash).length > 0, \"IPFS hash required\");\r\n        \r\n        Employee memory newEmployee = Employee({\r\n            email: email,\r\n            ipfsHash: ipfsHash,\r\n            approved: false\r\n        });\r\n        RegisterEmployees[msg.sender] = newEmployee;\r\n\r\n        EmployeeList.push(newEmployee); \r\n        \r\n        EmployeeArrayIndex[msg.sender] = EmployeeIterator;\r\n        EmployeeIterator++;\r\n        emit EmployeeRequested(msg.sender, email, ipfsHash);\r\n    }\r\n\r\n    function approveAdmin(address adminAddress) public {\r\n        require(msg.sender == owner, \"Only owner can approve admins\");\r\n        require(!RegisterAdmins[adminAddress].approved, \"Already approved\");\r\n        RegisterAdmins[adminAddress].approved = true;\r\n        AdminsList[AdminArrayIndex[adminAddress]].approved = true;\r\n    }\r\n\r\n    function rejectAdmin(address adminAddress) public {\r\n        require(msg.sender == owner, \"Only owner can reject admins\");\r\n        require(!RegisterAdmins[adminAddress].approved, \"Already approved\");\r\n        RegisterAdmins[adminAddress].approved = false;\r\n        AdminsList[AdminArrayIndex[adminAddress]].approved = false;\r\n    }\r\n\r\n    function approveEmployee(address employeeAddress, string memory newIpfsHash) public {\r\n        require(!RegisterEmployees[employeeAddress].approved, \"Already approved\");\r\n        RegisterEmployees[employeeAddress].ipfsHash = newIpfsHash; // Update IPFS hash\r\n        RegisterEmployees[employeeAddress].approved = true;\r\n        uint index = EmployeeArrayIndex[employeeAddress];\r\n        EmployeeList[index].ipfsHash = newIpfsHash; \r\n        EmployeeList[index].approved = true;\r\n    }\r\n\r\n    function rejectEmployee(address employeeAddress) public {\r\n        require(!RegisterEmployees[employeeAddress].approved, \"Already approved\");\r\n        RegisterEmployees[employeeAddress].approved = false;\r\n        EmployeeList[EmployeeArrayIndex[employeeAddress]].approved = false;\r\n    }\r\n\r\n    function getPendingAdmins() public view returns (Admin[] memory) {\r\n        uint count = 0;\r\n        for (uint i = 0; i < AdminsList.length; i++) {\r\n            if (!AdminsList[i].approved) {\r\n                count++;\r\n            }\r\n        }\r\n        Admin[] memory pendingAdmins = new Admin[](count);\r\n        uint index = 0; \r\n        for (uint i = 0; i < AdminsList.length; i++) {\r\n            if (!AdminsList[i].approved) {\r\n                pendingAdmins[index] = AdminsList[i];\r\n                index++;\r\n            }\r\n        }\r\n        return pendingAdmins;\r\n    }\r\n\r\n    function getApprovedAdmins() public view returns (Admin[] memory) {\r\n        uint count = 0;\r\n        for (uint i = 0; i < AdminsList.length; i++) {\r\n            if (AdminsList[i].approved) {\r\n                count++;\r\n            }\r\n        }\r\n        Admin[] memory approvedAdmins = new Admin[](count);\r\n        uint index = 0;\r\n        for (uint i = 0; i < AdminsList.length; i++) {\r\n            if (AdminsList[i].approved) {\r\n                approvedAdmins[index] = AdminsList[i];\r\n                index++;\r\n            }\r\n        }\r\n        return approvedAdmins;\r\n    }\r\n\r\n    function getPendingEmployees() public view returns (Employee[] memory) {\r\n        uint count = 0;\r\n        for (uint i = 0; i < EmployeeList.length; i++) {\r\n            if (!EmployeeList[i].approved) {\r\n                count++;\r\n            }\r\n        }\r\n        Employee[] memory pendingEmployees = new Employee[](count);\r\n        uint index = 0;\r\n        for (uint i = 0; i < EmployeeList.length; i++) {\r\n            if (!EmployeeList[i].approved) {\r\n                pendingEmployees[index] = EmployeeList[i];\r\n                index++;\r\n            }\r\n        }\r\n        return pendingEmployees;\r\n    }\r\n    \r\n    function getApprovedEmployees() public view returns (Employee[] memory) {\r\n        uint count = 0;\r\n        for (uint i = 0; i < EmployeeList.length; i++) {\r\n            if (EmployeeList[i].approved) {\r\n                count++;\r\n            }\r\n        }\r\n        Employee[] memory approvedEmployees = new Employee[](count);\r\n        uint index = 0; \r\n        for (uint i = 0; i < EmployeeList.length; i++) {\r\n            if (EmployeeList[i].approved) {\r\n                approvedEmployees[index] = EmployeeList[i];\r\n                index++;\r\n            }\r\n        }\r\n        return approvedEmployees;\r\n    }\r\n\r\n\r\n\r\n\r\n\r\n\r\n    /*address public owner;\r\n    address[] public pendingAdmins;\r\n    address[] public pendingEmployees;\r\n    address[] public approvedEmployees;\r\n    address[] public approvedAdmins;\r\n    uint256 public constant TAX_RATE = 20;\r\n    uint256 public constant NI_RATE = 12;\r\n    \r\n    // Existing structures\r\n    struct PayrollRecord {\r\n        string ipfsHash;\r\n        address employee;\r\n        address employer;\r\n    }\r\n\r\n    struct AdminRequest {\r\n        string name;\r\n        uint256 employeeId;\r\n        string email;\r\n        bool approved;\r\n    }\r\n\r\n    struct EmployeeRequest {\r\n        string name;\r\n        uint256 employeeId;\r\n        string email;\r\n        string ipfsHash;\r\n        bool approved;\r\n        bool exists; // New flag to check if request exists\r\n    }\r\n\r\n    struct SalaryRecord {\r\n        uint256 grossAmount;\r\n        uint256 taxAmount;\r\n        uint256 niAmount;\r\n        uint256 netAmount;\r\n        uint256 timestamp;\r\n        bool paid;\r\n    }\r\n\r\n    struct Payslip {\r\n        string ipfsHash;\r\n        bool generated;\r\n    }\r\n\r\n    struct TaxSlab {\r\n        uint256 min;\r\n        uint256 max;\r\n        uint256 rate;\r\n    }\r\n\r\n    // New structures for enhanced functionality\r\n    struct EmployeeOnChainData {\r\n        string fullName;\r\n        uint256 employeeId;\r\n        string email;\r\n        uint256 annualSalary;\r\n        uint256 monthlySalary;\r\n        uint256 taxAmount;\r\n        uint256 niAmount;\r\n        uint256 netSalary;\r\n        uint256 startDate;\r\n    }\r\n\r\n    // Existing mappings\r\n    mapping(address => bool) public admins;\r\n    mapping(address => string) public adminNames;\r\n    mapping(address => uint256) public adminEmployeeIds;\r\n    mapping(address => string) public adminEmails;\r\n    mapping(uint256 => PayrollRecord) public payrollRecords;\r\n    mapping(address => mapping(uint256 => bool)) public accessPermissions;\r\n    mapping(address => AdminRequest) public adminRequests;\r\n    mapping(address => EmployeeRequest) public employeeRequests;\r\n    mapping(address => string) public employeeDataHashes;\r\n    mapping(address => mapping(uint256 => SalaryRecord)) public employeeSalaries;\r\n    mapping(address => mapping(uint256 => Payslip)) public payslips;\r\n    mapping(address => uint256[]) public employeeSalaryMonths;\r\n    TaxSlab[] public taxSlabs;\r\n\r\n    // New mappings\r\n    mapping(address => EmployeeOnChainData) public employeeOnChainData;\r\n\r\n    // Events\r\n    event EmployeeRegistered( address indexed employee, string fullName, uint256 employeeId, string email);\r\n    event EmployeeApproved(address indexed employee, uint256 annualSalary, string ipfsHash);\r\n    event EmployeeRejected(address indexed employee);\r\n    event AdminRequested(address indexed adminAddress, string name, uint256 employeeId, string email);\r\n    event AdminApproved(address indexed adminAddress);\r\n    event AdminRejected(address indexed adminAddress);\r\n    event SalaryAdded(address indexed employee, uint256 yearMonth, uint256 netAmount);\r\n    event PayslipGenerated(address indexed employee, uint256 yearMonth, string ipfsHash);\r\n    event PayrollRecordAdded(uint256 indexed recordId, address indexed employee);\r\n    event AccessGranted(uint256 indexed recordId, address indexed employee);\r\n    event AccessRevoked(uint256 indexed recordId, address indexed employee);\r\n    event SalaryUpdated(address indexed employee, uint256 newAnnualSalary);\r\n\r\n    modifier onlyAdmin() {\r\n        require(admins[msg.sender] || msg.sender == owner, \"Not authorized\");\r\n        _;\r\n    }\r\n\r\n    modifier onlyOwner() {\r\n        require(msg.sender == owner, \"Not owner\");\r\n        _;\r\n    }\r\n\r\n    constructor() {\r\n        owner = msg.sender;\r\n        taxSlabs.push(TaxSlab(0, 1000 ether, 10));\r\n        taxSlabs.push(TaxSlab(1000 ether, 5000 ether, 20));\r\n        taxSlabs.push(TaxSlab(5000 ether, type(uint256).max, 30));\r\n    }\r\n\r\n    // Admin Functions\r\n    function verifyOwner(address _address) external view returns (bool) {\r\n        return _address == owner;\r\n    }\r\n\r\n    function requestAdminRole(string memory _name, uint256 _employeeId, string memory _email) external {\r\n        require(!admins[msg.sender], \"Already an admin\");\r\n        require(bytes(_name).length > 0, \"Name required\");\r\n        require(_employeeId > 0, \"Invalid employee ID\");\r\n        require(bytes(_email).length > 0, \"Email required\");\r\n\r\n        adminRequests[msg.sender] = AdminRequest({\r\n            name: _name,\r\n            employeeId: _employeeId,\r\n            email: _email,\r\n            approved: false\r\n        });\r\n\r\n        pendingAdmins.push(msg.sender);\r\n        emit AdminRequested(msg.sender, _name, _employeeId, _email);\r\n    }\r\n\r\n    function approveAdmin(address _adminAddress) external onlyOwner {\r\n        require(!adminRequests[_adminAddress].approved, \"Already approved\");\r\n        \r\n        admins[_adminAddress] = true;\r\n        adminNames[_adminAddress] = adminRequests[_adminAddress].name;\r\n        adminEmployeeIds[_adminAddress] = adminRequests[_adminAddress].employeeId;\r\n        adminEmails[_adminAddress] = adminRequests[_adminAddress].email;\r\n        adminRequests[_adminAddress].approved = true;\r\n\r\n        _removeFromPendingAdmins(_adminAddress);\r\n        approvedAdmins.push(_adminAddress);\r\n        emit AdminApproved(_adminAddress);\r\n    }\r\n\r\n    function rejectAdmin(address _adminAddress) external onlyOwner {\r\n        require(!adminRequests[_adminAddress].approved, \"Already approved\");\r\n        _removeFromPendingAdmins(_adminAddress);\r\n        delete adminRequests[_adminAddress];\r\n        emit AdminRejected(_adminAddress);\r\n    }\r\n\r\n    // Employee Functions\r\n    function registerEmployee(\r\n        string memory _fullName,\r\n        uint256 _employeeId,\r\n        string memory _email,\r\n        string memory _ipfsHash\r\n    ) external {\r\n        require(!employeeRequests[msg.sender].exists, \"Already registered\");\r\n        require(bytes(_fullName).length > 0, \"Name required\");\r\n        require(_employeeId > 0, \"Invalid employee ID\");\r\n        require(bytes(_email).length > 0, \"Email required\");\r\n        require(bytes(_ipfsHash).length > 0, \"IPFS hash required\");\r\n\r\n        employeeRequests[msg.sender] = EmployeeRequest({\r\n            name: _fullName,\r\n            employeeId: _employeeId,\r\n            email: _email,\r\n            ipfsHash: _ipfsHash,\r\n            approved: false,\r\n            exists: true\r\n        });\r\n\r\n        pendingEmployees.push(msg.sender);\r\n        // Emit all relevant data\r\n        emit EmployeeRegistered(msg.sender,_fullName,_employeeId,_email);\r\n    }\r\n\r\n    function approveEmployee(\r\n    address employee,\r\n    uint256 annualSalary,\r\n    string calldata updatedIpfsHash  // Add this parameter\r\n) external onlyAdmin {\r\n    require(!employeeRequests[employee].approved, \"Already approved\");\r\n    \r\n    (uint256 monthly, uint256 tax, uint256 ni, uint256 net) = calculateSalaryComponents(annualSalary);\r\n    \r\n    EmployeeOnChainData storage data = employeeOnChainData[employee];\r\n    data.annualSalary = annualSalary;\r\n    data.monthlySalary = monthly;\r\n    data.taxAmount = tax;\r\n    data.niAmount = ni;\r\n    data.netSalary = net;\r\n    data.startDate = block.timestamp;\r\n\r\n    // Update the IPFS hash in the employee request\r\n    employeeRequests[employee].ipfsHash = updatedIpfsHash;\r\n    employeeRequests[employee].approved = true;\r\n    \r\n    approvedEmployees.push(employee);\r\n    _removeFromPendingEmployees(employee);\r\n    \r\n    emit EmployeeApproved(employee, annualSalary, updatedIpfsHash);\r\n}\r\n\r\n    function rejectEmployee(address employee) external onlyAdmin {\r\n        require(!employeeRequests[employee].approved, \"Already approved\");\r\n        _removeFromPendingEmployees(employee);\r\n        delete employeeRequests[employee];\r\n        emit EmployeeRejected(employee);\r\n    }\r\n\r\n    function updateEmployeeIPFSHash(address employee, string memory ipfsHash) public onlyAdmin {\r\n        employeeRequests[employee].ipfsHash = ipfsHash;\r\n        emit EmployeeApproved(employee, employeeOnChainData[employee].annualSalary, ipfsHash); // Emit updated event\r\n    }\r\n\r\n    function calculateSalaryComponents(uint256 annualSalary) public pure returns (\r\n        uint256 monthly,\r\n        uint256 tax,\r\n        uint256 ni,\r\n        uint256 net\r\n    ) {\r\n        monthly = annualSalary / 12;\r\n        tax = (monthly * TAX_RATE) / 100;\r\n        ni = (monthly * NI_RATE) / 100;\r\n        net = monthly - tax - ni;\r\n        return (monthly, tax, ni, net);\r\n    }\r\n\r\n    function getEmployeeSalaryDetails(address employee) public view returns (\r\n        uint256 annual,\r\n        uint256 monthly,\r\n        uint256 tax,\r\n        uint256 ni,\r\n        uint256 net\r\n    ) {\r\n        EmployeeOnChainData memory data = employeeOnChainData[employee];\r\n        return (\r\n            data.annualSalary,\r\n            data.monthlySalary,\r\n            data.taxAmount,\r\n            data.niAmount,\r\n            data.netSalary\r\n        );\r\n    }\r\n\r\n    // Payroll Functions\r\n    function addSalary(\r\n        address employee,\r\n        uint256 yearMonth,\r\n        uint256 grossSalary\r\n    ) external onlyAdmin {\r\n        require(!employeeSalaries[employee][yearMonth].paid, \"Salary exists\");\r\n        require(grossSalary > 0, \"Invalid salary amount\");\r\n\r\n        uint256 tax = calculateTax(grossSalary);\r\n        uint256 ni = (grossSalary * NI_RATE) / 100;\r\n        uint256 netSalary = grossSalary - tax - ni;\r\n\r\n        employeeSalaries[employee][yearMonth] = SalaryRecord({\r\n            grossAmount: grossSalary,\r\n            taxAmount: tax,\r\n            niAmount: ni,\r\n            netAmount: netSalary,\r\n            timestamp: block.timestamp,\r\n            paid: true\r\n        });\r\n\r\n        employeeSalaryMonths[employee].push(yearMonth);\r\n        emit SalaryAdded(employee, yearMonth, netSalary);\r\n    }\r\n\r\n    function setPayslipCID(\r\n        address employee,\r\n        uint256 yearMonth,\r\n        string calldata ipfsHash\r\n    ) external onlyAdmin {\r\n        require(employeeSalaries[employee][yearMonth].timestamp != 0, \"Salary not found\");\r\n        payslips[employee][yearMonth] = Payslip(ipfsHash, true);\r\n        emit PayslipGenerated(employee, yearMonth, ipfsHash);\r\n    }\r\n\r\n    // Helper Functions\r\n    function calculateTax(uint256 grossSalary) public view returns (uint256) {\r\n        for (uint i = 0; i < taxSlabs.length; i++) {\r\n            if (grossSalary >= taxSlabs[i].min && grossSalary < taxSlabs[i].max) {\r\n                return (grossSalary * taxSlabs[i].rate) / 100;\r\n            }\r\n        }\r\n        return 0;\r\n    }\r\n\r\n    function addPayrollRecord(uint256 recordId, string memory ipfsHash, address employee) public onlyAdmin {\r\n        require(bytes(ipfsHash).length > 0, \"IPFS hash required\");\r\n        require(employee != address(0), \"Invalid employee address\");\r\n        \r\n        payrollRecords[recordId] = PayrollRecord(ipfsHash, employee, msg.sender);\r\n        emit PayrollRecordAdded(recordId, employee);\r\n    }\r\n\r\n    function grantAccess(uint256 recordId, address employee) public {\r\n        require(payrollRecords[recordId].employer == msg.sender, \"Not employer\");\r\n        emit AccessGranted(recordId, employee);\r\n    }\r\n\r\n    function revokeAccess(uint256 recordId, address employee) public {\r\n        require(payrollRecords[recordId].employer == msg.sender, \"Not employer\");\r\n        accessPermissions[employee][recordId] = false;\r\n        emit AccessRevoked(recordId, employee);\r\n    }\r\n\r\n    // Private Functions\r\n    function _removeFromPendingAdmins(address _adminAddress) private {\r\n        for (uint i = 0; i < pendingAdmins.length; i++) {\r\n            if (pendingAdmins[i] == _adminAddress) {\r\n                pendingAdmins[i] = pendingAdmins[pendingAdmins.length - 1];\r\n                pendingAdmins.pop();\r\n                break;\r\n            }\r\n        }\r\n    }\r\n\r\n    function _removeFromPendingEmployees(address employee) private {\r\n        for (uint i = 0; i < pendingEmployees.length; i++) {\r\n            if (pendingEmployees[i] == employee) {\r\n                pendingEmployees[i] = pendingEmployees[pendingEmployees.length - 1];\r\n                pendingEmployees.pop();\r\n                break;\r\n            }\r\n        }\r\n    }\r\n\r\n    // View Functions\r\n    function isAdmin(address _address) external view returns (bool) {\r\n        return admins[_address];\r\n    }\r\n\r\n    function getPendingAdmins() external view returns (address[] memory) {\r\n        return pendingAdmins;\r\n    }\r\n\r\n    function getApprovedAdmins() external view returns (address[] memory) {\r\n        return approvedAdmins;\r\n    }\r\n\r\n    function getPendingEmployees() external view returns (address[] memory) {\r\n        return pendingEmployees;\r\n    }\r\n\r\n    function getApprovedEmployees() external view returns (address[] memory) {\r\n        return approvedEmployees;\r\n    }\r\n\r\n    function getEmployeeDetails(address employee) external view returns (EmployeeRequest memory) {\r\n        return employeeRequests[employee];\r\n    }\r\n\r\n    function getSalaryMonths(address employee) external view returns (uint256[] memory) {\r\n        return employeeSalaryMonths[employee];\r\n    }\r\n\r\n    function getPayrollRecord(uint256 recordId) public view returns (string memory) {\r\n        require(accessPermissions[msg.sender][recordId], \"Not authorized\");\r\n        return payrollRecords[recordId].ipfsHash;\r\n    }*/\r\n}",
  "sourcePath": "C:\\Shalvi\\PayrollManagement_Blockchain\\payroll-smart-contract\\contracts\\Payroll.sol",
  "compiler": {
    "name": "solc",
    "version": "0.8.0+commit.c7dfd78e.Emscripten.clang"
  },
  "schemaVersion": "3.4.16",
  "updatedAt": "2025-05-02T22:48:55.455Z",
  "networkType": "ethereum",
  "devdoc": {
    "kind": "dev",
    "methods": {},
    "version": 1
  },
  "userdoc": {
    "kind": "user",
    "methods": {},
    "version": 1
  }
}